Archive member included to satisfy reference by file (symbol)

c:/cypress/psoc creator/4.4/psoc creator/import/gnu/arm/5.4.1/bin/../lib/gcc/arm-none-eabi/5.4.1/armv6-m\libgcc.a(_thumb1_case_uqi.o)
                              .\CortexM0p\ARM_GCC_541\Release\cy_lvd.o (__gnu_thumb1_case_uqi)
c:/cypress/psoc creator/4.4/psoc creator/import/gnu/arm/5.4.1/bin/../lib/gcc/arm-none-eabi/5.4.1/armv6-m\libgcc.a(_udivsi3.o)
                              .\CortexM0p\ARM_GCC_541\Release\system_psoc6_cm0plus.o (__aeabi_uidiv)
c:/cypress/psoc creator/4.4/psoc creator/import/gnu/arm/5.4.1/bin/../lib/gcc/arm-none-eabi/5.4.1/armv6-m\libgcc.a(_dvmd_tls.o)
                              c:/cypress/psoc creator/4.4/psoc creator/import/gnu/arm/5.4.1/bin/../lib/gcc/arm-none-eabi/5.4.1/armv6-m\libgcc.a(_udivsi3.o) (__aeabi_idiv0)
c:/cypress/psoc creator/4.4/psoc creator/import/gnu/arm/5.4.1/bin/../lib/gcc/arm-none-eabi/5.4.1/armv6-m\libgcc.a(_arm_cmpsf2.o)
                              .\CortexM0p\ARM_GCC_541\Release\cy_sysclk.o (__aeabi_fcmplt)
c:/cypress/psoc creator/4.4/psoc creator/import/gnu/arm/5.4.1/bin/../lib/gcc/arm-none-eabi/5.4.1/armv6-m\libgcc.a(_aeabi_uldivmod.o)
                              .\CortexM0p\ARM_GCC_541\Release\cy_sysclk.o (__aeabi_uldivmod)
c:/cypress/psoc creator/4.4/psoc creator/import/gnu/arm/5.4.1/bin/../lib/gcc/arm-none-eabi/5.4.1/armv6-m\libgcc.a(_muldi3.o)
                              .\CortexM0p\ARM_GCC_541\Release\cy_profile.o (__aeabi_lmul)
c:/cypress/psoc creator/4.4/psoc creator/import/gnu/arm/5.4.1/bin/../lib/gcc/arm-none-eabi/5.4.1/armv6-m\libgcc.a(_fixunssfsi.o)
                              .\CortexM0p\ARM_GCC_541\Release\cy_sysclk.o (__aeabi_f2uiz)
c:/cypress/psoc creator/4.4/psoc creator/import/gnu/arm/5.4.1/bin/../lib/gcc/arm-none-eabi/5.4.1/armv6-m\libgcc.a(_fixunsdfsi.o)
                              .\CortexM0p\ARM_GCC_541\Release\cy_sysclk.o (__aeabi_d2uiz)
c:/cypress/psoc creator/4.4/psoc creator/import/gnu/arm/5.4.1/bin/../lib/gcc/arm-none-eabi/5.4.1/armv6-m\libgcc.a(_udivmoddi4.o)
                              c:/cypress/psoc creator/4.4/psoc creator/import/gnu/arm/5.4.1/bin/../lib/gcc/arm-none-eabi/5.4.1/armv6-m\libgcc.a(_aeabi_uldivmod.o) (__udivmoddi4)
c:/cypress/psoc creator/4.4/psoc creator/import/gnu/arm/5.4.1/bin/../lib/gcc/arm-none-eabi/5.4.1/armv6-m\libgcc.a(addsf3.o)
                              .\CortexM0p\ARM_GCC_541\Release\cy_sysclk.o (__aeabi_fadd)
c:/cypress/psoc creator/4.4/psoc creator/import/gnu/arm/5.4.1/bin/../lib/gcc/arm-none-eabi/5.4.1/armv6-m\libgcc.a(divsf3.o)
                              .\CortexM0p\ARM_GCC_541\Release\cy_sysclk.o (__aeabi_fdiv)
c:/cypress/psoc creator/4.4/psoc creator/import/gnu/arm/5.4.1/bin/../lib/gcc/arm-none-eabi/5.4.1/armv6-m\libgcc.a(eqsf2.o)
                              c:/cypress/psoc creator/4.4/psoc creator/import/gnu/arm/5.4.1/bin/../lib/gcc/arm-none-eabi/5.4.1/armv6-m\libgcc.a(_arm_cmpsf2.o) (__eqsf2)
c:/cypress/psoc creator/4.4/psoc creator/import/gnu/arm/5.4.1/bin/../lib/gcc/arm-none-eabi/5.4.1/armv6-m\libgcc.a(gesf2.o)
                              c:/cypress/psoc creator/4.4/psoc creator/import/gnu/arm/5.4.1/bin/../lib/gcc/arm-none-eabi/5.4.1/armv6-m\libgcc.a(_arm_cmpsf2.o) (__gesf2)
c:/cypress/psoc creator/4.4/psoc creator/import/gnu/arm/5.4.1/bin/../lib/gcc/arm-none-eabi/5.4.1/armv6-m\libgcc.a(lesf2.o)
                              c:/cypress/psoc creator/4.4/psoc creator/import/gnu/arm/5.4.1/bin/../lib/gcc/arm-none-eabi/5.4.1/armv6-m\libgcc.a(_arm_cmpsf2.o) (__lesf2)
c:/cypress/psoc creator/4.4/psoc creator/import/gnu/arm/5.4.1/bin/../lib/gcc/arm-none-eabi/5.4.1/armv6-m\libgcc.a(mulsf3.o)
                              .\CortexM0p\ARM_GCC_541\Release\cy_sysclk.o (__aeabi_fmul)
c:/cypress/psoc creator/4.4/psoc creator/import/gnu/arm/5.4.1/bin/../lib/gcc/arm-none-eabi/5.4.1/armv6-m\libgcc.a(subsf3.o)
                              .\CortexM0p\ARM_GCC_541\Release\cy_sysclk.o (__aeabi_fsub)
c:/cypress/psoc creator/4.4/psoc creator/import/gnu/arm/5.4.1/bin/../lib/gcc/arm-none-eabi/5.4.1/armv6-m\libgcc.a(fixsfsi.o)
                              c:/cypress/psoc creator/4.4/psoc creator/import/gnu/arm/5.4.1/bin/../lib/gcc/arm-none-eabi/5.4.1/armv6-m\libgcc.a(_fixunssfsi.o) (__aeabi_f2iz)
c:/cypress/psoc creator/4.4/psoc creator/import/gnu/arm/5.4.1/bin/../lib/gcc/arm-none-eabi/5.4.1/armv6-m\libgcc.a(floatunsisf.o)
                              .\CortexM0p\ARM_GCC_541\Release\cy_sysclk.o (__aeabi_ui2f)
c:/cypress/psoc creator/4.4/psoc creator/import/gnu/arm/5.4.1/bin/../lib/gcc/arm-none-eabi/5.4.1/armv6-m\libgcc.a(divdf3.o)
                              .\CortexM0p\ARM_GCC_541\Release\cy_sysclk.o (__aeabi_ddiv)
c:/cypress/psoc creator/4.4/psoc creator/import/gnu/arm/5.4.1/bin/../lib/gcc/arm-none-eabi/5.4.1/armv6-m\libgcc.a(subdf3.o)
                              c:/cypress/psoc creator/4.4/psoc creator/import/gnu/arm/5.4.1/bin/../lib/gcc/arm-none-eabi/5.4.1/armv6-m\libgcc.a(_fixunsdfsi.o) (__aeabi_dsub)
c:/cypress/psoc creator/4.4/psoc creator/import/gnu/arm/5.4.1/bin/../lib/gcc/arm-none-eabi/5.4.1/armv6-m\libgcc.a(fixdfsi.o)
                              c:/cypress/psoc creator/4.4/psoc creator/import/gnu/arm/5.4.1/bin/../lib/gcc/arm-none-eabi/5.4.1/armv6-m\libgcc.a(_fixunsdfsi.o) (__aeabi_d2iz)
c:/cypress/psoc creator/4.4/psoc creator/import/gnu/arm/5.4.1/bin/../lib/gcc/arm-none-eabi/5.4.1/armv6-m\libgcc.a(extendsfdf2.o)
                              .\CortexM0p\ARM_GCC_541\Release\cy_sysclk.o (__aeabi_f2d)
c:/cypress/psoc creator/4.4/psoc creator/import/gnu/arm/5.4.1/bin/../lib/gcc/arm-none-eabi/5.4.1/armv6-m\libgcc.a(_arm_cmpdf2.o)
                              c:/cypress/psoc creator/4.4/psoc creator/import/gnu/arm/5.4.1/bin/../lib/gcc/arm-none-eabi/5.4.1/armv6-m\libgcc.a(_fixunsdfsi.o) (__aeabi_dcmpge)
c:/cypress/psoc creator/4.4/psoc creator/import/gnu/arm/5.4.1/bin/../lib/gcc/arm-none-eabi/5.4.1/armv6-m\libgcc.a(_clzsi2.o)
                              c:/cypress/psoc creator/4.4/psoc creator/import/gnu/arm/5.4.1/bin/../lib/gcc/arm-none-eabi/5.4.1/armv6-m\libgcc.a(addsf3.o) (__clzsi2)
c:/cypress/psoc creator/4.4/psoc creator/import/gnu/arm/5.4.1/bin/../lib/gcc/arm-none-eabi/5.4.1/armv6-m\libgcc.a(_clzdi2.o)
                              c:/cypress/psoc creator/4.4/psoc creator/import/gnu/arm/5.4.1/bin/../lib/gcc/arm-none-eabi/5.4.1/armv6-m\libgcc.a(_udivmoddi4.o) (__clzdi2)
c:/cypress/psoc creator/4.4/psoc creator/import/gnu/arm/5.4.1/bin/../lib/gcc/arm-none-eabi/5.4.1/armv6-m\libgcc.a(eqdf2.o)
                              c:/cypress/psoc creator/4.4/psoc creator/import/gnu/arm/5.4.1/bin/../lib/gcc/arm-none-eabi/5.4.1/armv6-m\libgcc.a(_arm_cmpdf2.o) (__eqdf2)
c:/cypress/psoc creator/4.4/psoc creator/import/gnu/arm/5.4.1/bin/../lib/gcc/arm-none-eabi/5.4.1/armv6-m\libgcc.a(gedf2.o)
                              c:/cypress/psoc creator/4.4/psoc creator/import/gnu/arm/5.4.1/bin/../lib/gcc/arm-none-eabi/5.4.1/armv6-m\libgcc.a(_arm_cmpdf2.o) (__gedf2)
c:/cypress/psoc creator/4.4/psoc creator/import/gnu/arm/5.4.1/bin/../lib/gcc/arm-none-eabi/5.4.1/armv6-m\libgcc.a(ledf2.o)
                              c:/cypress/psoc creator/4.4/psoc creator/import/gnu/arm/5.4.1/bin/../lib/gcc/arm-none-eabi/5.4.1/armv6-m\libgcc.a(_arm_cmpdf2.o) (__ledf2)
c:/cypress/psoc creator/4.4/psoc creator/import/gnu/arm/5.4.1/bin/../lib/gcc/arm-none-eabi/5.4.1/../../../../arm-none-eabi/lib/armv6-m\libg_nano.a(lib_a-exit.o)
                              c:/cypress/psoc creator/4.4/psoc creator/import/gnu/arm/5.4.1/bin/../lib/gcc/arm-none-eabi/5.4.1/../../../../arm-none-eabi/lib/armv6-m/crt0.o (exit)
c:/cypress/psoc creator/4.4/psoc creator/import/gnu/arm/5.4.1/bin/../lib/gcc/arm-none-eabi/5.4.1/../../../../arm-none-eabi/lib/armv6-m\libg_nano.a(lib_a-impure.o)
                              c:/cypress/psoc creator/4.4/psoc creator/import/gnu/arm/5.4.1/bin/../lib/gcc/arm-none-eabi/5.4.1/../../../../arm-none-eabi/lib/armv6-m\libg_nano.a(lib_a-exit.o) (_global_impure_ptr)
c:/cypress/psoc creator/4.4/psoc creator/import/gnu/arm/5.4.1/bin/../lib/gcc/arm-none-eabi/5.4.1/../../../../arm-none-eabi/lib/armv6-m\libg_nano.a(lib_a-init.o)
                              c:/cypress/psoc creator/4.4/psoc creator/import/gnu/arm/5.4.1/bin/../lib/gcc/arm-none-eabi/5.4.1/../../../../arm-none-eabi/lib/armv6-m/crt0.o (__libc_init_array)
c:/cypress/psoc creator/4.4/psoc creator/import/gnu/arm/5.4.1/bin/../lib/gcc/arm-none-eabi/5.4.1/../../../../arm-none-eabi/lib/armv6-m\libg_nano.a(lib_a-memcpy-stub.o)
                              .\CortexM0p\ARM_GCC_541\Release\cy_dfu.o (memcpy)
c:/cypress/psoc creator/4.4/psoc creator/import/gnu/arm/5.4.1/bin/../lib/gcc/arm-none-eabi/5.4.1/../../../../arm-none-eabi/lib/armv6-m\libg_nano.a(lib_a-memmove.o)
                              .\CortexM0p\ARM_GCC_541\Release\cy_dfu.o (memmove)
c:/cypress/psoc creator/4.4/psoc creator/import/gnu/arm/5.4.1/bin/../lib/gcc/arm-none-eabi/5.4.1/../../../../arm-none-eabi/lib/armv6-m\libg_nano.a(lib_a-memset.o)
                              c:/cypress/psoc creator/4.4/psoc creator/import/gnu/arm/5.4.1/bin/../lib/gcc/arm-none-eabi/5.4.1/../../../../arm-none-eabi/lib/armv6-m/crt0.o (memset)
c:/cypress/psoc creator/4.4/psoc creator/import/gnu/arm/5.4.1/bin/../lib/gcc/arm-none-eabi/5.4.1/../../../../arm-none-eabi/lib/armv6-m\libnosys.a(_exit.o)
                              c:/cypress/psoc creator/4.4/psoc creator/import/gnu/arm/5.4.1/bin/../lib/gcc/arm-none-eabi/5.4.1/../../../../arm-none-eabi/lib/armv6-m\libg_nano.a(lib_a-exit.o) (_exit)
c:/cypress/psoc creator/4.4/psoc creator/import/gnu/arm/5.4.1/bin/../lib/gcc/arm-none-eabi/5.4.1/../../../../arm-none-eabi/lib/armv6-m\libm.a(lib_a-s_floor.o)
                              .\CortexM0p\ARM_GCC_541\Release\cy_sysclk.o (floor)
c:/cypress/psoc creator/4.4/psoc creator/import/gnu/arm/5.4.1/bin/../lib/gcc/arm-none-eabi/5.4.1/../../../../arm-none-eabi/lib/armv6-m\libm.a(lib_a-sf_ceil.o)
                              .\CortexM0p\ARM_GCC_541\Release\cy_sysclk.o (ceilf)
c:/cypress/psoc creator/4.4/psoc creator/import/gnu/arm/5.4.1/bin/../lib/gcc/arm-none-eabi/5.4.1/../../../../arm-none-eabi/lib/armv6-m\libm.a(lib_a-w_log.o)
                              .\CortexM0p\ARM_GCC_541\Release\cy_sysclk.o (log)
c:/cypress/psoc creator/4.4/psoc creator/import/gnu/arm/5.4.1/bin/../lib/gcc/arm-none-eabi/5.4.1/../../../../arm-none-eabi/lib/armv6-m\libm.a(lib_a-e_log.o)
                              c:/cypress/psoc creator/4.4/psoc creator/import/gnu/arm/5.4.1/bin/../lib/gcc/arm-none-eabi/5.4.1/../../../../arm-none-eabi/lib/armv6-m\libm.a(lib_a-w_log.o) (__ieee754_log)
c:/cypress/psoc creator/4.4/psoc creator/import/gnu/arm/5.4.1/bin/../lib/gcc/arm-none-eabi/5.4.1/../../../../arm-none-eabi/lib/armv6-m\libm.a(lib_a-s_lib_ver.o)
                              c:/cypress/psoc creator/4.4/psoc creator/import/gnu/arm/5.4.1/bin/../lib/gcc/arm-none-eabi/5.4.1/../../../../arm-none-eabi/lib/armv6-m\libm.a(lib_a-w_log.o) (__fdlib_version)
c:/cypress/psoc creator/4.4/psoc creator/import/gnu/arm/5.4.1/bin/../lib/gcc/arm-none-eabi/5.4.1/../../../../arm-none-eabi/lib/armv6-m\libm.a(lib_a-s_matherr.o)
                              c:/cypress/psoc creator/4.4/psoc creator/import/gnu/arm/5.4.1/bin/../lib/gcc/arm-none-eabi/5.4.1/../../../../arm-none-eabi/lib/armv6-m\libm.a(lib_a-w_log.o) (matherr)
c:/cypress/psoc creator/4.4/psoc creator/import/gnu/arm/5.4.1/bin/../lib/gcc/arm-none-eabi/5.4.1/../../../../arm-none-eabi/lib/armv6-m\libm.a(lib_a-s_nan.o)
                              c:/cypress/psoc creator/4.4/psoc creator/import/gnu/arm/5.4.1/bin/../lib/gcc/arm-none-eabi/5.4.1/../../../../arm-none-eabi/lib/armv6-m\libm.a(lib_a-w_log.o) (nan)
c:/cypress/psoc creator/4.4/psoc creator/import/gnu/arm/5.4.1/bin/../lib/gcc/arm-none-eabi/5.4.1/armv6-m\libgcc.a(adddf3.o)
                              c:/cypress/psoc creator/4.4/psoc creator/import/gnu/arm/5.4.1/bin/../lib/gcc/arm-none-eabi/5.4.1/../../../../arm-none-eabi/lib/armv6-m\libm.a(lib_a-s_floor.o) (__aeabi_dadd)
c:/cypress/psoc creator/4.4/psoc creator/import/gnu/arm/5.4.1/bin/../lib/gcc/arm-none-eabi/5.4.1/armv6-m\libgcc.a(muldf3.o)
                              c:/cypress/psoc creator/4.4/psoc creator/import/gnu/arm/5.4.1/bin/../lib/gcc/arm-none-eabi/5.4.1/../../../../arm-none-eabi/lib/armv6-m\libm.a(lib_a-e_log.o) (__aeabi_dmul)
c:/cypress/psoc creator/4.4/psoc creator/import/gnu/arm/5.4.1/bin/../lib/gcc/arm-none-eabi/5.4.1/armv6-m\libgcc.a(unorddf2.o)
                              c:/cypress/psoc creator/4.4/psoc creator/import/gnu/arm/5.4.1/bin/../lib/gcc/arm-none-eabi/5.4.1/../../../../arm-none-eabi/lib/armv6-m\libm.a(lib_a-w_log.o) (__aeabi_dcmpun)
c:/cypress/psoc creator/4.4/psoc creator/import/gnu/arm/5.4.1/bin/../lib/gcc/arm-none-eabi/5.4.1/armv6-m\libgcc.a(floatsidf.o)
                              c:/cypress/psoc creator/4.4/psoc creator/import/gnu/arm/5.4.1/bin/../lib/gcc/arm-none-eabi/5.4.1/../../../../arm-none-eabi/lib/armv6-m\libm.a(lib_a-e_log.o) (__aeabi_i2d)
c:/cypress/psoc creator/4.4/psoc creator/import/gnu/arm/5.4.1/bin/../lib/gcc/arm-none-eabi/5.4.1/../../../../arm-none-eabi/lib/armv6-m\libc.a(lib_a-errno.o)
                              c:/cypress/psoc creator/4.4/psoc creator/import/gnu/arm/5.4.1/bin/../lib/gcc/arm-none-eabi/5.4.1/../../../../arm-none-eabi/lib/armv6-m\libm.a(lib_a-w_log.o) (__errno)

Allocating common symbols
Common symbol       size              file

masterStatus        0x4               .\CortexM0p\ARM_GCC_541\Release\fram.o
buffertest          0x32              .\CortexM0p\ARM_GCC_541\Release\fram.o
rxBuffer            0xa               .\CortexM0p\ARM_GCC_541\Release\fram.o
timeout             0x2               .\CortexM0p\ARM_GCC_541\Release\fram.o
txBuffer            0xa               .\CortexM0p\ARM_GCC_541\Release\fram.o
spi_status          0x4               .\CortexM0p\ARM_GCC_541\Release\fram.o
spifr_context       0x20              .\CortexM0p\ARM_GCC_541\Release\spifr.o
RTC_1_dstConfig     0x30              .\CortexM0p\ARM_GCC_541\Release\RTC_1.o
framSR              0x4               .\CortexM0p\ARM_GCC_541\Release\fram.o
cy_device           0x4               .\CortexM0p\ARM_GCC_541\Release\cy_device.o

Discarded input sections

 .text          0x00000000        0x0 c:/cypress/psoc creator/4.4/psoc creator/import/gnu/arm/5.4.1/bin/../lib/gcc/arm-none-eabi/5.4.1/armv6-m/crti.o
 .data          0x00000000        0x0 c:/cypress/psoc creator/4.4/psoc creator/import/gnu/arm/5.4.1/bin/../lib/gcc/arm-none-eabi/5.4.1/armv6-m/crti.o
 .bss           0x00000000        0x0 c:/cypress/psoc creator/4.4/psoc creator/import/gnu/arm/5.4.1/bin/../lib/gcc/arm-none-eabi/5.4.1/armv6-m/crti.o
 .data          0x00000000        0x4 c:/cypress/psoc creator/4.4/psoc creator/import/gnu/arm/5.4.1/bin/../lib/gcc/arm-none-eabi/5.4.1/armv6-m/crtbegin.o
 .text          0x00000000       0x78 c:/cypress/psoc creator/4.4/psoc creator/import/gnu/arm/5.4.1/bin/../lib/gcc/arm-none-eabi/5.4.1/../../../../arm-none-eabi/lib/armv6-m/crt0.o
 .data          0x00000000        0x0 c:/cypress/psoc creator/4.4/psoc creator/import/gnu/arm/5.4.1/bin/../lib/gcc/arm-none-eabi/5.4.1/../../../../arm-none-eabi/lib/armv6-m/crt0.o
 .bss           0x00000000        0x0 c:/cypress/psoc creator/4.4/psoc creator/import/gnu/arm/5.4.1/bin/../lib/gcc/arm-none-eabi/5.4.1/../../../../arm-none-eabi/lib/armv6-m/crt0.o
 .ARM.extab     0x00000000        0x0 c:/cypress/psoc creator/4.4/psoc creator/import/gnu/arm/5.4.1/bin/../lib/gcc/arm-none-eabi/5.4.1/../../../../arm-none-eabi/lib/armv6-m/crt0.o
 .ARM.exidx     0x00000000        0x8 c:/cypress/psoc creator/4.4/psoc creator/import/gnu/arm/5.4.1/bin/../lib/gcc/arm-none-eabi/5.4.1/../../../../arm-none-eabi/lib/armv6-m/crt0.o
 .ARM.attributes
                0x00000000       0x1b c:/cypress/psoc creator/4.4/psoc creator/import/gnu/arm/5.4.1/bin/../lib/gcc/arm-none-eabi/5.4.1/../../../../arm-none-eabi/lib/armv6-m/crt0.o
 .data          0x00000000        0x0 .\CortexM0p\ARM_GCC_541\Release\startup_psoc6_01_cm0plus.o
 .bss           0x00000000        0x0 .\CortexM0p\ARM_GCC_541\Release\startup_psoc6_01_cm0plus.o
 .text          0x00000000        0x0 .\CortexM0p\ARM_GCC_541\Release\main_cm0p.o
 .data          0x00000000        0x0 .\CortexM0p\ARM_GCC_541\Release\main_cm0p.o
 .bss           0x00000000        0x0 .\CortexM0p\ARM_GCC_541\Release\main_cm0p.o
 .text          0x00000000        0x0 .\CortexM0p\ARM_GCC_541\Release\system_psoc6_cm0plus.o
 .text.Cy_SystemInit
Memory Configuration

Name             Origin             Length             Attributes
flash_app0_core0 0x10000000         0x00010000         xr
flash_app0_core1 0x10010000         0x00030000         xr
flash_app1_core0 0x10040000         0x00030000         xr
flash_app1_core1 0x10070000         0x00010000         xr
flash_storage    0x100c0000         0x00001000         rw
flash_boot_meta  0x100ffa00         0x00000400         rw
sflash_user_data 0x16000800         0x00000800         xr
sflash_nar       0x16001a00         0x00000200         xr
sflash_public_key 0x16005a00         0x00000c00         xr
sflash_toc_2     0x16007c00         0x00000400         xr
efuse            0x90700000         0x00100000         r
ram_common       0x08000000         0x00000100         xrw
ram_app0_core0   0x08000100         0x00007f00         xrw
ram_app0_core1   0x08008000         0x00008000         xrw
ram_app1_core0   0x08000100         0x00007f00         xrw
ram_app1_core1   0x08008000         0x00008000         xrw
em_eeprom        0x14000000         0x00008000         xr
xip              0x18000000         0x08000000         xr
*default*        0x00000000         0xffffffff

Linker script and memory map

LOAD c:/cypress/psoc creator/4.4/psoc creator/import/gnu/arm/5.4.1/bin/../lib/gcc/arm-none-eabi/5.4.1/armv6-m/crti.o
LOAD c:/cypress/psoc creator/4.4/psoc creator/import/gnu/arm/5.4.1/bin/../lib/gcc/arm-none-eabi/5.4.1/armv6-m/crtbegin.o
LOAD c:/cypress/psoc creator/4.4/psoc creator/import/gnu/arm/5.4.1/bin/../lib/gcc/arm-none-eabi/5.4.1/../../../../arm-none-eabi/lib/armv6-m/crt0.o
START GROUP
LOAD .\CortexM0p\ARM_GCC_541\Release\startup_psoc6_01_cm0plus.o
LOAD .\CortexM0p\ARM_GCC_541\Release\main_cm0p.o
LOAD .\CortexM0p\ARM_GCC_541\Release\system_psoc6_cm0plus.o
LOAD .\CortexM0p\ARM_GCC_541\Release\fram.o
LOAD .\CortexM0p\ARM_GCC_541\Release\cyfitter_sysint_cfg.o
LOAD .\CortexM0p\ARM_GCC_541\Release\cyfitter_cfg.o
LOAD .\CortexM0p\ARM_GCC_541\Release\cymetadata.o
LOAD .\CortexM0p\ARM_GCC_541\Release\BLE.o
LOAD .\CortexM0p\ARM_GCC_541\Release\BLE_config.o
LOAD .\CortexM0p\ARM_GCC_541\Release\BLE_bts_config.o
LOAD .\CortexM0p\ARM_GCC_541\Release\BLE_ias_config.o
LOAD .\CortexM0p\ARM_GCC_541\Release\cy_efuse.o
LOAD .\CortexM0p\ARM_GCC_541\Release\cy_flash.o
LOAD .\CortexM0p\ARM_GCC_541\Release\cy_gpio.o
LOAD .\CortexM0p\ARM_GCC_541\Release\cy_ipc_drv.o
LOAD .\CortexM0p\ARM_GCC_541\Release\cy_ipc_sema.o
LOAD .\CortexM0p\ARM_GCC_541\Release\cy_ipc_pipe.o
LOAD .\CortexM0p\ARM_GCC_541\Release\cy_lvd.o
LOAD .\CortexM0p\ARM_GCC_541\Release\cy_profile.o
LOAD .\CortexM0p\ARM_GCC_541\Release\cy_prot.o
LOAD .\CortexM0p\ARM_GCC_541\Release\cy_scb_common.o
LOAD .\CortexM0p\ARM_GCC_541\Release\cy_scb_i2c.o
LOAD .\CortexM0p\ARM_GCC_541\Release\cy_scb_ezi2c.o
LOAD .\CortexM0p\ARM_GCC_541\Release\cy_scb_spi.o
LOAD .\CortexM0p\ARM_GCC_541\Release\cy_scb_uart.o
LOAD .\CortexM0p\ARM_GCC_541\Release\cy_sysanalog.o
LOAD .\CortexM0p\ARM_GCC_541\Release\cy_sysclk.o
LOAD .\CortexM0p\ARM_GCC_541\Release\cy_sysint.o
LOAD .\CortexM0p\ARM_GCC_541\Release\cy_syslib.o
LOAD .\CortexM0p\ARM_GCC_541\Release\cy_syslib_gcc.o
LOAD .\CortexM0p\ARM_GCC_541\Release\cy_syspm.o
LOAD .\CortexM0p\ARM_GCC_541\Release\cy_systick.o
LOAD .\CortexM0p\ARM_GCC_541\Release\cy_trigmux.o
LOAD .\CortexM0p\ARM_GCC_541\Release\cy_wdt.o
LOAD .\CortexM0p\ARM_GCC_541\Release\cy_device.o
LOAD .\CortexM0p\ARM_GCC_541\Release\cy_rtc.o
LOAD .\CortexM0p\ARM_GCC_541\Release\cy_ble.o
LOAD .\CortexM0p\ARM_GCC_541\Release\cy_ble_hal_int.o
LOAD .\CortexM0p\ARM_GCC_541\Release\cy_ble_hal_pvt.o
LOAD .\CortexM0p\ARM_GCC_541\Release\cy_ble_gap.o
LOAD .\CortexM0p\ARM_GCC_541\Release\cy_ble_gatt.o
LOAD .\CortexM0p\ARM_GCC_541\Release\cy_ble_event_handler.o
LOAD .\CortexM0p\ARM_GCC_541\Release\cy_ble_ancs.o
LOAD .\CortexM0p\ARM_GCC_541\Release\cy_ble_ans.o
LOAD .\CortexM0p\ARM_GCC_541\Release\cy_ble_aios.o
LOAD .\CortexM0p\ARM_GCC_541\Release\cy_ble_bas.o
LOAD .\CortexM0p\ARM_GCC_541\Release\cy_ble_bcs.o
LOAD .\CortexM0p\ARM_GCC_541\Release\cy_ble_bls.o
LOAD .\CortexM0p\ARM_GCC_541\Release\cy_ble_bms.o
LOAD .\CortexM0p\ARM_GCC_541\Release\cy_ble_bts.o
LOAD .\CortexM0p\ARM_GCC_541\Release\cy_ble_cgms.o
LOAD .\CortexM0p\ARM_GCC_541\Release\cy_ble_cps.o
LOAD .\CortexM0p\ARM_GCC_541\Release\cy_ble_cscs.o
LOAD .\CortexM0p\ARM_GCC_541\Release\cy_ble_cts.o
LOAD .\CortexM0p\ARM_GCC_541\Release\cy_ble_custom.o
LOAD .\CortexM0p\ARM_GCC_541\Release\cy_ble_dis.o
LOAD .\CortexM0p\ARM_GCC_541\Release\cy_ble_ess.o
LOAD .\CortexM0p\ARM_GCC_541\Release\cy_ble_gls.o
LOAD .\CortexM0p\ARM_GCC_541\Release\cy_ble_hids.o
LOAD .\CortexM0p\ARM_GCC_541\Release\cy_ble_hps.o
LOAD .\CortexM0p\ARM_GCC_541\Release\cy_ble_hrs.o
LOAD .\CortexM0p\ARM_GCC_541\Release\cy_ble_hts.o
LOAD .\CortexM0p\ARM_GCC_541\Release\cy_ble_ias.o
LOAD .\CortexM0p\ARM_GCC_541\Release\cy_ble_ips.o
LOAD .\CortexM0p\ARM_GCC_541\Release\cy_ble_lls.o
LOAD .\CortexM0p\ARM_GCC_541\Release\cy_ble_lns.o
LOAD .\CortexM0p\ARM_GCC_541\Release\cy_ble_ndcs.o
LOAD .\CortexM0p\ARM_GCC_541\Release\cy_ble_plxs.o
LOAD .\CortexM0p\ARM_GCC_541\Release\cy_ble_pass.o
LOAD .\CortexM0p\ARM_GCC_541\Release\cy_ble_rscs.o
LOAD .\CortexM0p\ARM_GCC_541\Release\cy_ble_rtus.o
LOAD .\CortexM0p\ARM_GCC_541\Release\cy_ble_scps.o
LOAD .\CortexM0p\ARM_GCC_541\Release\cy_ble_tps.o
LOAD .\CortexM0p\ARM_GCC_541\Release\cy_ble_uds.o
LOAD .\CortexM0p\ARM_GCC_541\Release\cy_ble_wpts.o
LOAD .\CortexM0p\ARM_GCC_541\Release\cy_ble_wss.o
LOAD .\CortexM0p\ARM_GCC_541\Release\cy_ble_clk.o
LOAD .\CortexM0p\ARM_GCC_541\Release\cy_dfu.o
LOAD .\CortexM0p\ARM_GCC_541\Release\spifr.o
LOAD .\CortexM0p\ARM_GCC_541\Release\RTC_1.o
END GROUP
START GROUP
LOAD c:/cypress/psoc creator/4.4/psoc creator/import/gnu/arm/5.4.1/bin/../lib/gcc/arm-none-eabi/5.4.1/armv6-m\libgcc.a
LOAD c:/cypress/psoc creator/4.4/psoc creator/import/gnu/arm/5.4.1/bin/../lib/gcc/arm-none-eabi/5.4.1/../../../../arm-none-eabi/lib/armv6-m\libg_nano.a
LOAD c:/cypress/psoc creator/4.4/psoc creator/import/gnu/arm/5.4.1/bin/../lib/gcc/arm-none-eabi/5.4.1/../../../../arm-none-eabi/lib/armv6-m\libc_nano.a
END GROUP
START GROUP
LOAD c:/cypress/psoc creator/4.4/psoc creator/import/gnu/arm/5.4.1/bin/../lib/gcc/arm-none-eabi/5.4.1/armv6-m\libgcc.a
LOAD c:/cypress/psoc creator/4.4/psoc creator/import/gnu/arm/5.4.1/bin/../lib/gcc/arm-none-eabi/5.4.1/../../../../arm-none-eabi/lib/armv6-m\libc_nano.a
END GROUP
LOAD c:/cypress/psoc creator/4.4/psoc creator/import/gnu/arm/5.4.1/bin/../lib/gcc/arm-none-eabi/5.4.1/armv6-m/crtend.o
LOAD c:/cypress/psoc creator/4.4/psoc creator/import/gnu/arm/5.4.1/bin/../lib/gcc/arm-none-eabi/5.4.1/armv6-m/crtn.o
START GROUP
LOAD c:/cypress/psoc creator/4.4/psoc creator/import/gnu/arm/5.4.1/bin/../lib/gcc/arm-none-eabi/5.4.1/armv6-m\libgcc.a
LOAD c:/cypress/psoc creator/4.4/psoc creator/import/gnu/arm/5.4.1/bin/../lib/gcc/arm-none-eabi/5.4.1/../../../../arm-none-eabi/lib/armv6-m\libc.a
LOAD c:/cypress/psoc creator/4.4/psoc creator/import/gnu/arm/5.4.1/bin/../lib/gcc/arm-none-eabi/5.4.1/../../../../arm-none-eabi/lib/armv6-m\libnosys.a
END GROUP
                0x10000000                __cy_memory_0_start = 0x10000000
                0x00100000                __cy_memory_0_length = 0x100000
                0x00000200                __cy_memory_0_row_size = 0x200
                0x14000000                __cy_memory_1_start = 0x14000000
                0x00008000                __cy_memory_1_length = 0x8000
                0x00000200                __cy_memory_1_row_size = 0x200
                0x16000000                __cy_memory_2_start = 0x16000000
                0x00008000                __cy_memory_2_length = 0x8000
                0x00000200                __cy_memory_2_row_size = 0x200
                0x18000000                __cy_memory_3_start = 0x18000000
                0x08000000                __cy_memory_3_length = 0x8000000
                0x00000200                __cy_memory_3_row_size = 0x200
                0x90700000                __cy_memory_4_start = 0x90700000
                0x00100000                __cy_memory_4_length = 0x100000
                0x00000001                __cy_memory_4_row_size = 0x1
                0x100ffa00                __cy_boot_metadata_addr = ORIGIN (flash_boot_meta)
                0x00000200                __cy_boot_metadata_length = __cy_memory_0_row_size
                0x01020304                __cy_product_id = 0x1020304
                0x00000000                __cy_checksum_type = 0x0
                0x10000000                __cy_app0_verify_start = ORIGIN (flash_app0_core0)
                0x0003fffc                __cy_app0_verify_length = ((LENGTH (flash_app0_core0) + LENGTH (flash_app0_core1)) - __cy_boot_signature_size)
                0x10040000                __cy_app1_verify_start = ORIGIN (flash_app1_core0)
                0x0003fffc                __cy_app1_verify_length = ((LENGTH (flash_app1_core0) + LENGTH (flash_app1_core1)) - __cy_boot_signature_size)
                0x00000004                __cy_boot_signature_size = 0x4
                0x00000000                __cy_app_id = 0x0
                0x10010000                __cy_app_core1_start_addr = ORIGIN (flash_core1)
                0x10000000                __cy_app_verify_start = ORIGIN (flash)
                0x0003fffc                __cy_app_verify_length = ((LENGTH (flash) + LENGTH (flash_core1)) - __cy_boot_signature_size)
START GROUP
LOAD c:/cypress/psoc creator/4.4/psoc creator/import/gnu/arm/5.4.1/bin/../lib/gcc/arm-none-eabi/5.4.1/armv6-m\libgcc.a
LOAD c:/cypress/psoc creator/4.4/psoc creator/import/gnu/arm/5.4.1/bin/../lib/gcc/arm-none-eabi/5.4.1/../../../../arm-none-eabi/lib/armv6-m\libc.a
LOAD c:/cypress/psoc creator/4.4/psoc creator/import/gnu/arm/5.4.1/bin/../lib/gcc/arm-none-eabi/5.4.1/../../../../arm-none-eabi/lib/armv6-m\libm.a
LOAD c:/cypress/psoc creator/4.4/psoc creator/import/gnu/arm/5.4.1/bin/../lib/gcc/arm-none-eabi/5.4.1/../../../../arm-none-eabi/lib/armv6-m\libnosys.a
END GROUP

.cy_boot_noinit
 *(.cy_boot_noinit)

.cy_boot_noinit.appId
                0x080000ff        0x1
 *(.cy_boot_noinit.appId)
 .cy_boot_noinit.appId
                0x080000ff        0x1 .\CortexM0p\ARM_GCC_541\Release\cy_dfu.o

.cy_boot_metadata
 *(.cy_boot_metadata)

.cy_app_header
 *(.cy_app_header)

.text           0x10000000     0x1d68
                0x10000000                . = ALIGN (0x4)
                0x10000000                __Vectors = .
 *(.vectors)
 .vectors       0x10000000       0xc0 .\CortexM0p\ARM_GCC_541\Release\startup_psoc6_01_cm0plus.o
                0x100000c0                . = ALIGN (0x4)
                0x100000c0                __Vectors_End = .
                0x000000c0                __Vectors_Size = (__Vectors_End - __Vectors)
                0x100000c0                __end__ = .
                0x100000c0                . = ALIGN (0x4)
 *(.text*)
 .text          0x100000c0       0x60 c:/cypress/psoc creator/4.4/psoc creator/import/gnu/arm/5.4.1/bin/../lib/gcc/arm-none-eabi/5.4.1/armv6-m/crtbegin.o
 .text          0x10000120       0x80 .\CortexM0p\ARM_GCC_541\Release\startup_psoc6_01_cm0plus.o
                0x10000122                Reset_Handler
                0x10000180                NvicMux21_IRQHandler
                0x10000180                NvicMux10_IRQHandler
                0x10000180                NvicMux26_IRQHandler
                0x10000180                SysTick_Handler
                0x10000180                PendSV_Handler
                0x10000180                NMI_Handler
                0x10000180                NvicMux19_IRQHandler
                0x10000180                NvicMux8_IRQHandler
                0x10000180                NvicMux27_IRQHandler
                0x10000180                NvicMux17_IRQHandler
                0x10000180                NvicMux0_IRQHandler
                0x10000180                NvicMux25_IRQHandler
                0x10000180                NvicMux13_IRQHandler
                0x10000180                NvicMux11_IRQHandler
                0x10000180                NvicMux9_IRQHandler
                0x10000180                NvicMux18_IRQHandler
                0x10000180                NvicMux6_IRQHandler
                0x10000180                NvicMux22_IRQHandler
                0x10000180                NvicMux7_IRQHandler
                0x10000180                NvicMux2_IRQHandler
                0x10000180                NvicMux4_IRQHandler
                0x10000180                Default_Handler
                0x10000180                NvicMux30_IRQHandler
                0x10000180                NvicMux12_IRQHandler
                0x10000180                NvicMux5_IRQHandler
                0x10000180                NvicMux14_IRQHandler
                0x10000180                NvicMux3_IRQHandler
                0x10000180                SVC_Handler
                0x10000180                NvicMux1_IRQHandler
                0x10000180                NvicMux16_IRQHandler
                0x10000180                NvicMux29_IRQHandler
                0x10000180                NvicMux31_IRQHandler
                0x10000180                NvicMux24_IRQHandler
                0x10000180                NvicMux20_IRQHandler
                0x10000180                NvicMux15_IRQHandler
                0x10000180                NvicMux28_IRQHandler
                0x10000180                NvicMux23_IRQHandler
                0x10000184                HardFault_Handler
 .text.startup.main
                0x100001a0       0x30 .\CortexM0p\ARM_GCC_541\Release\main_cm0p.o
                0x100001a0                main
 .text.Cy_OnResetUser
                0x100001d0        0x8 .\CortexM0p\ARM_GCC_541\Release\main_cm0p.o
                0x100001d0                Cy_OnResetUser
 .text.Cy_SysIpcPipeIsrCm0
                0x100001d8        0xa .\CortexM0p\ARM_GCC_541\Release\system_psoc6_cm0plus.o
                0x100001d8                Cy_SysIpcPipeIsrCm0
 *fill*         0x100001e2        0x2 
 .text.SystemCoreClockUpdate
                0x100001e4      0x16c .\CortexM0p\ARM_GCC_541\Release\system_psoc6_cm0plus.o
                0x100001e4                SystemCoreClockUpdate
 .text.SystemInit
                0x10000350       0xbc .\CortexM0p\ARM_GCC_541\Release\system_psoc6_cm0plus.o
                0x10000350                SystemInit
 .text.Cy_SysGetCM4Status
                0x1000040c       0x10 .\CortexM0p\ARM_GCC_541\Release\system_psoc6_cm0plus.o
                0x1000040c                Cy_SysGetCM4Status
 .text.Cy_SysResetCM4
                0x1000041c       0x34 .\CortexM0p\ARM_GCC_541\Release\system_psoc6_cm0plus.o
                0x1000041c                Cy_SysResetCM4
 .text.Cy_SysEnableCM4
                0x10000450       0x54 .\CortexM0p\ARM_GCC_541\Release\system_psoc6_cm0plus.o
                0x10000450                Cy_SysEnableCM4
 .text.Cy_SystemInit
                0x100004a4      0x314 .\CortexM0p\ARM_GCC_541\Release\cyfitter_cfg.o
                0x100004a4                Cy_SystemInit
 .text.Cy_IPC_Drv_GetIpcBaseAddress
                0x100007b8       0x18 .\CortexM0p\ARM_GCC_541\Release\cy_flash.o
 .text.Cy_IPC_Drv_IsLockAcquired
                0x100007d0       0x14 .\CortexM0p\ARM_GCC_541\Release\cy_flash.o
 .text.Cy_Flash_ProcessOpcode
                0x100007e4       0xb0 .\CortexM0p\ARM_GCC_541\Release\cy_flash.o
 .text.Cy_Flash_OperationStatus
                0x10000894       0x3c .\CortexM0p\ARM_GCC_541\Release\cy_flash.o
 .text.Cy_Flash_InitExt
                0x100008d0       0x44 .\CortexM0p\ARM_GCC_541\Release\cy_flash.o
                0x100008d0                Cy_Flash_InitExt
 .text.Cy_Flash_Init
                0x10000914       0x10 .\CortexM0p\ARM_GCC_541\Release\cy_flash.o
                0x10000914                Cy_Flash_Init
 .text.Cy_GPIO_SetHSIOM
                0x10000924       0x48 .\CortexM0p\ARM_GCC_541\Release\cy_gpio.o
 .text.Cy_GPIO_Pin_Init
                0x1000096c      0x140 .\CortexM0p\ARM_GCC_541\Release\cy_gpio.o
                0x1000096c                Cy_GPIO_Pin_Init
 .text.Cy_GPIO_Port_Init
                0x10000aac       0x74 .\CortexM0p\ARM_GCC_541\Release\cy_gpio.o
                0x10000aac                Cy_GPIO_Port_Init
 .text.Cy_IPC_Drv_LockRelease
                0x10000b20       0x24 .\CortexM0p\ARM_GCC_541\Release\cy_ipc_drv.o
                0x10000b20                Cy_IPC_Drv_LockRelease
 .text.Cy_IPC_Drv_SendMsgWord
                0x10000b44       0x18 .\CortexM0p\ARM_GCC_541\Release\cy_ipc_drv.o
                0x10000b44                Cy_IPC_Drv_SendMsgWord
 .text.Cy_IPC_Drv_ReadMsgWord
                0x10000b5c       0x24 .\CortexM0p\ARM_GCC_541\Release\cy_ipc_drv.o
                0x10000b5c                Cy_IPC_Drv_ReadMsgWord
 .text.Cy_IPC_Sema_InitExt
                0x10000b80       0x74 .\CortexM0p\ARM_GCC_541\Release\cy_ipc_sema.o
                0x10000b80                Cy_IPC_Sema_InitExt
 .text.Cy_IPC_Sema_Init
                0x10000bf4       0x44 .\CortexM0p\ARM_GCC_541\Release\cy_ipc_sema.o
                0x10000bf4                Cy_IPC_Sema_Init
 .text.Cy_IPC_Sema_Clear
                0x10000c38       0x78 .\CortexM0p\ARM_GCC_541\Release\cy_ipc_sema.o
                0x10000c38                Cy_IPC_Sema_Clear
 .text.Cy_IPC_Sema_Status
                0x10000cb0       0x38 .\CortexM0p\ARM_GCC_541\Release\cy_ipc_sema.o
                0x10000cb0                Cy_IPC_Sema_Status
 .text.Cy_IPC_Pipe_Config
                0x10000ce8       0x10 .\CortexM0p\ARM_GCC_541\Release\cy_ipc_pipe.o
                0x10000ce8                Cy_IPC_Pipe_Config
 .text.Cy_IPC_Pipe_EndpointInit
                0x10000cf8       0x68 .\CortexM0p\ARM_GCC_541\Release\cy_ipc_pipe.o
                0x10000cf8                Cy_IPC_Pipe_EndpointInit
 .text.Cy_IPC_Pipe_Init
                0x10000d60       0x64 .\CortexM0p\ARM_GCC_541\Release\cy_ipc_pipe.o
                0x10000d60                Cy_IPC_Pipe_Init
 .text.Cy_IPC_Pipe_SendMessage
                0x10000dc4       0x5c .\CortexM0p\ARM_GCC_541\Release\cy_ipc_pipe.o
                0x10000dc4                Cy_IPC_Pipe_SendMessage
 .text.Cy_IPC_Pipe_RegisterCallback
                0x10000e20       0x28 .\CortexM0p\ARM_GCC_541\Release\cy_ipc_pipe.o
                0x10000e20                Cy_IPC_Pipe_RegisterCallback
 .text.Cy_IPC_Pipe_ExecCallback
                0x10000e48       0x84 .\CortexM0p\ARM_GCC_541\Release\cy_ipc_pipe.o
                0x10000e48                Cy_IPC_Pipe_ExecCallback
 .text.Cy_IPC_Pipe_ExecuteCallback
                0x10000ecc       0x18 .\CortexM0p\ARM_GCC_541\Release\cy_ipc_pipe.o
                0x10000ecc                Cy_IPC_Pipe_ExecuteCallback
 .text.Cy_Prot_GetActivePC
                0x10000ee4       0x18 .\CortexM0p\ARM_GCC_541\Release\cy_prot.o
                0x10000ee4                Cy_Prot_GetActivePC
 .text.Cy_SysClk_ClkPathSetSource
                0x10000efc       0x50 .\CortexM0p\ARM_GCC_541\Release\cy_sysclk.o
                0x10000efc                Cy_SysClk_ClkPathSetSource
 .text.Cy_SysClk_FllManualConfigure
                0x10000f4c       0xb8 .\CortexM0p\ARM_GCC_541\Release\cy_sysclk.o
                0x10000f4c                Cy_SysClk_FllManualConfigure
 .text.Cy_SysClk_FllEnable
                0x10001004       0xd8 .\CortexM0p\ARM_GCC_541\Release\cy_sysclk.o
                0x10001004                Cy_SysClk_FllEnable
 .text.Cy_SysInt_SetInterruptSource
                0x100010dc       0x54 .\CortexM0p\ARM_GCC_541\Release\cy_sysint.o
                0x100010dc                Cy_SysInt_SetInterruptSource
 .text.Cy_SysInt_SetVector
                0x10001130       0x28 .\CortexM0p\ARM_GCC_541\Release\cy_sysint.o
                0x10001130                Cy_SysInt_SetVector
 .text.Cy_SysInt_Init
                0x10001158       0xa4 .\CortexM0p\ARM_GCC_541\Release\cy_sysint.o
                0x10001158                Cy_SysInt_Init
 .text.Cy_SysLib_DelayUs
                0x100011fc       0x14 .\CortexM0p\ARM_GCC_541\Release\cy_syslib.o
                0x100011fc                Cy_SysLib_DelayUs
 .text.Cy_SysLib_GetResetReason
                0x10001210       0x1c .\CortexM0p\ARM_GCC_541\Release\cy_syslib.o
                0x10001210                Cy_SysLib_GetResetReason
 .text.Cy_SysLib_ProcessingFault
                0x1000122c        0x2 .\CortexM0p\ARM_GCC_541\Release\cy_syslib.o
                0x1000122c                Cy_SysLib_ProcessingFault
 *fill*         0x1000122e        0x2 
 .text.Cy_SysLib_FaultHandler
                0x10001230       0x30 .\CortexM0p\ARM_GCC_541\Release\cy_syslib.o
                0x10001230                Cy_SysLib_FaultHandler
 .text.Cy_SysLib_SetWaitStates
                0x10001260       0xbc .\CortexM0p\ARM_GCC_541\Release\cy_syslib.o
                0x10001260                Cy_SysLib_SetWaitStates
 *fill*         0x1000131c        0x4 
 .text          0x10001320       0x20 .\CortexM0p\ARM_GCC_541\Release\cy_syslib_gcc.o
                0x10001320                Cy_SysLib_DelayCycles
                0x10001332                Cy_SysLib_EnterCriticalSection
                0x1000133a                Cy_SysLib_ExitCriticalSection
 .text.Cy_SysLib_GetDeviceRevision
                0x10001340       0x12 .\CortexM0p\ARM_GCC_541\Release\cy_syspm.o
 .text.Cy_SysLib_GetDevice
                0x10001352       0x16 .\CortexM0p\ARM_GCC_541\Release\cy_syspm.o
 .text.SetReadMarginTrimUlp
                0x10001368       0x7c .\CortexM0p\ARM_GCC_541\Release\cy_syspm.o
 .text.SetReadMarginTrimLp
                0x100013e4       0x74 .\CortexM0p\ARM_GCC_541\Release\cy_syspm.o
 .text.SetWriteAssistTrimUlp
                0x10001458       0x58 .\CortexM0p\ARM_GCC_541\Release\cy_syspm.o
 .text.SetWriteAssistTrimLp
                0x100014b0       0x68 .\CortexM0p\ARM_GCC_541\Release\cy_syspm.o
 .text.IsVoltageChangePossible.part.4
                0x10001518       0x1c .\CortexM0p\ARM_GCC_541\Release\cy_syspm.o
 .text.Cy_SysPm_SetHibernateWakeupSource
                0x10001534       0x40 .\CortexM0p\ARM_GCC_541\Release\cy_syspm.o
                0x10001534                Cy_SysPm_SetHibernateWakeupSource
 .text.Cy_SysPm_ExecuteCallback
                0x10001574       0x8c .\CortexM0p\ARM_GCC_541\Release\cy_syspm.o
                0x10001574                Cy_SysPm_ExecuteCallback
 .text.Cy_SysPm_IoUnfreeze
                0x10001600       0x2c .\CortexM0p\ARM_GCC_541\Release\cy_syspm.o
                0x10001600                Cy_SysPm_IoUnfreeze
 .text.Cy_SysPm_WriteVoltageBitForFlash
                0x1000162c       0xc0 .\CortexM0p\ARM_GCC_541\Release\cy_syspm.o
                0x1000162c                Cy_SysPm_WriteVoltageBitForFlash
 .text.Cy_SysPm_LdoSetVoltage
                0x100016ec       0xc0 .\CortexM0p\ARM_GCC_541\Release\cy_syspm.o
                0x100016ec                Cy_SysPm_LdoSetVoltage
 .text.Cy_SysPm_SaveRegisters
                0x100017ac       0x58 .\CortexM0p\ARM_GCC_541\Release\cy_syspm.o
                0x100017ac                Cy_SysPm_SaveRegisters
 .text.Cy_SysPm_RestoreRegisters
                0x10001804       0x58 .\CortexM0p\ARM_GCC_541\Release\cy_syspm.o
                0x10001804                Cy_SysPm_RestoreRegisters
 .text.Cy_SysPm_CpuEnterDeepSleep
                0x1000185c       0xc8 .\CortexM0p\ARM_GCC_541\Release\cy_syspm.o
                0x1000185c                Cy_SysPm_CpuEnterDeepSleep
 .text.Cy_SysTick_SetClockSource
                0x10001924       0x3c .\CortexM0p\ARM_GCC_541\Release\cy_systick.o
                0x10001924                Cy_SysTick_SetClockSource
 .text.Cy_WDT_Unlock
                0x10001960       0x24 .\CortexM0p\ARM_GCC_541\Release\cy_wdt.o
                0x10001960                Cy_WDT_Unlock
 .text.Cy_PDL_Init
                0x10001984        0xc .\CortexM0p\ARM_GCC_541\Release\cy_device.o
                0x10001984                Cy_PDL_Init
 .text.Cy_DFU_GetAppMetadata
                0x10001990       0x20 .\CortexM0p\ARM_GCC_541\Release\cy_dfu.o
                0x10001990                Cy_DFU_GetAppMetadata
 .text.Cy_DFU_SwitchToApp
                0x100019b0       0x1c .\CortexM0p\ARM_GCC_541\Release\cy_dfu.o
                0x100019b0                Cy_DFU_SwitchToApp
 .text.Cy_DFU_OnResetApp0
                0x100019cc       0x24 .\CortexM0p\ARM_GCC_541\Release\cy_dfu.o
                0x100019cc                Cy_DFU_OnResetApp0
 .text          0x100019f0      0x114 c:/cypress/psoc creator/4.4/psoc creator/import/gnu/arm/5.4.1/bin/../lib/gcc/arm-none-eabi/5.4.1/armv6-m\libgcc.a(_udivsi3.o)
                0x100019f0                __aeabi_uidiv
                0x100019f0                __udivsi3
                0x10001afc                __aeabi_uidivmod
 .text          0x10001b04        0x4 c:/cypress/psoc creator/4.4/psoc creator/import/gnu/arm/5.4.1/bin/../lib/gcc/arm-none-eabi/5.4.1/armv6-m\libgcc.a(_dvmd_tls.o)
                0x10001b04                __aeabi_idiv0
                0x10001b04                __aeabi_ldiv0
 .text.memset   0x10001b08       0x10 c:/cypress/psoc creator/4.4/psoc creator/import/gnu/arm/5.4.1/bin/../lib/gcc/arm-none-eabi/5.4.1/../../../../arm-none-eabi/lib/armv6-m\libg_nano.a(lib_a-memset.o)
                0x10001b08                memset
 *(.init)
 .init          0x10001b18        0x4 c:/cypress/psoc creator/4.4/psoc creator/import/gnu/arm/5.4.1/bin/../lib/gcc/arm-none-eabi/5.4.1/armv6-m/crti.o
                0x10001b18                _init
 .init          0x10001b1c        0x8 c:/cypress/psoc creator/4.4/psoc creator/import/gnu/arm/5.4.1/bin/../lib/gcc/arm-none-eabi/5.4.1/armv6-m/crtn.o
 *(.fini)
 .fini          0x10001b24        0x4 c:/cypress/psoc creator/4.4/psoc creator/import/gnu/arm/5.4.1/bin/../lib/gcc/arm-none-eabi/5.4.1/armv6-m/crti.o
                0x10001b24                _fini
 .fini          0x10001b28        0x8 c:/cypress/psoc creator/4.4/psoc creator/import/gnu/arm/5.4.1/bin/../lib/gcc/arm-none-eabi/5.4.1/armv6-m/crtn.o
 .fini.__stub   0x10001b30       0x10 linker stubs
 *crtbegin.o(.ctors)
 *crtbegin?.o(.ctors)
 *(EXCLUDE_FILE(*crtend.o *crtend?.o) .ctors)
 *(SORT(.ctors.*))
 *(.ctors)
 *crtbegin.o(.dtors)
 *crtbegin?.o(.dtors)
 *(EXCLUDE_FILE(*crtend.o *crtend?.o) .dtors)
 *(SORT(.dtors.*))
 *(.dtors)
 *(.rodata .rodata.* .constdata .constdata.* .conststring .conststring.*)
 .rodata        0x10001b40       0x34 .\CortexM0p\ARM_GCC_541\Release\system_psoc6_cm0plus.o
 .rodata        0x10001b74       0x80 .\CortexM0p\ARM_GCC_541\Release\cyfitter_cfg.o
 .rodata        0x10001bf4      0x170 .\CortexM0p\ARM_GCC_541\Release\cy_device.o
                0x10001bf4                cy_deviceIpBlockCfgPSoC6_02
                0x10001cac                cy_deviceIpBlockCfgPSoC6_01
 *(.eh_frame*)
 .eh_frame      0x10001d64        0x0 c:/cypress/psoc creator/4.4/psoc creator/import/gnu/arm/5.4.1/bin/../lib/gcc/arm-none-eabi/5.4.1/armv6-m/crtbegin.o
 .eh_frame      0x10001d64        0x4 c:/cypress/psoc creator/4.4/psoc creator/import/gnu/arm/5.4.1/bin/../lib/gcc/arm-none-eabi/5.4.1/armv6-m/crtend.o

.glue_7         0x10001d68        0x0
 .glue_7        0x10001d68        0x0 linker stubs

.glue_7t        0x10001d68        0x0
 .glue_7t       0x10001d68        0x0 linker stubs

.vfp11_veneer   0x10001d68        0x0
 .vfp11_veneer  0x10001d68        0x0 linker stubs

.v4_bx          0x10001d68        0x0
 .v4_bx         0x10001d68        0x0 linker stubs

.iplt           0x10001d68        0x0
 .iplt          0x10001d68        0x0 c:/cypress/psoc creator/4.4/psoc creator/import/gnu/arm/5.4.1/bin/../lib/gcc/arm-none-eabi/5.4.1/armv6-m/crtbegin.o

.ARM.extab
 *(.ARM.extab* .gnu.linkonce.armextab.*)
                0x10001d68                __exidx_start = .

.ARM.exidx
 *(.ARM.exidx* .gnu.linkonce.armexidx.*)
                0x10001d68                __exidx_end = .

.copy.table     0x10001d68       0x18
                0x10001d68                . = ALIGN (0x4)
                0x10001d68                __copy_table_start__ = .
                0x10001d68        0x4 LONG 0x10000000 __Vectors
                0x10001d6c        0x4 LONG 0x8000100 __ram_vectors_start__
                0x10001d70        0x4 LONG 0xc0 (__Vectors_End - __Vectors)
                0x10001d74        0x4 LONG 0x10001d88 __etext
                0x10001d78        0x4 LONG 0x80001c0 __data_start__
                0x10001d7c        0x4 LONG 0x450 (__data_end__ - __data_start__)
                0x10001d80                __copy_table_end__ = .

.zero.table     0x10001d80        0x8
                0x10001d80                . = ALIGN (0x4)
                0x10001d80                __zero_table_start__ = .
                0x10001d80        0x4 LONG 0x8000630 __bss_start__
                0x10001d84        0x4 LONG 0x210 (__bss_end__ - __bss_start__)
                0x10001d88                __zero_table_end__ = .
                0x10001d88                __etext = .

.ramVectors     0x08000100       0xc0
                0x08000100                __ram_vectors_start__ = .
 *(.ram_vectors)
 .ram_vectors   0x08000100       0xc0 .\CortexM0p\ARM_GCC_541\Release\startup_psoc6_01_cm0plus.o
                0x08000100                __ramVectors
                0x080001c0                __ram_vectors_end__ = .

.data           0x080001c0      0x450 load address 0x10001d88
                0x080001c0                __data_start__ = .
 *(vtable)
 *(.data*)
 .data          0x080001c0       0x20 .\CortexM0p\ARM_GCC_541\Release\system_psoc6_cm0plus.o
                0x080001c0                cy_BleEcoClockFreqHz
                0x080001c4                cy_Hfclk0FreqHz
                0x080001c8                cy_PeriClkFreqHz
                0x080001cc                SystemCoreClock
                0x080001d0                cy_delayFreqHz
                0x080001d4                cy_delayFreqMhz
                0x080001d8                cy_delayFreqKhz
                0x080001dc                cy_delay32kMs
                0x080001e0                . = ALIGN (0x4)
                0x080001e0                PROVIDE (__preinit_array_start, .)
 *(.preinit_array)
                0x080001e0                PROVIDE (__preinit_array_end, .)
                0x080001e0                . = ALIGN (0x4)
                0x080001e0                PROVIDE (__init_array_start, .)
 *(SORT(.init_array.*))
 *(.init_array)
 .init_array    0x080001e0        0x4 c:/cypress/psoc creator/4.4/psoc creator/import/gnu/arm/5.4.1/bin/../lib/gcc/arm-none-eabi/5.4.1/armv6-m/crtbegin.o
                0x080001e4                PROVIDE (__init_array_end, .)
                0x080001e4                . = ALIGN (0x4)
                [!provide]                PROVIDE (__fini_array_start, .)
 *(SORT(.fini_array.*))
 *(.fini_array)
 .fini_array    0x080001e4        0x4 c:/cypress/psoc creator/4.4/psoc creator/import/gnu/arm/5.4.1/bin/../lib/gcc/arm-none-eabi/5.4.1/armv6-m/crtbegin.o
                [!provide]                PROVIDE (__fini_array_end, .)
 *(.jcr*)
 .jcr           0x080001e8        0x0 c:/cypress/psoc creator/4.4/psoc creator/import/gnu/arm/5.4.1/bin/../lib/gcc/arm-none-eabi/5.4.1/armv6-m/crtbegin.o
 .jcr           0x080001e8        0x4 c:/cypress/psoc creator/4.4/psoc creator/import/gnu/arm/5.4.1/bin/../lib/gcc/arm-none-eabi/5.4.1/armv6-m/crtend.o
                0x080001ec                . = ALIGN (0x4)
 *(.cy_ramfunc*)
 .cy_ramfunc    0x080001ec      0x1b0 .\CortexM0p\ARM_GCC_541\Release\cy_flash.o
 .cy_ramfunc    0x0800039c      0x1c4 .\CortexM0p\ARM_GCC_541\Release\cy_syspm.o
 .cy_ramfunc.__stub
                0x08000560       0xb0 linker stubs
                0x08000610                . = ALIGN (0x4)
                0x08000610                __data_end__ = .

.igot.plt       0x08000610        0x0 load address 0x100021d8
 .igot.plt      0x08000610        0x0 c:/cypress/psoc creator/4.4/psoc creator/import/gnu/arm/5.4.1/bin/../lib/gcc/arm-none-eabi/5.4.1/armv6-m/crtbegin.o

.noinit         0x08000610       0x20 load address 0x100021d8
 *(.noinit)
 .noinit        0x08000610       0x20 .\CortexM0p\ARM_GCC_541\Release\cy_syslib.o
                0x08000610                cy_faultFrame

.bss            0x08000630      0x210 load address 0x100021f8
                0x08000630                . = ALIGN (0x4)
                0x08000630                __bss_start__ = .
 *(.bss*)
 .bss           0x08000630       0x1c c:/cypress/psoc creator/4.4/psoc creator/import/gnu/arm/5.4.1/bin/../lib/gcc/arm-none-eabi/5.4.1/armv6-m/crtbegin.o
 .bss           0x0800064c      0x190 .\CortexM0p\ARM_GCC_541\Release\system_psoc6_cm0plus.o
 .bss           0x080007dc       0x18 .\CortexM0p\ARM_GCC_541\Release\cy_flash.o
 .bss           0x080007f4        0xc .\CortexM0p\ARM_GCC_541\Release\cy_ipc_sema.o
 .bss           0x08000800        0x4 .\CortexM0p\ARM_GCC_541\Release\cy_ipc_pipe.o
 .bss           0x08000804       0x38 .\CortexM0p\ARM_GCC_541\Release\cy_syspm.o
 *(COMMON)
 COMMON         0x0800083c        0x4 .\CortexM0p\ARM_GCC_541\Release\cy_device.o
                0x0800083c                cy_device
                0x08000840                . = ALIGN (0x4)
                0x08000840                __bss_end__ = .

.heap           0x08000840      0x400
                0x08000840                __HeapBase = .
                0x08000840                __end__ = .
                0x08000840                end = __end__
 *(.heap*)
 .heap          0x08000840      0x400 .\CortexM0p\ARM_GCC_541\Release\startup_psoc6_01_cm0plus.o
                0x08000c40                __HeapLimit = .

.stack_dummy    0x08000840     0x1000
 *(.stack*)
 .stack         0x08000840     0x1000 .\CortexM0p\ARM_GCC_541\Release\startup_psoc6_01_cm0plus.o
                0x08008000                __StackTop = (ORIGIN (ram) + LENGTH (ram))
                0x08007000                __StackLimit = (__StackTop - SIZEOF (.stack_dummy))
                0x08008000                PROVIDE (__stack, __StackTop)
                0x00000001                ASSERT ((__StackLimit >= __HeapLimit), region RAM overflowed with stack)

.cy_em_eeprom
 *(.cy_em_eeprom)

.cy_sflash_user_data
 *(.cy_sflash_user_data)

.cy_sflash_nar
 *(.cy_sflash_nar)

.cy_sflash_public_key
 *(.cy_sflash_public_key)

.cy_toc_part2
 *(.cy_toc_part2)

.cy_xip
 *(.cy_xip)

.cy_efuse
 *(.cy_efuse)

.cymeta         0x90500000        0xc
 *(.cymeta)
 .cymeta        0x90500000        0xc .\CortexM0p\ARM_GCC_541\Release\cymetadata.o
                0x90500000                cy_metadata
OUTPUT(C:\Progetti\Cypress\sw2288.cydsn\PSoC6DfuBleApp0.cydsn\CortexM0p\ARM_GCC_541\Release\PSoC6DfuBleApp0_link.elf elf32-littlearm)

.rel.dyn        0x10001d88        0x0 load address 0x9050000c
 .rel.iplt      0x10001d88        0x0 c:/cypress/psoc creator/4.4/psoc creator/import/gnu/arm/5.4.1/bin/../lib/gcc/arm-none-eabi/5.4.1/armv6-m/crtbegin.o

.ARM.attributes
                0x00000000       0x28
 .ARM.attributes
                0x00000000       0x1e c:/cypress/psoc creator/4.4/psoc creator/import/gnu/arm/5.4.1/bin/../lib/gcc/arm-none-eabi/5.4.1/armv6-m/crti.o
 .ARM.attributes
                0x0000001e       0x2c c:/cypress/psoc creator/4.4/psoc creator/import/gnu/arm/5.4.1/bin/../lib/gcc/arm-none-eabi/5.4.1/armv6-m/crtbegin.o
 .ARM.attributes
                0x0000004a       0x1b .\CortexM0p\ARM_GCC_541\Release\startup_psoc6_01_cm0plus.o
 .ARM.attributes
                0x00000065       0x32 .\CortexM0p\ARM_GCC_541\Release\main_cm0p.o
 .ARM.attributes
                0x00000097       0x32 .\CortexM0p\ARM_GCC_541\Release\system_psoc6_cm0plus.o
 .ARM.attributes
                0x000000c9       0x32 .\CortexM0p\ARM_GCC_541\Release\cyfitter_cfg.o
 .ARM.attributes
                0x000000fb       0x32 .\CortexM0p\ARM_GCC_541\Release\cymetadata.o
 .ARM.attributes
                0x0000012d       0x32 .\CortexM0p\ARM_GCC_541\Release\cy_flash.o
 .ARM.attributes
                0x0000015f       0x32 .\CortexM0p\ARM_GCC_541\Release\cy_gpio.o
 .ARM.attributes
                0x00000191       0x32 .\CortexM0p\ARM_GCC_541\Release\cy_ipc_drv.o
 .ARM.attributes
                0x000001c3       0x32 .\CortexM0p\ARM_GCC_541\Release\cy_ipc_sema.o
 .ARM.attributes
                0x000001f5       0x32 .\CortexM0p\ARM_GCC_541\Release\cy_ipc_pipe.o
 .ARM.attributes
                0x00000227       0x32 .\CortexM0p\ARM_GCC_541\Release\cy_prot.o
 .ARM.attributes
                0x00000259       0x32 .\CortexM0p\ARM_GCC_541\Release\cy_sysclk.o
 .ARM.attributes
                0x0000028b       0x32 .\CortexM0p\ARM_GCC_541\Release\cy_sysint.o
 .ARM.attributes
                0x000002bd       0x32 .\CortexM0p\ARM_GCC_541\Release\cy_syslib.o
 .ARM.attributes
                0x000002ef       0x22 .\CortexM0p\ARM_GCC_541\Release\cy_syslib_gcc.o
 .ARM.attributes
                0x00000311       0x32 .\CortexM0p\ARM_GCC_541\Release\cy_syspm.o
 .ARM.attributes
                0x00000343       0x32 .\CortexM0p\ARM_GCC_541\Release\cy_systick.o
 .ARM.attributes
                0x00000375       0x32 .\CortexM0p\ARM_GCC_541\Release\cy_wdt.o
 .ARM.attributes
                0x000003a7       0x32 .\CortexM0p\ARM_GCC_541\Release\cy_device.o
 .ARM.attributes
                0x000003d9       0x32 .\CortexM0p\ARM_GCC_541\Release\cy_dfu.o
 .ARM.attributes
                0x0000040b       0x1e c:/cypress/psoc creator/4.4/psoc creator/import/gnu/arm/5.4.1/bin/../lib/gcc/arm-none-eabi/5.4.1/armv6-m\libgcc.a(_udivsi3.o)
 .ARM.attributes
                0x00000429       0x1e c:/cypress/psoc creator/4.4/psoc creator/import/gnu/arm/5.4.1/bin/../lib/gcc/arm-none-eabi/5.4.1/armv6-m\libgcc.a(_dvmd_tls.o)
 .ARM.attributes
                0x00000447       0x2c c:/cypress/psoc creator/4.4/psoc creator/import/gnu/arm/5.4.1/bin/../lib/gcc/arm-none-eabi/5.4.1/../../../../arm-none-eabi/lib/armv6-m\libg_nano.a(lib_a-memset.o)
 .ARM.attributes
                0x00000473       0x2c c:/cypress/psoc creator/4.4/psoc creator/import/gnu/arm/5.4.1/bin/../lib/gcc/arm-none-eabi/5.4.1/armv6-m/crtend.o
 .ARM.attributes
                0x0000049f       0x1e c:/cypress/psoc creator/4.4/psoc creator/import/gnu/arm/5.4.1/bin/../lib/gcc/arm-none-eabi/5.4.1/armv6-m/crtn.o

.comment        0x00000000       0x6e
 .comment       0x00000000       0x6e .\CortexM0p\ARM_GCC_541\Release\main_cm0p.o
                                 0x6f (size before relaxing)
 .comment       0x0000006e       0x6f .\CortexM0p\ARM_GCC_541\Release\system_psoc6_cm0plus.o
 .comment       0x0000006e       0x6f .\CortexM0p\ARM_GCC_541\Release\cyfitter_cfg.o
 .comment       0x0000006e       0x6f .\CortexM0p\ARM_GCC_541\Release\cymetadata.o
 .comment       0x0000006e       0x6f .\CortexM0p\ARM_GCC_541\Release\cy_flash.o
 .comment       0x0000006e       0x6f .\CortexM0p\ARM_GCC_541\Release\cy_gpio.o
 .comment       0x0000006e       0x6f .\CortexM0p\ARM_GCC_541\Release\cy_ipc_drv.o
 .comment       0x0000006e       0x6f .\CortexM0p\ARM_GCC_541\Release\cy_ipc_sema.o
 .comment       0x0000006e       0x6f .\CortexM0p\ARM_GCC_541\Release\cy_ipc_pipe.o
 .comment       0x0000006e       0x6f .\CortexM0p\ARM_GCC_541\Release\cy_prot.o
 .comment       0x0000006e       0x6f .\CortexM0p\ARM_GCC_541\Release\cy_sysclk.o
 .comment       0x0000006e       0x6f .\CortexM0p\ARM_GCC_541\Release\cy_sysint.o
 .comment       0x0000006e       0x6f .\CortexM0p\ARM_GCC_541\Release\cy_syslib.o
 .comment       0x0000006e       0x6f .\CortexM0p\ARM_GCC_541\Release\cy_syspm.o
 .comment       0x0000006e       0x6f .\CortexM0p\ARM_GCC_541\Release\cy_systick.o
 .comment       0x0000006e       0x6f .\CortexM0p\ARM_GCC_541\Release\cy_wdt.o
 .comment       0x0000006e       0x6f .\CortexM0p\ARM_GCC_541\Release\cy_device.o
 .comment       0x0000006e       0x6f .\CortexM0p\ARM_GCC_541\Release\cy_dfu.o

.debug_line     0x00000000     0x54db
 .debug_line    0x00000000       0x92 .\CortexM0p\ARM_GCC_541\Release\startup_psoc6_01_cm0plus.o
 .debug_line    0x00000092      0x376 .\CortexM0p\ARM_GCC_541\Release\main_cm0p.o
 .debug_line    0x00000408      0x4c6 .\CortexM0p\ARM_GCC_541\Release\system_psoc6_cm0plus.o
 .debug_line    0x000008ce      0x484 .\CortexM0p\ARM_GCC_541\Release\cyfitter_cfg.o
 .debug_line    0x00000d52      0x119 .\CortexM0p\ARM_GCC_541\Release\cymetadata.o
 .debug_line    0x00000e6b      0x6b2 .\CortexM0p\ARM_GCC_541\Release\cy_flash.o
 .debug_line    0x0000151d      0x38d .\CortexM0p\ARM_GCC_541\Release\cy_gpio.o
 .debug_line    0x000018aa      0x293 .\CortexM0p\ARM_GCC_541\Release\cy_ipc_drv.o
 .debug_line    0x00001b3d      0x3da .\CortexM0p\ARM_GCC_541\Release\cy_ipc_sema.o
 .debug_line    0x00001f17      0x540 .\CortexM0p\ARM_GCC_541\Release\cy_ipc_pipe.o
 .debug_line    0x00002457      0x7b1 .\CortexM0p\ARM_GCC_541\Release\cy_prot.o
 .debug_line    0x00002c08      0x9cf .\CortexM0p\ARM_GCC_541\Release\cy_sysclk.o
 .debug_line    0x000035d7      0x381 .\CortexM0p\ARM_GCC_541\Release\cy_sysint.o
 .debug_line    0x00003958      0x437 .\CortexM0p\ARM_GCC_541\Release\cy_syslib.o
 .debug_line    0x00003d8f       0x89 .\CortexM0p\ARM_GCC_541\Release\cy_syslib_gcc.o
 .debug_line    0x00003e18      0x9e6 .\CortexM0p\ARM_GCC_541\Release\cy_syspm.o
 .debug_line    0x000047fe      0x313 .\CortexM0p\ARM_GCC_541\Release\cy_systick.o
 .debug_line    0x00004b11      0x28c .\CortexM0p\ARM_GCC_541\Release\cy_wdt.o
 .debug_line    0x00004d9d      0x159 .\CortexM0p\ARM_GCC_541\Release\cy_device.o
 .debug_line    0x00004ef6      0x5e5 .\CortexM0p\ARM_GCC_541\Release\cy_dfu.o

.debug_info     0x00000000    0x1bf92
 .debug_info    0x00000000       0x7e .\CortexM0p\ARM_GCC_541\Release\startup_psoc6_01_cm0plus.o
 .debug_info    0x0000007e      0xd4d .\CortexM0p\ARM_GCC_541\Release\main_cm0p.o
 .debug_info    0x00000dcb     0x21aa .\CortexM0p\ARM_GCC_541\Release\system_psoc6_cm0plus.o
 .debug_info    0x00002f75     0x31f1 .\CortexM0p\ARM_GCC_541\Release\cyfitter_cfg.o
 .debug_info    0x00006166       0xac .\CortexM0p\ARM_GCC_541\Release\cymetadata.o
 .debug_info    0x00006212     0x217a .\CortexM0p\ARM_GCC_541\Release\cy_flash.o
 .debug_info    0x0000838c     0x1e55 .\CortexM0p\ARM_GCC_541\Release\cy_gpio.o
 .debug_info    0x0000a1e1      0x86e .\CortexM0p\ARM_GCC_541\Release\cy_ipc_drv.o
 .debug_info    0x0000aa4f      0xbc7 .\CortexM0p\ARM_GCC_541\Release\cy_ipc_sema.o
 .debug_info    0x0000b616     0x1732 .\CortexM0p\ARM_GCC_541\Release\cy_ipc_pipe.o
 .debug_info    0x0000cd48     0x22ae .\CortexM0p\ARM_GCC_541\Release\cy_prot.o
 .debug_info    0x0000eff6     0x1fcc .\CortexM0p\ARM_GCC_541\Release\cy_sysclk.o
 .debug_info    0x00010fc2     0x1a84 .\CortexM0p\ARM_GCC_541\Release\cy_sysint.o
 .debug_info    0x00012a46     0x1fa6 .\CortexM0p\ARM_GCC_541\Release\cy_syslib.o
 .debug_info    0x000149ec       0xa8 .\CortexM0p\ARM_GCC_541\Release\cy_syslib_gcc.o
 .debug_info    0x00014a94     0x3d3d .\CortexM0p\ARM_GCC_541\Release\cy_syspm.o
 .debug_info    0x000187d1      0x830 .\CortexM0p\ARM_GCC_541\Release\cy_systick.o
 .debug_info    0x00019001      0x802 .\CortexM0p\ARM_GCC_541\Release\cy_wdt.o
 .debug_info    0x00019803      0x551 .\CortexM0p\ARM_GCC_541\Release\cy_device.o
 .debug_info    0x00019d54     0x223e .\CortexM0p\ARM_GCC_541\Release\cy_dfu.o

.debug_abbrev   0x00000000     0x2d4a
 .debug_abbrev  0x00000000       0x14 .\CortexM0p\ARM_GCC_541\Release\startup_psoc6_01_cm0plus.o
 .debug_abbrev  0x00000014      0x1dd .\CortexM0p\ARM_GCC_541\Release\main_cm0p.o
 .debug_abbrev  0x000001f1      0x2a3 .\CortexM0p\ARM_GCC_541\Release\system_psoc6_cm0plus.o
 .debug_abbrev  0x00000494      0x2d4 .\CortexM0p\ARM_GCC_541\Release\cyfitter_cfg.o
 .debug_abbrev  0x00000768       0x5d .\CortexM0p\ARM_GCC_541\Release\cymetadata.o
 .debug_abbrev  0x000007c5      0x369 .\CortexM0p\ARM_GCC_541\Release\cy_flash.o
 .debug_abbrev  0x00000b2e      0x28f .\CortexM0p\ARM_GCC_541\Release\cy_gpio.o
 .debug_abbrev  0x00000dbd      0x176 .\CortexM0p\ARM_GCC_541\Release\cy_ipc_drv.o
 .debug_abbrev  0x00000f33      0x277 .\CortexM0p\ARM_GCC_541\Release\cy_ipc_sema.o
 .debug_abbrev  0x000011aa      0x385 .\CortexM0p\ARM_GCC_541\Release\cy_ipc_pipe.o
 .debug_abbrev  0x0000152f      0x273 .\CortexM0p\ARM_GCC_541\Release\cy_prot.o
 .debug_abbrev  0x000017a2      0x407 .\CortexM0p\ARM_GCC_541\Release\cy_sysclk.o
 .debug_abbrev  0x00001ba9      0x269 .\CortexM0p\ARM_GCC_541\Release\cy_sysint.o
 .debug_abbrev  0x00001e12      0x30d .\CortexM0p\ARM_GCC_541\Release\cy_syslib.o
 .debug_abbrev  0x0000211f       0x14 .\CortexM0p\ARM_GCC_541\Release\cy_syslib_gcc.o
 .debug_abbrev  0x00002133      0x383 .\CortexM0p\ARM_GCC_541\Release\cy_syspm.o
 .debug_abbrev  0x000024b6      0x246 .\CortexM0p\ARM_GCC_541\Release\cy_systick.o
 .debug_abbrev  0x000026fc      0x195 .\CortexM0p\ARM_GCC_541\Release\cy_wdt.o
 .debug_abbrev  0x00002891       0x9d .\CortexM0p\ARM_GCC_541\Release\cy_device.o
 .debug_abbrev  0x0000292e      0x41c .\CortexM0p\ARM_GCC_541\Release\cy_dfu.o

.debug_aranges  0x00000000      0x8b0
 .debug_aranges
                0x00000000       0x20 .\CortexM0p\ARM_GCC_541\Release\startup_psoc6_01_cm0plus.o
 .debug_aranges
                0x00000020       0x28 .\CortexM0p\ARM_GCC_541\Release\main_cm0p.o
 .debug_aranges
                0x00000048       0x60 .\CortexM0p\ARM_GCC_541\Release\system_psoc6_cm0plus.o
 .debug_aranges
                0x000000a8       0x20 .\CortexM0p\ARM_GCC_541\Release\cyfitter_cfg.o
 .debug_aranges
                0x000000c8       0x18 .\CortexM0p\ARM_GCC_541\Release\cymetadata.o
 .debug_aranges
                0x000000e0       0xc0 .\CortexM0p\ARM_GCC_541\Release\cy_flash.o
 .debug_aranges
                0x000001a0       0x50 .\CortexM0p\ARM_GCC_541\Release\cy_gpio.o
 .debug_aranges
                0x000001f0       0x30 .\CortexM0p\ARM_GCC_541\Release\cy_ipc_drv.o
 .debug_aranges
                0x00000220       0x48 .\CortexM0p\ARM_GCC_541\Release\cy_ipc_sema.o
 .debug_aranges
                0x00000268       0x68 .\CortexM0p\ARM_GCC_541\Release\cy_ipc_pipe.o
 .debug_aranges
                0x000002d0      0x198 .\CortexM0p\ARM_GCC_541\Release\cy_prot.o
 .debug_aranges
                0x00000468       0xa8 .\CortexM0p\ARM_GCC_541\Release\cy_sysclk.o
 .debug_aranges
                0x00000510       0x58 .\CortexM0p\ARM_GCC_541\Release\cy_sysint.o
 .debug_aranges
                0x00000568       0x78 .\CortexM0p\ARM_GCC_541\Release\cy_syslib.o
 .debug_aranges
                0x000005e0       0x20 .\CortexM0p\ARM_GCC_541\Release\cy_syslib_gcc.o
 .debug_aranges
                0x00000600      0x138 .\CortexM0p\ARM_GCC_541\Release\cy_syspm.o
 .debug_aranges
                0x00000738       0x58 .\CortexM0p\ARM_GCC_541\Release\cy_systick.o
 .debug_aranges
                0x00000790       0x50 .\CortexM0p\ARM_GCC_541\Release\cy_wdt.o
 .debug_aranges
                0x000007e0       0x20 .\CortexM0p\ARM_GCC_541\Release\cy_device.o
 .debug_aranges
                0x00000800       0xb0 .\CortexM0p\ARM_GCC_541\Release\cy_dfu.o

.debug_ranges   0x00000000      0xf80
 .debug_ranges  0x00000000       0x30 .\CortexM0p\ARM_GCC_541\Release\main_cm0p.o
 .debug_ranges  0x00000030       0x80 .\CortexM0p\ARM_GCC_541\Release\system_psoc6_cm0plus.o
 .debug_ranges  0x000000b0       0xd8 .\CortexM0p\ARM_GCC_541\Release\cyfitter_cfg.o
 .debug_ranges  0x00000188       0xe0 .\CortexM0p\ARM_GCC_541\Release\cy_flash.o
 .debug_ranges  0x00000268       0x58 .\CortexM0p\ARM_GCC_541\Release\cy_gpio.o
 .debug_ranges  0x000002c0       0x38 .\CortexM0p\ARM_GCC_541\Release\cy_ipc_drv.o
 .debug_ranges  0x000002f8       0x58 .\CortexM0p\ARM_GCC_541\Release\cy_ipc_sema.o
 .debug_ranges  0x00000350       0xd0 .\CortexM0p\ARM_GCC_541\Release\cy_ipc_pipe.o
 .debug_ranges  0x00000420      0x1a0 .\CortexM0p\ARM_GCC_541\Release\cy_prot.o
 .debug_ranges  0x000005c0      0x258 .\CortexM0p\ARM_GCC_541\Release\cy_sysclk.o
 .debug_ranges  0x00000818       0x48 .\CortexM0p\ARM_GCC_541\Release\cy_sysint.o
 .debug_ranges  0x00000860       0x98 .\CortexM0p\ARM_GCC_541\Release\cy_syslib.o
 .debug_ranges  0x000008f8      0x240 .\CortexM0p\ARM_GCC_541\Release\cy_syspm.o
 .debug_ranges  0x00000b38       0xa8 .\CortexM0p\ARM_GCC_541\Release\cy_systick.o
 .debug_ranges  0x00000be0       0x68 .\CortexM0p\ARM_GCC_541\Release\cy_wdt.o
 .debug_ranges  0x00000c48       0x10 .\CortexM0p\ARM_GCC_541\Release\cy_device.o
 .debug_ranges  0x00000c58      0x328 .\CortexM0p\ARM_GCC_541\Release\cy_dfu.o

.debug_str      0x00000000     0xb989
 .debug_str     0x00000000      0xdd4 .\CortexM0p\ARM_GCC_541\Release\main_cm0p.o
                                0xe5c (size before relaxing)
 .debug_str     0x00000dd4     0x100b .\CortexM0p\ARM_GCC_541\Release\system_psoc6_cm0plus.o
                               0x1db7 (size before relaxing)
 .debug_str     0x00001ddf     0x40ec .\CortexM0p\ARM_GCC_541\Release\cyfitter_cfg.o
                               0x4cde (size before relaxing)
 .debug_str     0x00005ecb       0x30 .\CortexM0p\ARM_GCC_541\Release\cymetadata.o
                                0x198 (size before relaxing)
 .debug_str     0x00005efb     0x1037 .\CortexM0p\ARM_GCC_541\Release\cy_flash.o
                               0x1cdd (size before relaxing)
 .debug_str     0x00006f32      0x376 .\CortexM0p\ARM_GCC_541\Release\cy_gpio.o
                               0x36d4 (size before relaxing)
 .debug_str     0x000072a8       0xfd .\CortexM0p\ARM_GCC_541\Release\cy_ipc_drv.o
                                0x91c (size before relaxing)
 .debug_str     0x000073a5       0xe6 .\CortexM0p\ARM_GCC_541\Release\cy_ipc_sema.o
                                0xb09 (size before relaxing)
 .debug_str     0x0000748b     0x12c2 .\CortexM0p\ARM_GCC_541\Release\cy_ipc_pipe.o
                               0x21e0 (size before relaxing)
 .debug_str     0x0000874d      0xe0c .\CortexM0p\ARM_GCC_541\Release\cy_prot.o
                               0x1694 (size before relaxing)
 .debug_str     0x00009559      0x6a0 .\CortexM0p\ARM_GCC_541\Release\cy_sysclk.o
                               0x1e39 (size before relaxing)
 .debug_str     0x00009bf9      0x39f .\CortexM0p\ARM_GCC_541\Release\cy_sysint.o
                               0x2027 (size before relaxing)
 .debug_str     0x00009f98      0x23f .\CortexM0p\ARM_GCC_541\Release\cy_syslib.o
                               0x1aa0 (size before relaxing)
 .debug_str     0x0000a1d7      0xdd8 .\CortexM0p\ARM_GCC_541\Release\cy_syspm.o
                               0x2abd (size before relaxing)
 .debug_str     0x0000afaf      0x1e5 .\CortexM0p\ARM_GCC_541\Release\cy_systick.o
                                0x9f4 (size before relaxing)
 .debug_str     0x0000b194       0xbf .\CortexM0p\ARM_GCC_541\Release\cy_wdt.o
                                0x6b9 (size before relaxing)
 .debug_str     0x0000b253       0x5d .\CortexM0p\ARM_GCC_541\Release\cy_device.o
                                0x7a6 (size before relaxing)
 .debug_str     0x0000b2b0      0x6d9 .\CortexM0p\ARM_GCC_541\Release\cy_dfu.o
                                0x972 (size before relaxing)

.debug_frame    0x00000000     0x1820
 .debug_frame   0x00000000       0x48 .\CortexM0p\ARM_GCC_541\Release\main_cm0p.o
 .debug_frame   0x00000048      0x104 .\CortexM0p\ARM_GCC_541\Release\system_psoc6_cm0plus.o
 .debug_frame   0x0000014c       0x38 .\CortexM0p\ARM_GCC_541\Release\cyfitter_cfg.o
 .debug_frame   0x00000184      0x24c .\CortexM0p\ARM_GCC_541\Release\cy_flash.o
 .debug_frame   0x000003d0       0xe4 .\CortexM0p\ARM_GCC_541\Release\cy_gpio.o
 .debug_frame   0x000004b4       0x40 .\CortexM0p\ARM_GCC_541\Release\cy_ipc_drv.o
 .debug_frame   0x000004f4       0xcc .\CortexM0p\ARM_GCC_541\Release\cy_ipc_sema.o
 .debug_frame   0x000005c0      0x11c .\CortexM0p\ARM_GCC_541\Release\cy_ipc_pipe.o
 .debug_frame   0x000006dc      0x498 .\CortexM0p\ARM_GCC_541\Release\cy_prot.o
 .debug_frame   0x00000b74      0x28c .\CortexM0p\ARM_GCC_541\Release\cy_sysclk.o
 .debug_frame   0x00000e00       0xd0 .\CortexM0p\ARM_GCC_541\Release\cy_sysint.o
 .debug_frame   0x00000ed0      0x134 .\CortexM0p\ARM_GCC_541\Release\cy_syslib.o
 .debug_frame   0x00001004      0x3e8 .\CortexM0p\ARM_GCC_541\Release\cy_syspm.o
 .debug_frame   0x000013ec       0xc4 .\CortexM0p\ARM_GCC_541\Release\cy_systick.o
 .debug_frame   0x000014b0       0xa4 .\CortexM0p\ARM_GCC_541\Release\cy_wdt.o
 .debug_frame   0x00001554       0x20 .\CortexM0p\ARM_GCC_541\Release\cy_device.o
 .debug_frame   0x00001574      0x26c .\CortexM0p\ARM_GCC_541\Release\cy_dfu.o
 .debug_frame   0x000017e0       0x20 c:/cypress/psoc creator/4.4/psoc creator/import/gnu/arm/5.4.1/bin/../lib/gcc/arm-none-eabi/5.4.1/armv6-m\libgcc.a(_udivsi3.o)
 .debug_frame   0x00001800       0x20 c:/cypress/psoc creator/4.4/psoc creator/import/gnu/arm/5.4.1/bin/../lib/gcc/arm-none-eabi/5.4.1/../../../../arm-none-eabi/lib/armv6-m\libg_nano.a(lib_a-memset.o)

.debug_loc      0x00000000     0x8e0e
 .debug_loc     0x00000000      0x415 .\CortexM0p\ARM_GCC_541\Release\system_psoc6_cm0plus.o
 .debug_loc     0x00000415      0x25c .\CortexM0p\ARM_GCC_541\Release\cyfitter_cfg.o
 .debug_loc     0x00000671      0xd58 .\CortexM0p\ARM_GCC_541\Release\cy_flash.o
 .debug_loc     0x000013c9      0x809 .\CortexM0p\ARM_GCC_541\Release\cy_gpio.o
 .debug_loc     0x00001bd2      0x222 .\CortexM0p\ARM_GCC_541\Release\cy_ipc_drv.o
 .debug_loc     0x00001df4      0x87c .\CortexM0p\ARM_GCC_541\Release\cy_ipc_sema.o
 .debug_loc     0x00002670      0x74f .\CortexM0p\ARM_GCC_541\Release\cy_ipc_pipe.o
 .debug_loc     0x00002dbf     0x1a5f .\CortexM0p\ARM_GCC_541\Release\cy_prot.o
 .debug_loc     0x0000481e     0x17e2 .\CortexM0p\ARM_GCC_541\Release\cy_sysclk.o
 .debug_loc     0x00006000      0x403 .\CortexM0p\ARM_GCC_541\Release\cy_sysint.o
 .debug_loc     0x00006403       0xff .\CortexM0p\ARM_GCC_541\Release\cy_syslib.o
 .debug_loc     0x00006502      0xcdf .\CortexM0p\ARM_GCC_541\Release\cy_syspm.o
 .debug_loc     0x000071e1      0x122 .\CortexM0p\ARM_GCC_541\Release\cy_systick.o
 .debug_loc     0x00007303       0x9a .\CortexM0p\ARM_GCC_541\Release\cy_wdt.o
 .debug_loc     0x0000739d     0x1a71 .\CortexM0p\ARM_GCC_541\Release\cy_dfu.o
