:020000041001E9
:4000000000000108EB0201100D00000051030110510301105103011051030110000000000000000000000000000000004D0301104D030110000000004D0301104D03011094
:400040004D0301104D0301104D0301104D0301104D0301104D0301104D0301104D0301104D0301104D0301104D0301104D0301104D0301104D0301104D0301104D03011070
:400080004D0301104D0301104D0301104D0301104D0301104D0301104D0301104D0301104D0301104D0301104D0301104D0301104D0301104D0301104D0301104D03011030
:4000C0004D0301104D0301104D0301104D0301104D0301104D0301104D0301104D0301104D0301104D0301104D0301104D0301104D0301104D0301104D0301104D030110F0
:400100004D0301104D0301104D0301104D0301104D0301104D0301104D0301104D0301104D0301104D0301104D0301104D0301104D0301104D0301104D0301104D030110AF
:400140004D0301104D0301104D0301104D0301104D0301104D0301104D0301104D0301104D0301104D0301104D0301104D0301104D0301104D0301104D0301104D0301106F
:400180004D0301104D0301104D0301104D0301104D0301104D0301104D0301104D0301104D0301104D0301104D0301104D0301104D0301104D0301104D0301104D0301102F
:4001C0004D0301104D0301104D0301104D0301104D0301104D0301104D0301104D0301104D0301104D0301104D0301104D0301104D0301104D0301104D0301104D030110EF
:400200004D0301104D0301104D0301104D0301104D0301104D0301104D0301104D0301104D0301104D0301104D0301104D0301104D0301104D0301104D0301104D030110AE
:400240004D0301104D0301104D0301104D0301104D0301104D0301104D0301104D0301104D0301104D0301104D0301104D0301104D0301104D0301104D0301104D0301106E
:400280004D0301104D0301104D03011010B5054C237833B9044B13B10448AFF300800123237010BD0CBD0008000000006C7B0110084B10B51BB108490848AFF300800848B9
:4002C000036803B910BD074B002BFBD0BDE81040184700BF0000000010BD00086C7B011004880008000000007047FFF7FDFF72B6104C114DAC4209DA21686268A368043B55
:40030000A2BFC858D050FAE70C34F3E70B490C4A00209142BCBF41F8040BFAE709480A490860BFF34F8F00F025FD00F0FFFC00F0B5F8FEE72CB2031044B203100CBD0008FA
:400340002CD500080080000808ED00E0FEE7FEE700B504207146084202D0EFF3098001E0EFF30880043002F045F9FEE7064B1B6893F87D10054A8B5823F4700343F4C00300
:400380008B50202393607047D8D40008800232402022014B5A607047800232402022014BDA607047800232402022014B9A607047800232404FF47A7303FB00F0B0FBF1F08A
:4003C000704700BF38B50B4DA5FB00352D09002406E0142002F0B2F80134A4B2A54206D0054B1B6913F0040FF3D0002038BD012038BD00BFCDCCCCCC800332402DE9F04111
:4004000080460F4616461C461D6819600122314600F06CFB2560034658B132463946284605F08BFE234600223146404600F00EFB034625601846BDE8F08100BFF8B50546C0
:40044000144C154EA7190146204604F06DFE38B92B46324621463846FFF7D0FF034616E02946384604F060FE034630B92B46324639462046FFF7C2FF034643B12B464FF443
:4004800080224FF08051002004F05CFF03461846F8BD00BF00FA0F100002000070B584B004AD002345F8043D62B6FFF75FFF784C1423E36004F11C03236004F50B73A3607F
:4004C0002146284604F000FD2046FFF7B7FF10B1002002F055F805F073F800F0A1FD6C4C04F23C414FF4F87000F0B4FC94F83C34AA2B05D100214FF4F87000F03BFD16E00F
:4005000002F056F8102812D04FF4FA60FFF75AFF68B95F49012004F0B1FD40B902F054F802F046F80028F9D1012004F0DDFC00F025FB00F067F901A82AF0F0F90024264606
:4005400025462AF0FBF9524903A804F0CFFF0136039B022B04D0032B20D0012B49D127E04B49012004F08AFD58B900F00BFB02F02BF802F01DF80028F9D1012004F0B4FCAF
:4005800037E0444A904234D1414903A804F09CFCFFF70AFF00F0EEFA00242AE03C4903A804F092FCFFF700FF00F0E4FA002420E0F0B1394B984210D114210520FFF7FAFE38
:4005C000864216D3324903A804F07EFCFFF7ECFE00F0D0FA002426460BE0142001F0AEFF2B4903A804F070FC00F0C4FA002600E00026642C00D10024284BA3FB04239B0816
:4006000003EB83039C4212D1039B012B04D1132C02D8FFF7C3FE0AE0214B1B78022B04D1092C02D8FFF7BAFE01E0FFF7BDFE01343DB3039B2BBB1B4B1B7813F0FF0F06D152
:400640004FF4FA70FFF7BEFE18B9002303E0012301E001230025002B3FF473AF0C49012004F00CFD00287FF46CAF00F08BFA01F0ABFF01F09DFF0028F9D1012004F034FC79
:400680005FE7094B1B69C3F38003DDB259E700BF28BD000802001A0040001A00CDCCCCCCE1D4000865C100088003324010B584B00C4644F2070398423BD00BD844F2010354
:4006C00098421CD044F2060398425BD0B0F5805F73D10CE044F21403984246D045F20103984267D044F20803984266D145E00021084603F003F832480BF084FC5DE0314B31
:400700001B685B6A1A78102A01D10522DA702D4B1B685A6A61795171586A0DF027F900284BD00DF05BF9274B1B68586A0DF01EF943E00B890C2B11D00C23ADF80430ADF84D
:4007400006300023ADF80830C823ADF80A301E4B1B788DF80C3001A809F0E0FB6378184880F841300DF07EF927E04222144805F0E4FC16480DF04CF91FE00021084602F00B
:40078000BDFF1AE0124B1B78BBB900F0FBF90021012004F073FC40B901F016FF01F008FF0028F9D1012004F09FFBFFF7F1FD02F003FA02E00A88044B1A8004B010BD00BF8E
:4007C0008C82000898C500087CD400082C830008E1D40008094B98420ED100B583B00DF107020121002003F029FF9DF80720044B1A7003B05DF804FB704700BFBF00010087
:4008000065C1000808B5024803F00AFF08BD00BFD5070110A0F58030A0F22B10032862D8DFE800F048211A024B7A012B5BD10B681A682E490A60D078937843EA0023073393
:400840009BB28B80B3F5857F02D340F209128A800122264B9A7170478B79012B43D10022224B9A80704770B54A6813681F48068936B9DC78987840EA042007301B4C6081E6
:400880000C461A4D05F10C0092881946304405F054FC63689B8833449BB22B816A89934222D105F10C012960AA800122AA7100222A8170BD0E4B1B68196A0E4B1B681B6886
:4008C0005A8802EB82029300143B0B441B695968064A1160C8788B7843EA002307339380012393717047704770BD00BF68C1000898C5000804D5000808B5054800F096FB0A
:40090000044803F081FD0022034B1A8108BD00BFAD0601101508011068C1000800B583B013238DF804300E4B1B788DF8053001A80BF03EFB10B10EE02AF000F8084B1B8837
:40094000ADF800309DF8013013B9064AD35C00E00023022BF0D002F0D7FB03B05DF804FB7CD40008E0D400080022014B1A81704768C10008F8B50C461546084B1E785F78B7
:4009800003460A46002146EA072003F04DFD08B92C60F8BD00232B600148F8BD7CD400080F001A00F8B540B30D4616461C460746E9B9134C22E029F0C1FF124B9B79012B43
:4009C00011D1104B00229A719C88A54207D922461968384605F0B1FB346000240AE000233360094C06E0012001F0A8FD013C002CE1D1064C29F0A2FF00E0014C2046F8BDE1
:400A00000F001A0068C1000804001A0040001A00B0FBF1F301FB130109B9012070470020704700BF30B583B00D4614466A4601A904F07AFA019A2A60009B1A44024B1344CC
:400A4000236003B030BD00BF04000000F0B583B004460D4616461F4604F084FA6A4601A9FFF7E0FF4FF400712046FFF7D1FF38B1B5F5007F06D016F0010F05D0002504E0FD
:400A8000154D02E0002500E0134D019B9C4203D3009B9C4200D2114D114B9C4202D3114B9C4205D904F16C43B3F5004F00D30B4D75B916F0010F05D04FF400720021386818
:400AC00005F061FB3968204600F09EFB00B1064D284603B0F0BD00BF03001A000A001A00FCFF0310FFFF0F1004001A002DE9F04104460E46174698464FF400713046FFF7BA
:400B000087FF08B1002500E0114D124BA34202D8114B9C4205D904F16C43B3F5004F00D30E4D8DB917F0010F06D132462146D8F8000005F002FB07E032462146D8F80000AB
:400B400005F0ECFA00B1064D2846BDE8F08100BF03001A00FCFF0310FFFF0F100A001A0002001A0008B5FFF71DFF08BD08B5FFF701FF08BD08B5FFF7F7FE08BD08B5FFF79F
:400B8000BBFE08BD08B5FFF7C9FE08BD08B5012000F0CEFF08BD00BF704700BF5C4AD2F8803303F00F0303F1D00152F8212002F00702032A04D0042A05D092B9554914E08F
:400BC000554A116811E003F1C002514951F8222002F01F02112A06D0132A04D04FF4FA4103E04E4901E04FF400418BBB484BD3F8902502F00100D3F88825C2F30172D3F8C8
:400C0000883513F0405F07D0414BD3F88835C3F30173012B02D102E0012300E0002303B108B9032A46D13A48D0F88025C2F31103D0F88425C2F30C02D0F88005C0F3006033
:400C40000130B1FBF2F202FB03F2B2FBF0F131E0012B2FD12E4BD3F8402602F00100D3F80026C2F30172D3F8003613F0405F07D0274BD3F80036C3F30173012B02D102E048
:400C8000012300E0002303B108B9032A12D12048D0F8002602F07F02D0F80036C3F30423D0F80006C0F3044002FB01F2B2FBF3F2B2FBF0F1164BD3F88033C3F3011321FA4B
:400CC00003F215494A601648D0F89030C3F3072301330069000E0130B2FBF0F08860B2FBF3F3CB600B6103F5742202F23F220D48A0FB0202C2F387420A7503F2E7330A4A7F
:400D0000A2FB03239B098B61DB03CB61704700BF0000264000127A00D082000800366E010000214083DE1B43D34D621008B50D4802F0CCF8FFF730FFFFF730FF00221146B2
:400D4000042000F079FC084800F050FD074B1B6893F8513013B1064800F0B8FD00F04CFA08BD00BF346801107CC30008D8D40008E861011008B501F098FC074AD2F88830F4
:400D800043F47003C2F88830BFF34F8FBFF36F8F01F08FFC08BD00BF00ED00E000B583B04FF4FA72234B1A804022234B5A6023499F230B7000234B708B70CB700B71204A3E
:400DC000137053709370D37013711E4B009305231D4801F00DF91D4B1860B8B919491A4801F0B6F91A4B186010F0010F03D10022104B1A8006E0012001F0A0FB0D4A138851
:400E0000013B13800B4B1B88002BE7D140220A4B9A600B4B5B78042B05D1094BDB78262B03D1012002E0002000E0002003B05DF804FB00BFC2D4000800063240C4D40008BD
:400E4000B8D4000808D5000800006640D0D4000880D4000810B582B00C464FF4FA721C4B1A8040221B4B5A601B4903230B70030A4B7088700023CB70184B00930423184A2E
:400E8000184801F0B5F8184B1860B8B91349154801F05EF9154B186010F0010F03D100220B4B1A8006E0012001F048FB084A1388013B1380064B1B88002BE7D14022054B99
:400EC0009A60074BDB782370012002B010BD00BFC2D4000800063240C4D4000808D50008B8D4000800006640D0D4000880D4000800B583B04FF4FA72174B1A804022174B2D
:400F00005A60174906230B70164B009301230022154801F06DF8154B1860B8B91149124801F016F9124B186010F0010F03D10022094B1A8006E0012001F000FB064A138862
:400F4000013B1380044B1B88002BE7D14022034B9A6003B05DF804FBC2D4000800063240C4D4000808D5000800006640D0D4000880D4000830B583B004460D46FFF7B8FF71
:400F80004FF4FA72194B1A804022194B5A60194902230B70230A4B708C70CD70164B009304230022154801F023F8154B1860B8B91149124801F0CCF8124B186010F0010FA4
:400FC00003D10022094B1A8006E0012001F0B6FA064A1388013B1380044B1B88002BE7D14022034B9A60012003B030BDC2D4000800063240C4D4000808D50008000066402A
:40100000D0D4000880D4000838B5044C40256560012001F093FAA560012038BD0006324008B5FFF7F1FFFFF7B9FE08BD08B518B1094AD062002000E0084858B9084B1B78A8
:401040002BB9054801F0B0FF0122054B1A7008B901F0CCFF08BD00BFF082000801001600FCC40008C0F30800B0FA80F0400970471F4B98422DD00CD840282ED003D8E8B174
:40108000102828D02FE0802829D0B0F5807F28D029E0184B984228D006D8B0F1204F0DD0154B984212D01EE0144B98420AD00133984209D0023B984215D101E000207047E2
:4010C0000F4870470F4870470F4870474FF4A0007047074870470D4870470D4870470D487047034870470C4870474FF4A400704706005200010000F0090000A0040000F071
:40110000010052000200520003005200010050000200500005005200FF00520038B5124B1B6893F83130012B04D840F2C3110F4801F028FA0C4B1D682A6AB5F8B0301344E3
:401140002C46D5F8B420D358002B0BDB084B1868FFF78EFF6B6801229A6063689B68002BFBD138BD034838BDD8D400082C64011024C50008020050001A4B186128B102236C
:401180000370FF23437000234380174B1B6893F850202AB300B583B0B3F93830ADF80030002301931149684601F08EF9BDF90030002B08DB590903F01F03012202FA03F3BC
:4011C0000B4A42F82130084B1B6893F8513023B102220849012000F025FC03B05DF804FB704700BF24C50008D8D400087588000800E100E02D89000808B50248FFF7BCFF54
:4012000008BD00BF38C5000838B505460C46FFF729FF002833D0002C33D0FFF7BFFC1A4B1A4A1A6000225A609D60DC60184B1B6893F85220EAB11968D3F88430CA58CB5857
:40124000C3F30721120E531C01FB0333114901FB03F3114A12681149A1FB02218909B3FBF1F101F5195108314FF4807004F0B4FF38BD00214FF4807004F0AEFF38BD0848D1
:4012800038BD074838BD00BF24C5000800010005D8D40008C0EA2101D4820008D34D62100600520008B5FFF739FF08BD10B50446FFF7D8FE00283AD0FFF770FC4FF0E052E7
:4012C0001C4B1A601C4B1B7813F0FF0F04D0194A136843F480731360164B5C6000229A60DA60164B1B6893F85420DAB11968D3F88430CA58CB58C3F30721120E531C01FB24
:4013000003330F4901FB03F30E4A12680E49A1FB02218909B3FBF1F101F69801002004F05BFF10BD0021084604F056FF10BD074810BD00BF24C500080B000016D8D4000832
:4013400060F59000D4820008D34D62100600520038B505460C46FFF785FE00283DD0002C3DD0FFF71BFC4FF0C0621E4B1A601E4B1B7813F0FF0F04D01A4A136843F4807394
:401380001360184B4FF480725A609D60DC60174B1B6893F85320DAB11968D3F88430CA58CB58C3F30721120E531C01FB0333104901FB03F30F4A12680F49A1FB0221890916
:4013C000B3FBF1F101F56171002004F005FF38BD0021084604F000FF38BD084838BD074838BD00BF24C500080B000016D8D40008808D5B00D4820008D34D62100600520073
:40140000002861D0F8B5054600295FD00C460B6833F0FF0303D099212D4801F0B3F8236933F0FF0303D09A21294801F0ABF8A3685B0D5B051BB19B21254801F0A3F8636818
:4014400023F4FF7323F001031BB19C21204801F099F8E36913F0604F03D09D211C4801F091F8236A13F0604F03D09E21184801F089F8184A11688B69EB1ADB0949691B01C3
:40148000C81826682E60166896F87D60E768AF51166896F87E602769AF51166896F87F606769AF51166896F87C60A768AF516668AE61126892F88020A669AE50E269CA50D9
:4014C000236A43600020F8BD034870470248F8BD6C640110D8D4000801005A0038B50B4B1B68D3F8B4301B58002B0DDA0D4604460B0C1B0423B140F2D521054801F042F8B5
:40150000A9B26160002038BD024838BDD8D40008EC64011001008A0038B50368002B01DA002300E0094B73B90D460446C2600B0C1B0423B140F2BB21054801F023F8A9B22F
:40154000A160002038BD014838BD00BF01008A00EC64011038B504460D4619B99921084801F010F8074B1B68D3F8B4301B59002B03DAE3682B60002038BD034838BD00BF23
:401580002C650110D8D4000801008A00254B1B6893F8313083423AD900293AD00B6813F01F0F38D170B50D4604461E4B1B6893F83130984204D340F2C3111B4800F0E2FF2E
:4015C000184B1B68186AB3F8B03004FB0304174E34602A68D2080021686804F0D4FD00212046FFF77BFF346825B940F293310E4800F0C8FF2A4600212046FFF78DFF60B9D1
:4016000000210A4B1868FFF769FF40B970BD084870470748704706487047064870BD054870BD00BFD8D40008EC6401103CC5000803018A0001018A0010B504461346B2B95F
:40164000A9B9124B1B6893F83130984204D340F2C3110F4800F096FF0C4B1B681A6AB3F8B03004FB03240B4B1C60002010BD43B149B1084A51609360111D2046FFF786FFE8
:4016800010BD054810BD044810BD00BFD8D40008EC6401103CC5000803018A002DE9F0411B4B1B68DC68236883422CD90D464609A0EB4610012303FA00F819B900F0F5FFA4
:4016C000074600E00027124B18680368002B01DA002300E00F4B83B9626852F8263018EA030F05D148EA030342F82630002400E0094C0021FFF7F2FE00E0084C25B93846A3
:4017000000F0D7FF00E0064C2046BDE8F08100BF3CC5000801008A00020188000301880004018A002DE9F0411B4B1B68DC68236883422CD90D464609A0EB4610012303FACF
:4017400000F819B900F0B1FF074600E00027124B18680368002B01DA002300E00F4B83B9626852F8263018EA030F05D023EA080342F82630002400E0094C0021FFF7AEFEAD
:4017800000E0084C25B9384600F093FF00E0064C2046BDE8F08100BF3CC5000801008A00020188000301880004018A000B4B1B68DB681A6882420CD94109A0EB41100122E0
:4017C00002FA00F05B6853F82130184203D004487047044870470448704700BF3CC500080101880004018A0000018800024B1B680BB9014B1860704748C500082DE9F84389
:401800000446884691461D46089F2C4B1B681BB9B5212B4800F0B6FE284B1B682C2000FB04F01C18EEB21E50C5F3072363602D0CA560244B1B6893F831309E4204D340F2D7
:40184000C311214800F09EFE1E4B1B68196AB3F8B02006FB02162661666893F832309E4204D340F2DF11184800F08CFE154B1B681D6A803605EB46156561A668330C1B040A
:4018800023B14FF4FF71104800F07CFE330C1B0423B140F2FF110C4800F074FEB3B243EA0646AE60C4F81C90C4F820800023A36117B1B7F90030A381BDE8F88348C50008DD
:4018C0006C650110D8D40008EC640110F0B58FB0044618B95221274800F054FEA369072B03D95621234800F04DFEE36A1BB95821204800F047FE236B1BB959211D4800F02F
:4019000041FE07AD04F114060FCE0FC537682F6002AD26460FCE0FC533682B60164B1B68B3F93620079B1344ADF83030089B0D93A26AE16A0CAD00953B460A98FFF75EFF92
:4019400000210091069B0A460598FFF757FF216B284600F0B9FDBDF93030002B08DB590903F01F03012202FA03F3044A42F821300FB0F0BD6C650110D8D4000800E100E0EF
:40198000F8B506460F461D4614461AB9FD211F4800F0F8FD1E4B1B681BB9FE211B4800F0F1FD1B4B1B682C2101FB063001FB07314B68012202FA03F31B04466802FA06F696
:4019C0000269EAB18F69EFB91268002A01DA002200E0104AC2B92288134323600369DC6001238B614D620469330C1B0423B140F2BB21094800F0C6FDB2B2A2600020F8BD15
:401A00000648F8BD0648F8BD0548F8BD6C65011048C5000801008A00EC64011004028A0007028A00F8B505460F4616460E4B1B6823B94FF4AF710D4800F0A4FD0A4B1B6816
:401A40002C2404FB0534236A23B94FF4B171074800F098FDE369B34204D9236A43F826700020F8BD0248F8BD48C500086C6501100A028A0070B582B000230193044620B92E
:401A800040F2D111284800F07DFD236923B94FF4E971254800F076FD636923B940F2D311214800F06FFD236A23B94FF4EA711E4800F068FD6369DD682A0C20D012041A6057
:401AC0001B682069194B1B68D3F8B430C358002B15DA01A9FFF73EFD60B9019803681E0CDBB2E269934206D2226A52F8233013B1984700E0002631462069FFF7EFFCADB256
:401B000075B16369ADB21D601B68636A1BB198470023636202E0A36A03B198470023A36163691B6802B070BD6C650110D8D4000810B50446074B1B6823B940F2B111064885
:401B400000F020FD034B1B682C2000FB0430FFF791FF10BD48C500086C65011010B50446094B1B689B6CC34013F0010F03D1BE21064800F007FD044B1B681B691034A4028A
:401B8000185900F00F0010BDD8D40008AC65011010B4D0F8003303F00F03072B06D900230DE0D0F84043CC54013300E000239342F7D306E0D0F8404321F813400133934246
:401BC000F8D35DF8044B704710B4D0F8003203F00F03072B06D900230DE0CC5CC0F84042013300E000239342F7D306E031F81340C0F8404201339342F8D35DF8044B7047D8
:401C000002E0C0F84012013A002AFAD1704700BF02E0D0F8403301390029FAD1704700BFF8B506460D46036813F4006F01D0802400E04024D6F80832C3F30803E41A6B69D0
:401C40009C4200D91C46AA692244AA611B1B6B612F6977B1224639463046FFF7B5FFD6F8003203F00F03072B00D9640027442F6105E022464FF6FF713046FFF7C1FF6B698D
:401C8000BBB92B6843F002032B60D6F8883F23F0010423F4EE6323F0030323B140F23641044800F06FFCC6F8884FEB690BB101209847F8BDEC650110F8B506460D46D0F838
:401CC0000843C4F308048B68A34200D21C46EA682244EA601B1BAB606F6877B1224639463046FFF755FFD6F8003303F00F03072B00D9640027446F6003E021463046FFF77C
:401D000087FFAB6883B9D6F8C83F23F0010423F4366323F00D0323B140F2A631194800F031FCC6F8C84FF8BD326A002A07DA326812F4006F01D0802209E0402207E0326834
:401D400012F4006F01D0802200E0402252089A4216D95C1E336813F4006F01D0802300E040239C4204D34FF42371064800F00AFCD6F8043323F0FF02E3B21343C6F8043309
:401D8000F8BD00BFEC650110002800F02481F8B50546002900F0218117460C460B78012B03D93F218F4800F0EDFB6378012B07D9052B05D0022B03D040218A4800F0E2FBA8
:401DC000A378032B03D94121864800F0DBFB2378012B07D16368023B0E2B03D94321814800F0D0FBA36933F00F0303D044217D4800F0C8FBA368043B0C2B03D945217948AF
:401E000000F0C0FBE368043B0C2B03D94621754800F0B8FB6378022B07D0A268E3689A4203D047216F4800F0ADFB636A33F06D0303D049216B4800F0A5FBE36A33F0730333
:401E400003D04A21674800F09DFB236B33F4206303D04B21634800F095FB6378A678052B07D8DFE803F0060305060603022600E00026A368082B04D8E368082B03D90023A7
:401E800002E0002300E0012313B14FF4006200E00022237F13B14FF4807300E000231A436368013B03F00F03134343F080732B60226A2B6813F4006F01D0802300E0402353
:401EC0009A4203D35821474800F05CFBA26A2B6813F4006F01D0802300E040239A4203D35921404800F04EFB237D0BB9012100E000216278052A01D1022300E000230B4350
:401F0000E17C09B1102100E000210B43617C09B1202100E000210B432178012902D14FF0004100E000210B43B60006F00C063343A169090201F470610B43120602F0407265
:401F400013432B62237C13B14FF4807200E00022A37C13B14FF4007300E000231A43A368013B03F00F031343C5F8003394F82030C5F80433237C13B14FF4807200E00022EF
:401F8000E368013B03F00F031343C5F8003294F82830C5F80432636A03F06D03C5F8C83FE36A03F07303C5F8883F236B03F40073C5F8003F236B03F40063C5F8403F002310
:401FC000C5F8C83E5FB118463B60BB61FB60FB61054B3B62F8BD054870470448F8BD0020F8BD00BF30660110EFCDAB000140AA002DE9F84306460F4690461D46089C24B962
:4020000040F255214E4800F0BDFA226A4D4B9A4204D040F256214A4800F0B4FA4DB127B9B8F1000F03D0002302E0002300E0012323B140F25721424800F0A4FA236813F055
:40204000010F79D1336813F4006F02D04FF0800901E04FF0400901232360276165610023A361C4F80480A560E3604FEA5904336813F4006F01D0802300E040239C4204D33B
:402080004FF43D71304800F07DFAD6F8043223F0FF032343C6F80432336A002B24DA4D4501D9A51E00E0013D336813F4006F01D0802300E040239D4204D34FF4237122480B
:4020C00000F060FAD6F8044324F0FF04EDB22543C6F804530020C6F8080F0123C6F8C83FC6F8883FBDE8F883A54201D9A51E00E0013D336813F4006F01D0802300E0402361
:402100009D4204D34FF423710F4800F03BFAD6F8043323F0FF03EDB21D43C6F804534FF40063C6F8483F2123C6F8C83F4123C6F8883F0020BDE8F8830448BDE8F88300BF20
:4021400030660110EFCDAB00EC6501100240AA000868704738B504460D46D0F8CC3E13F0010F04D00123C0F8C03ED0F8C03ED4F84C3F13F4006F0BD02B6843F400632B6099
:402180004FF40063C4F8403FD4F8403F012300E00023D4F8CC2F12F0200F09D02B6843F020032B602023C4F8C03FD4F8C03F0123D4F88C2F12F0400F09D02B6843F04003E0
:4021C0002B604023C4F8803FD4F8803F01231BB1EB690BB104209847D4F8CC3F13F0010F08D029462046FFF767FD0123C4F8C03FD4F8C03FD4F88C3F13F0010F08D029465C
:402200002046FFF70DFD0123C4F8803FD4F8803F2B6813F0010F0BD0AB684BB96B693BB92B6823F001032B60EB690BB10220984738BD00BF10B504460D4B1B6893F83C30D3
:40224000834204D84FF4A1710A4800F09BF904F1D003094A52F8230000F00700042806D1C03452F8240000F01F0040F4807010BDD8D400087066011000002640B0F5C26FD7
:4022800080F09B80B2F5C26F80F09980B1F1807F80F09780F0B401244C4B1C70FF2805D800F00F000F26374607231DE0B0F5A06F05D200F00F030F260027384614E0C0F334
:4022C0000325B0F5C06F07D20001C4B245EA0403FF260027384607E0030203F470632B4340F60F7600273846FF2A09D81201D2B2104343F4E02347F0F00746F4702620E0E2
:40230000B2F5A06F06D2120402F47022134346F4702616E0140A240404F470241C43B2F5C06F06D2130503F47003234346F47F0607E0120602F07063234346F0706646F45F
:402340007026234A1268156AB2F8B020C2EBC202AA58002AF5DA1D4A527822B11D4AD2F81C25002A1DDA41F61F741B4A146043F63D54043A1460A2F58272D2F8184524EA05
:4023800007073843C2F81805D2F8140520EA06063343C2F814350D4B5960C2F81C15002000E00E480A4B1A68116AB2F8B030C3EBC3030B4400225A6005E008487047074843
:4023C000704706487047F0BC704700BF4CC50008D8D40008000026400801264001004A0070B505460022214B1A70214B1B681A6AB3F8B030C3EBC303D418D358002BF4DA08
:402400001C4B1A6841F61F739A4207D11A4B1A6843F63D539A4203D0002602E0002600E00126164BD3F8202522F07F4000226260D6B1D0B165B90D4B5E684408002502467F
:402440000023E1FB06452046294603F0DBFC70BD064B5A68540800250023E1FB00452046294603F0CFFC70BD002070BD4CC50008D8D4000808012640040126400000264054
:4024800038B50D4B9A680D4B9A420FD10D46044621B940F237110A4800F074F804F11003064A52F8230042F8235038BD1030054B53F8200038BD00BF00ED00E000800008B7
:4024C000F86601100000011048B338B504460D464368072B03D93221134800F053F8B4F900306268002B08DB5201D2B203F1604303F5614383F8002305E003F00F0352019B
:40250000D2B20A49CA540A4B9A680A4B9A4208D12946B4F90000FFF7B3FF002038BD06487047002038BD00BFF866011014ED00E000ED00E0008000080100560010B5044688
:4025400005E0084B186800F0A7F8A4F50044B4F5004FF6D8044B186800FB04F000F09CF810BD00BFEC820008E882000808B5034B1B7800FB03F000F08FF808BDE482000885
:4025800001BEFEE738B50D46044C18220146204603F001FEA5610020FFF7F2FFA08D0008024B1B685B6801229A607047D8D40008044BD3F800085B6813F0FF0F01D040F4B6
:4025C0008020704700002640084B4FF0FF32C3F80028C3F804285B6813F0FF0F04D0034A536823F0FF035360704700BF00002640FEE700BF08B50268254BDA6142681A62A1
:4026000082685A62C2689A620269DA6242691A6382695A63C2699A631E4A916AD963D16A1964516A5964516B9964926BDA64F1EE103A13F0900F27D0026A154B1A65426AB3
:402640005A65826A9A65C26ADA65026B1A66426B5A66826B9A66C26BDA66026C1A67426C5A67826C9A67C26CDA67026DC3F88020426DC3F88420826DC3F88820C26DC3F8C1
:402680008C20026EC3F89020FFF7B2FF08BD00BFA08D000800ED00E00230800803D001300238FCD100BF00BF7047EFF3108072B6704780F3108870474FF0B0539B899BB2A6
:4026C00023B14FF0B0539B899BB201E04FF48073B3F5807F15D1174A13681868D3F89810435823F00F0343F00203435013681968D3F89C208B5823F00F0343F002038B50B7
:40270000704710B40B490B681C68D3F898000A4B1B6823F440732258134343F4407323500B681A68D3F89C3004490968D1505DF8044B7047D8D4000848180016441800163F
:402740004FF0B0539B899BB223B14FF0B0539B899BB201E04FF48073B3F5807F15D1164A13681868D3F89810435823F00F0343F00303435013681968D3F89C208B5823F0A8
:402780000F0343F003038B50704730B40A4803681D68D3F8984009490B6823F440732A59134343F440732B5103681A68D3F89C300968D15030BC7047D8D4000820180016EA
:4027C0004FF0B0539B899BB223B14FF0B0539B899BB201E04FF48073B3F5807F0BD10D4B1B681968D3F898208B5823F4E04343F4C0438B507047074B1B681868D3F8981075
:40280000054B1B6823F440734258134343F4407343507047D8D40008181800164FF0B0539B899BB223B14FF0B0539B899BB201E04FF48073B3F5807F0BD1114B1B681968A9
:40284000D3F898208B5823F4E04343F480438B50704730B40A4803681D68D3F8984009490B6823F440732A59134343F440732B5103681A68D3F89C300968D15030BC7047DC
:40288000D8D400084C18001608B54FF0B0539B899BB223B14FF0B0539B899BB201E04FF48073B3F5807F17D10E20FFF757F94FF0B0535B7813F0FF0F04D04FF0B0535B78CA
:4028C000DBB200E02123222B02D818B9012008BD012008BD002008BD012008BD10B50446012804D940F262710F48FFF74BFE1CB90E4B5869C00F00E000200D4B1B6893F8C4
:4029000044307BB1012C0DD1084B9B6913F0804F05D1064B9B69002B03DA012010BD012010BD002010BD00BF3C67011000002640D8D4000838B5154B1B6893F8443023B395
:402940000D460446072804D940F2CC711048FFF719FE0E4B1B6893F8443023B10D4B9B6903F0070300E00023DBB29C420DD00948826922F0070104F007020A43826125B12E
:402980009C4202D9C820FFF7F1FD38BDD8D400083C6701100000264010B30246C3680BB303680BB330B40579114B03EB85035C682346002103E0934205D019465B69002B55
:4029C000F9D1012000E0002080B124B9084B03EB85056A6000E04A6111610023536105E000207047002070470020704730BC704758C5000850B310B402460479164B03EB68
:402A0000840359680B4602E0934204D05B69002BFAD1002000E00120D0B18A420ED14B6933B10D4A02EB8404636000221A610FE0094B03EB84040023636009E01A695969DA
:402A400051615A6922B11B69136101E0002070475DF8044B704700BF58C5000830B583B004460D46022808D9042806D0032804D040F6B2112848FFF785FD6B1EDBB2012B3B
:402A800008D9042D06D0082D04D040F6B3112248FFF778FD214800EB84004468042D12D0012D1AD111E0A3681D420AD1E3681A6800925B6801932368294668469847174BD1
:402AC0009C61646902E0002000E0002014B3144B9842E8D1012DE6D11CE0022D01D104E01C466369002BFBD103E00C4B9C6904B1246900200CE0A3681D4208D1E3681A68C9
:402B000000925B68019323682946684698472469002CF0D103B030BD3C67011058C50008FF00420070B50546012804D94FF4E0711D48FFF727FD1D4B5B682BB1012100201F
:402B4000FFF78CFF044600E000242CBBFFF7ADFD0646164B5B681BB104210020FFF77EFF134A136923F004031361012D01D030BF07E020BF0D4B1B7803B120BF01220B4BF9
:402B80001A703046FFF795FD084B5B684BB108210020FFF763FF04E002210020FFF75EFF044C204670BD00BF3C67011058C5000800ED00E0FF00420010B5174BDB682BB191
:402BC00001210220FFF74AFF044600E00024E4B9FFF76BFD104BDB681BB104210220FFF73DFF0E4B59680E4A0A4042F01B025A6059680C4A114359605968114359605968AE
:402C00000A435A605B6830BF04E002210846FFF725FF054C204610BD58C50008000026400000FC0F003A0280FF00420008B5FFF73CFD074B5A6807490A4042F468525A6011
:402C40005A68114059605B68FFF733FD08BD00BF00002640FF00FC0FF8B50546012804D940F64C213948FFF78DFC4FF0B0535B7813F0FF0F04D04FF0B0535B78DBB200E08E
:402C800021239CB24FF0B0539B899BB223B14FF0B0539F89BFB201E04FF480770E20FEF75DFF98B9B7F5807F12D1222C12D8284B1B6858684FF21801435823F080722B068E
:402CC00003F0807313434350002604E0214E02E0204E00E01F4EB7F5807F01D1222C02D8B7F5807F2FD01A4B1B6893F83130012B04D840F2C3111848FFF744FC144B1B6846
:402D00001C6AB3F8B0301C44B7F5807F02D125B1124A05E01DB1124A02E0124A00E0124A01212046FEF7F8FB68B9094B1B68D3F8B4301B59002BF8DBE36803F07F43B3F1BC
:402D4000204F00D100263046F8BD00BF3C670110D8D40008040042002C640110010100300300000C010000300100000C70B50446022806D0052804D040F202711E48FFF7C4
:402D800001FCFFF781FDA0B3FFF78FFC0646022C07D10120FFF760FF054678B9FFF78CFC0CE0164A536923F0070343F0030353613420FFF7DBFBFFF731FD0025ADB90F49D3
:402DC0004B6923F0070204F0070313434B61022C02D1FFF7F5FC08E09120FFF7C7FBFFF7AFFC0020FFF738FF05463046FFF761FC00E0034D284670BD3C67011000002640E3
:402E000003004200F8B50446012804D94FF402612A48FFF7B7FBFFF737FD00284AD0FFF744FC07468CB9002147F63073244AD1504FF0B05393F84067F6B20120FFF70CFF8E
:402E40000546D8B9FFF738FC18E01E4B19681C4A47F63073D1504FF0B05393F84167F6B24FF61C71535823F01F0343F00B0353500320FFF77BFBFFF7D1FC0025B5B9104912
:402E80004FF61C728B5823F01F0306F01F061E438E5014B9FFF794FC08E00720FFF766FBFFF74EFC0020FFF7D7FE05463846FFF700FC00E0044D2846F8BD00BF3C67011067
:402EC000000026401018001603004200014B1860704700BFD8D4000838B5012902D0082942D047E0284B1B78012B45D00320FEF75DFC264B984241D001F088FE01283FD0E5
:402F0000022004F0BAFF0546FFF7CFFB204B186027F016FD0446062815D0022D09D1022013F07EFE032C01D0052C0ED178B1194C12E0012013F074FE022C0AD058B9FFF76E
:402F4000F1FD144C08E0002406E0124C04E0002402E0104C00E00F4C0E4B9C4211D10C4B1868FFF7A6FB0CE0094B1868FFF7A1FB002406E0074C04E0064C02E0054C00E0B3
:402F8000044C204638BD00BFDFD400080101880094C50008FF00420008B50248FFF72AFD08BD00BF3085000890B110B5094A5060C36A03B193600024074B1C70074B1C709E
:402FC000074B1C60074B1C7000F08CFB204610BD0548704794C50008ECD40008F0D40008F4D40008F1D400080100160070B59AB03C4D15AC28686968AA68EB680FC42869EB
:4030000020604C22002102A803F0BDF8364B029315AB049342F6C843ADF8143005238DF81630FB23ADF82030ADF8223003238DF8243004238DF8253006238DF82630102362
:403040008DF827308DF829306323ADF84C3001238DF850302548FFF79FFC04F000FF04F005FF08A804F06EFF0346002837D1204B0393204B5B68996B89B10B460DF12A026B
:4030800020311E685D689C68D868166055609460D060103310328B42F3D11B88138002A804F0F8FE0346B8B90122134B1A700023124A1370124A13700E4B5B681A6A009229
:4030C0009B6ADB88ADF804304FF48873ADF8063068460DF041FB034600210A4A116018461AB070BDEC680110F53A011030850008348E000894C50008DFD40008E0D4000807
:40310000E1D40008F4D4000808B505F0D3FA08BD014B9867704700BF00F03D4008B51AF0F5FD034B1B680BB100B1984708BD00BFA0C5000848B108B5B1F5FD7F07D20A46C8
:40314000044902F0FAFF002008BD03487047024808BD00BF07080016010016002DE9F04FADF5077DB1F1805F03D38D189D4CA54210D9B1F1A05F03D38D189B4CA54209D92A
:403180009A4CA14240F20F818D1804F20124A54200F20E81049317460E468046944B5B6913F0804F10D0924B5C6904F00704022C24D10520FFF7DAFD00908E4B9842F8D038
:4031C00002940123039323E04FF61C73884AD35803F01F034FF0B05292F84027D2B2D31A18BF012303937BB90120FFF70BFE814B9842F9D000900523029309E002940123AF
:4032000003930023009303E00523029300230093794B009A9A4204D140F2D5117748FFF7B1F906F17046730A01935C0200210320FEF734FA0028F9D10546824683E0B44285
:4032400013D3BD4211D218F805200DF1180E0EF8032041B904F180521278D2B218F805E0724500D00121013506E004F1805212780DF1180E0EF803200134013301E0002172
:403280000B46B3F5007FDAD3002959D0009B002B56D1049B002B48D14FF0C80B05955D46DDF804B00BF500294FEA49294846FDF7FDFF8246013D0120FFF758F90AF4A4038A
:4032C000B3F5A40F01D1002DECD1059D4C4B9A4505D1FDF7E7FF4B4B9842FAD08246BAF1000F17D14FF0C80B5B46A3461C4606A94846FEF72DF88246013C0120FFF736F9AB
:403300000AF4A403B3F5A40F03D1002CEFD15C4600E05C463A4B9A4511D1FDF7C3FF394B9842FAD0824601200AE0019B03F5002006A94002FDF768FF8246012000E00120C8
:40334000019B01330193009B23B9BAF1000F01D1BD4294D308B1FFF723F900210320FEF7E1F90028F9D1009B33BB214B5B6913F0804F09D0029B022B06D10220FFF7F6FCA1
:4033800000901C4B9842F8D0194B1B6813F4000F12D1039B83B90020FFF734FD0090154B9842F8D008E000230093DFF86CA003E000230093DFF860A0009B63B9124B9A45FD
:4033C0000BD004339A4508D0BAF1000F01D1002004E00E4802E00E4800E00E480DF5077DBDE8F08F0000101000800014FF070016000026400400420003004200006A0110CA
:403400000100500002005000020052001300160012001600010016000600520048B108B5B1F5FD7F07D20A4601230449FFF796FE08BD03487047024808BD00BF070800161F
:403440000100160070B5C0B006460C4615464FF480720849684602F070FE05E016F8012B6A401DF80250013C002CF7D1284640B070BD00BF00690110002070470288AE23BC
:4034800003FB02F3A3F26F33024AA2FB0323DB080B807047CDCCCCCCB0F9002042F64B0303FB02F3044A82FB0302DB17C3EB2233C3F1BD030B807047AD8BDB68002070476E
:4034C00008B513F0D3F908BD08B5FFF74FF808BD084B1B685B6BB3F90030002B08DB590903F01F03012202FA03F3034A42F82130704700BF98C5000800E100E00A4B1B685E
:403500005B6BB3F90030002B0DDB5A0903F01F03012101FA03F32032044941F82230BFF34F8FBFF36F8F704798C5000800E100E0024BD3F8000500F00300704700002640D7
:40354000024BD3F81C05C00F704700BF0000264008B5FEF745FF08BD70B504460D4616460320FEF723F9054B984205D0324629462046FEF783FE70BD014870BD010188006B
:4035800003004A00431A002BB8BF5B4293422BD310B4194BD3F83C35C3F30903884207D9411A01EB5201B1FBF2F29A1A0FD50AE0091A01EB5201B1FBF2F21A4440F2FE3122
:4035C0008A4202D803E0002201E040F2FF320A4CD4F83C1521F47F7121F00301C2F309000143C4F83C1502E00023D81A7047981A5DF8044B704700BF0000264008B5034B55
:403600001A684FF40041FFF7BDFF08BD4885000810B501F0AFF90220FFF77AFD0A4C23680A49586BFEF750FF23685B6BB3F90030002B08DB590903F01F03012202FA03F349
:40364000034A42F8213010BD98C500081D31011000E100E00420704708B5FFF726F808BD08B5FFF726F808BD08B5FFF75BFA08BD08B50021FFF75EF908BD00BF704700BF27
:40368000704700BF002070470048704711001600004870471100160000487047110016000048704711001600004870471100160000487047110016000048704711001600B3
:4036C0000048704711001600004870471100160000487047110016000048704711001600704700BF08B5034800F078FE024800F081FF08BD2085000828850008F8B5022896
:4037000072D8002972D10022134606E03B4CE45C012C01D90132D2B20133002BF6D0012A0CD1374B1B681C6801EB8102930023445B681B79023BDBB2012B59D8314B1B7841
:40374000002B57D1304B1970E0B92D4F3C68236801EB8105AA009D186668C1EBC1014B001E44B18829822168114449686468E45A0C8039680C682244526849680B445B88D3
:4037800053801EE001281CD11D4F3C68236801EB8105AA009D186668C1EBC1014B001E44B1892982216811444D68616819440989298039680C682244526849680B445B89DB
:4037C0005380124B18700E4B1B6818680E4B1B7803EB83039A00104408F048FB034650B90121084A117006E0094B04E0084B02E0084B00E0084B1846F8BD00BFE0D400087E
:4038000098C50008E1D40008DED40008F1D400080100160002001600FF00160070B439B9144B1B681B689968CE7F00231D460EE0104B1B681B68D968CE7FF6E7CA5C52B169
:403840000133CC5C1B2C01D0134400E00125B34201D2002DF2D05DB101338279CA54002204E0D4180134855C0D550132052AF8D970BC704798C5000870B504460CF0B8FF5E
:403880000546D0B90E4B1968086A228902EB82029300143B03445A6812F0007F0DD0E67B1B695A68CB69D21A06EB8606B318A28821680448184402F040FC284670BD00BF91
:4038C00098C50008E4D4000830B587B002891A4B1B685B699B889A4229D1044601AB07C883E807000022ADF81020A289ADF8122040228DF814201846FFF7BEFF054680B977
:4039000023681B7803F002039BB22BB10B4B1B6821460B48984704E0084B1B68214609489847094A137803F0FE03137000E00025284607B030BD00BF98C500089CC500088C
:403940000500010006000100ECD4000838B50289531E9BB2152B1AD8C17BD1B90E4B1C68256A02EB82029300143B2B445A6812F0007F09D01B695A68E369D31A01EB81010D
:403980001944064B5B5A13800CF000FF38BD012038BD012038BD00BF98C50008E4D400084288531E9BB2152B1AD84178D1B910B40F4B1868046A02EB82029300143B23444E
:4039C0005A6812F0007F0FD01B695A68C369D31A01EB81011944074B5B5A1380002004E0012070470120704700205DF8044B704798C50008E4D4000800B583B00023ADF8DD
:403A000004308389ADF800300389ADF8023012238DF80430084B1B7813F0010F09D129B18DF8051068460BF0B7FF02E0C0680BF0E1FF03B05DF804FBECD4000810B40446B8
:403A400088B10023194606E0114A52F82320944200D1012101330E4A127A934206D20029F2D0002003E000210A4800E0002058B951B9074B1B7A012B05D8054A42F82340D7
:403A80000133137200E004485DF8044B704700BFF8D40008010016000300160070B506460D460020044606E0084B53F824302946304698470134054B1B7A9C4204D2044B1C
:403AC0001B7813F0010FEFD170BD00BFF8D40008ECD4000883792BB100207047C25C32B9013300E00023052BF8D9002070470120704700BF70B58AB004460D46BC4A1378ED
:403B000043F00103137044F20803984200F015823AD843F20103984200F0DF8019D841F20203984200F0158108D8B0F5805F77D041F20103984200F00981CBE241F2030310
:403B4000984200F03F8142F20403984200F0D480C0E244F20403984200F0688109D843F21203984200F0B98043F2190398424ED0B0E244F20603984200F0E38144F207031A
:403B8000984200F09381A5E245F20C03984200F059821BD845F20103984200F011820AD844F20A03984200F07E8144F21003984200F07C818EE245F20203984200F01E8216
:403BC00045F20303984200F0328283E245F21003984200F072820AD845F20E03984200F0668245F20F03984200F0648272E245F21703984200F0678246F20103984200F06A
:403C0000DC8145F21403984240F0648258E2084604F0DCFA764A137803F0FE03137059E2744B1E683046FFF755FF60B1304609F03FFA704E00213068FFF7F0FD01213068C8
:403C4000FFF7ECFD37E06C4B1A68936A1B791BB34FF0B05191F8043603F03F0391F8050600F03F0043EA801391F8030600F01F0043EA003391F8001601F07F0143EA414339
:403C8000126B13705C4A1168096BC3F3072048701268126B1B0C9370574E3368186B09F007FA33680021186BFFF7B8FD33680121186BFFF7B3FD504B1B68986A023009F0E3
:403CC000B9FE4E4A04AB1068516803C304A809F013FA02224A4B1A70FCE10023484A1370484A1370484A137043F212039C4240F0F181FFF751F9EDE1444B1B6813F0010F9E
:403D000040F0E8810023ADF810308DF812303A4E33689B6A93F900308DF8103004A809F005FA33689B6A93F901308DF8103001238DF81130FF238DF8123004A809F0F6F945
:403D4000324A136843F001031360C3E1FFF7A6FEC0E149782E4B1B88ADF81030002319E02C4A32F81320ADF808209DF8092012B92948825C00E00022012A0AD9254A12F8E4
:403D80001320914205D1234A32F81330ADF8103002E00133002BE3D09DF81130FF2B05D104D140F2CA311D48FEF7ECFBBDF81030ADF81C30ADF81830C3F307232978184AA5
:403DC000D15487E10B78002B40F084810B7A43B9144B1022DA804FF488729A80124A1A604B60034A137803F0FE03137072E100BFECD400084C85000898C500083C6A0110F1
:403E0000DFD40008E1D40008B4C50008F4D40008446A0110DCD40008E0D40008486A0110F0D40008BCC50008FCBA0008CB78002B40F050814979B04B1B88ADF810300023D9
:403E400019E0AE4A32F81320ADF80C209DF80D2012B9AB48825C00E00022012A0AD9A74A12F81320914205D1A44A32F81330ADF8103002E00133002BE3D09DF81130FF2BAA
:403E800005D104D140F2CA319E48FEF77BFBBDF81030ADF82030ADF81030C3F307230121994AD15416E1FFF7F9FD13E1AB7E002B3FD12B7E012B02D10022944B1A70E97E2B
:403EC0008D4B1B88ADF80C30002319E08B4A32F81320ADF810209DF8112012B98848825C00E00022012A0AD9844A12F81320914205D1824A32F81330ADF80C3002E0013310
:403F0000002BE3D09DF80D30FF2B05D104D140F2CA317C48FEF736FBBDF80C30ADF82430ADF80C30C3F30723FF2B02D0297E784AD1540222774B1A70CCE00222754B1A7026
:403F4000C8E0FFF7ABFD744B1B7813F0010F00F0C1806E4B1B78012B03D102226B4B1A70B8E0032B03D10022684B1A70B2E0022B40F0B0800022654B1A70684B1B685B6848
:403F8000674A1178C1EBC10203EB42039A79002A00F0A0809B88002B00F09C80614B1B78002B40F097800120FFF7A8FB002840F091800122554B1A708CE0FFF76FFD89E026
:403FC0000B88ADF800309DF801301BB902214C4AD15405E023B940F286314A48FEF7D2FA6A782988454B23F812106B7800214E4AD15429462046FFF751FD6BE00B88ADF827
:4040000004309DF805301BB900213D4AD15405E023B940F286313B48FEF7B4FA6B780021394AD15429462046FFF738FD52E00B88ADF810304FF40073ADF8123004A80BF077
:40404000B7FC47E00846FFF73FFC014620B929462046FFF723FD01462846FFF7CDFC2E4B1B7813F0110F04D0304B1B682946204698472A89284B1B7813F0010F11D0531E95
:404080009BB2152B0DD912238DF81430ADF81220AB89ADF8103001238DF8153004A80BF07BFC1D4A137803F0FE03137012E0FFF7F5FC0FE0FFF7F2FC0CE0FFF7EFFC09E0C8
:4040C000FFF7ECFC06E00846FFF76AFC29462046FFF7E4FC104B1B7813F0110F09D00E4A137803F0FE031370104B1B682946204698470AB070BD00BF446A0110DCD40008B4
:40410000E0D40008486A0110B4C50008E1D40008B8C50008DFD40008ECD4000898C50008DED40008F1D40008F0D400089CC5000808B50A4B1B687BB102681189084A126808
:4041400012685288914207D1014606489847064A137803F0FE03137008BD00BFC8C5000804D500082D010100ECD4000808B50A4B1B687BB102681189084A126812685288A4
:40418000914207D1014606489847064A137803F0FE03137008BD00BFC8C5000804D500082E010100ECD4000810B588B0034603AC07C884E807000022ADF818209A89ADF89E
:4041C0001A2040228DF81C20254A1268002A45D01C461A89234B1B681B6899888A4226D1214A1268116A5A8802EB82029300143B0B445B6813F4801F13D003A8FFF73CFBD5
:4042000078B923681B7813F0010F05D0144B1B6800211648984704E0114B1B68002114489847144A137803F0FE03137016E05B889A4213D1A389ADF8043000238DF806300C
:40424000029403A8FFF718FB054B1B6801A90A489847084A137803F0FE03137008B010BDC8C5000804D5000898C50008290101002A010100ECD400082C01010030B589B027
:40428000034603AC07C884E807000022ADF818209A89ADF81A2040228DF81C202A4A1268002A4AD01C461A89284B1B681B6899888A4229D1264A1268116A5A8802EB820251
:4042C0009300143B0B445B6813F4801F15D003A8FFF7D2FA054688B923681B7813F0010F05D0194B1B6800211A48984706E0164B1B6800211848984700E00625174A1378D6
:4043000003F0FE0313701BE05B889A4217D1A389ADF8043000238DF80630029403A8FFF7ABFA0546084B1B6801A90D4898470B4A137803F0FE03137002E0002500E0002543
:40434000284609B030BD00BFC8C5000804D5000898C50008290101002A010100ECD400082B01010010B50C4680B2A0F5A0400C38042829D8DFE800F01F28120803000846AB
:40438000FFF7F4FE002010BD134B1B7813F0010F1CD00846FFF7CCFE002010BD0846FFF793FA0D4B1B7813F0010F11D02046FFF7FBFE002010BD084B1B7813F0010F09D079
:4043C0000846FFF75BFF10BD002010BD002010BD002010BD002010BDECD4000850B108B5054A106043680BB1044A13600448FFF725FB08BD0348704704D50008C8C5000892
:404400006543011001001600044B1860044B1B6813B158600020704702487047C8C5000804D5000802001600F0B589B0ADF80400002954D10C46194615462C4B1B681A6AD2
:404440002B4B1B681B6803EB8403588800EB800080001438104403695E682A46304601F06CFEBDF80430ADF80C30C3F3072313B9204AD35C00E00023012B32D99DF805107A
:404480001A4B1F683A6A1A4B1868036803EB84039B8803EB83039B00143B13441B695B68FA699B1A01EB8101134A1144CB5C13F0010F18D000230593069307930496ADF801
:4044C0001450036803EB84046388ADF81830BDF80430ADF81C3004A80BF07EFA04E0074802E0074800E0074809B0F0BD98C5000804D50008E0D40008E4D4000801001600D4
:40450000FF001600170016001C4B1B68002B34D01A4B5B681B685A8803899A422DD18388012B2AD103681B78022B26D810B588B0044603AB07C883E807000022ADF818209D
:40454000A289ADF81A2040228DF81C201846FFF793F980B9A389ADF8043000238DF806300294064B1B6801A905489847054A137803F0FE03137008B010BD7047CCC50008AC
:40458000BF000100ECD4000800B587B000238DF81730009301930293039304930123ADF80430074B5B681B685B88ADF808300DF1170300936846FFF75FF907B05DF804FBA8
:4045C000CCC50008B0F5803F11D208B583B245F20202934207D045F20E02934205D10846FFF792FF01E0FFF7CFFF002008BD0020704700BF50B110B5064C60600648FFF7FF
:404600001DFA63685B681BB1236010BD0348704710BD00BFCCC50008C545011001001600044B18605B6813B15860002070470248704700BFCCC5000802001600DAB113462E
:40464000D8B901291BD100B587B0002202920392049205920193ADF808100B4B5B681B685B88ADF80C3001A8FFF770F908B1074807E0002005E00548704704487047034830
:40468000704707B05DF804FBCCC500080100160038B50D4640F4004000040E4BD8614FF47A7403E0013C0120FDF760FF094B1B6C13F0010F01D1002CF4D144B1054B1A6CFD
:4046C00042F001021A64DB6A2B80002038BD024838BD00BF00003C400400160010B50F4B03EA004001430E4AD1614FF47A7403E0013C0120FDF73AFF094B1B6C13F0010FC7
:4047000001D1002CF4D134B1054A136C43F001031364002010BD034810BD00BF0000FF7F00003C400400160070B582B005460A244FF4C05141F60260FFF7D0FF034630B9C9
:404740000DF1060141F60260FFF7A2FF03460CB1013C00E0714B23B9BDF80620B2F5C05FE6D13BBB0DF1060141F60360FFF790FF0346F8B9BDF8062002F4806292B2CAB963
:404780000A244FF4806141F60360FFF7A7FF034630B90DF1060141F60360FFF779FF03460CB1013C00E05D4B23B9BDF80620B2F5806FE6D133B90DF1060141F60960FFF7DC
:4047C00067FF0346002B43D1BDF8063023F03F039BB2AA78012A12D1E978012904D88EB2C6F1020294B201E00024022643F07003ADF806304A4BCB404A4A136012E0E978BE
:4048000021B98EB2C6F1010294B201E00024012623F0400343F01003ADF80630424BCB40404A1360BDF80610314389B2ADF8061041F60960FFF752FF0346EA78961B06F0B8
:404840000306A20092B23243ADF8062037494A664FF0B052527812F0FF0F04D04FF0B0525278D2B200E02122212A53D0304A128892B2002A4ED033B90DF1060141F607609B
:40488000FFF706FF034643BBBDF8063023F060039BB2ADF8063026490A88C2F3811243EA421323F428639AB2ADF806200B889BB2DB0103F4F063134323F4C0539BB2ADF831
:4048C00006300988C1F3012143EAC121ADF8061041F60760FFF702FF034633B90DF1060141F60660FFF7D4FE03469BB9BDF8061021F0C0018BB2ADF806300D4A1188C1F327
:40490000011143EA8111ADF8061041F60660FFF7E5FE0346184602B070BD00BF040016000048E801D08200080024F40000F03D401618001638B50D4641F2010141EA4001E1
:4049400041F60860FFF7CAFE044630B946F6370141F60F60FFF7C2FE04466801FDF706FE204638BD024A136F43F010031367704700F03D4070B59CB0134C13AD26460FCE46
:404980000FC50FCE0FC533682B600AAD04F124060FCE0FC50FCE0FC533682B6001AD48340FCC0FC50FCC0FC523682B6013A90748FCF726FD0AA90648FCF722FD01A9054825
:4049C000FCF71EFD1CB070BD806A0110000132408001324000023240F8B5002800F0E7800546774B5B6813F4003F01D0FEF71EF9744C03E0013C0120FDF7B8FD724BDB6E0C
:404A00000BB1002CF6D1704BD3F8A03013F0010F06D06D4BD3F8B43013F0010F40F0C980694BDB6E002B40F0C680FFF7A3FF674901F5F833664AC3F8A4202A7842F4202245
:404A4000C3F8A8204FF00112C3F8AC20D1F8003113F0010F40F0B1805B4B1B6F13F0080F0AD15C4B1B685C4A934207D95B4AA2FB03231B0D013B02E0012300E00023534A50
:404A800012681BB1564941EA433300E0554B13434E4A13604A4B5B6913F0804F13D001210320FDF747FF464B5B69C3F380734E4A126892F844206AB163B1414A936943F01B
:404AC0008043936106E0404AD2F8C43043F00303C2F8C4303C4CD4F8A07047F4403343F03003C4F8A0304020FDF740FDD4F8B03013F0010F0BD10123C4F8B0304020FDF7A6
:404B000035FD0323C4F8B0304020FDF72FFD27F4803727F0100747F4003646F020062A4BC3F8A0604FF4FA6403E0013C0120FDF71DFD44F210032D4AD35813F0100F01D135
:404B4000002CF2D10CB1002400E0294C1CBB1E4A936E43F0080393660120FDF7BFFE18B947F4003646F0280626F4802343F00103154AC2F8A030134E03E0013E0120FDF7AC
:404B8000F5FC114BD3F8B43013F0010F01D1002EF3D106B9164C1CB92846FFF7C5FD044664B929786878FFF7C5FE044606E0114C04E0114C02E0104C00E0104C2046F8BD02
:404BC00000002640F07E0E0000F03D4000003C4006000001D882000800093D0083DE1B43041A0080040A0080D8D400080000324004001600010016000300160002001600C8
:404C0000014B1868704700BFD082000810B5002405E02046FDF70EFB032804D00134042CF7D9002010BD012010BD00BF074BD3F8003503F00303012B03D0032B03D101206C
:404C40007047012070470020704700BF00002640704700BF04307047063070474078704704310844704700BF10B504460846FFF7F3FF235C172B01D1012010BD002010BD42
:404C800001230370704700BF4170704710B504460846FFF7E1FF1723235410BD0431002303E00139425C13449BB20029F9D1584280B27047002353600B600148704700BFA1
:404CC00005001A0082B000680190019802B0704710B483B0044602AB43F8042D1868605003B05DF8044B704782B00388ADF80630BDF8060002B0704708B50230FFF7F4FF3C
:404D000008BD00BF10B504460846FFF7A3FF2044FFF7EAFF10BD00BF062821D90B78012B20D170B50D4604460846FFF7E5FF0646C31D9C4218D3B3F5047F17D801462846B5
:404D4000FFF792FFA0B131462846FFF7DBFF044631462846FFF7A2FF84420BD1002070BD0548704704487047044870BD034870BD014870BD024870BD04001A0003001A00D1
:404D800008001A0008B50123136008230B600021FFF766FF0246024B03CB1060516008BDEC6A0110F0B583B005460E4617461848FFF74EFF01902846FFF79EFF00233360FC
:404DC00058B9019B0BB9002400E0124CE4B93A4631462846FFF7D6FF16E0042801D006280FD100212846FFF73BFFFFF76BFF019B984208D13A4631462846FFF7C3FF002463
:404E000002E0044C00E0044C204603B0F0BD00BF0403020103001A0004001A00B0B170B50446A9B1B2B10E68F018B0F5047F13D820461D4613460C462A461946304401F080
:404E40007CF923682B442360002070BD03487047024870BD014870BD014870BD0F001A0003001A002DE9F041074688461446FFF743FF064654F8045B0021C8F800103846EE
:404E8000FFF7EEFE3346024621462846FFF7C6FFBDE8F08182B002AB43F8042D1B88435202B0704708B50A460221FFF7F3FF08BD38B5044615460846FFF7CCFE2A46014689
:404EC0002046FFF7E7FF38BD024610B119B1002002E0044800E0034810B9002313604B60704700BF0F001A0008B50446012804D940F26B110848FDF745FB084B1C70BFF3B6
:404F00004F8F0749CA6802F4E062064B1343CB60BFF34F8F00BFFDE7346B0110FF00000800ED00E00400FA0570B504460E461546012804D94FF4F1710848FDF723FB0848D2
:404F4000FFF786FE00EBC40316B150F8342032600DB15B682B60002070BD00BF346B011000FA0F1008B50248FFF772FE08BD00BF0000000038B50546144600230B60FFF728
:404F8000BBFE04280BD100212846FFF769FEFFF799FE234601220021FBF758FD00E002480023636038BD00BF03001A0030B583B004460D4602A9002341F8043D13460A463C
:404FC0004FF40471FBF7CEFD054B984201D101232B7018B921460198FFF79EFE03B030BD40001A0030B583B00C460192C5B20846FFF746FE29462046FFF746FE0199204619
:40500000FFF750FF019D29462046FFF747FE024629462046FFF74CFF01992046FFF736FE02AA52F8041D962307312046FBF79EFD03B030BDC1B110B40C464FF0FF3310F859
:40504000012B534003F00F020B4901EB8202926882EA131303F00F0201EB82018A6882EA1313013CEBD103E04FF0FF33D8437047D8435DF8044B7047EC6A0110F0B583B052
:4050800004460F46012804D940F2A1210B48FDF779FA6A4601A92046FFF746FF044650B9019E009D3A4629463046FFF7C3FF7359984200D0024C204603B0F0BD346B0110BC
:4050C00002001A0070B506460D461446FFF714FE00232B60042801D001280BD100213046FFF7BEFD0078012806D82146FFF7C6FF044602E00A4C00E00A4C14B1094B9C4226
:405100000BD100213046FFF7ABFD0CB9012300E00023037001232B600024204670BD00BF03001A0002001A0070B504460E460948FFF78EFD05463246011F2046FFF77AFF54
:405140002C4454F8043C984201D1002070BD024870BD00BF0002000002001A002DE9F84F0E461746054608B1002400E0244C2CB92846FFF7C1FD042800D0224C94BB00217F
:405180002846FFF76DFD8146FFF7AEFD804602212846FFF765FDFFF7A7FD804524D8C8EB0005EB1DB3F5047F21D81748FFF750FD82461648FFF74CFD834639465046FFF7F0
:4051C000B3FF044630B93B46002259465046FBF78DFC044674B939682A464144484600F0B7FF08E0002506E00025094C03E00025074C00E0002535602046BDE8F88F00BF83
:405200000F001A0003001A0000FA0F100002000004001A002DE9F04780460F461446154655F8049BFFF768FD00233B60072834D9064619464046FFF713FDFFF743FD0746D7
:4052400004214046FFF70CFDFFF73CFD824608214046FFF705FDA6F10803024629464846FFF7DCFD054638B9224661684846FFF7E1FE824500D00C4D35B92346022261682C
:405280003846FBF7E3FB054645B92346012261683846FBF72BFC054600E0044D002363602846BDE8F08700BF08001A0003001A002DE9F04780460F461446154655F8049B78
:4052C000FFF71AFD00233B6007282DD9064619464046FFF7C5FCFFF7F5FC824604214046FFF7BEFCFFF7EEFC074608214046FFF7B7FCA6F10803024629464846FFF78EFDCF
:40530000054638B9224661684846FFF793FE874200D0094D5DB92346012261685046FBF7E5FB054610B902E0044D00E0044D002363602846BDE8F08708001A0003001A0002
:4053400002001A002DE9F04F83B00646884691461D461BB1012803D8002402E0234C00E0224C7CB92248FFF773FC01902148FFF76FFC07462B46002201460198FBF7B6FBE0
:40538000044601E00027019764BB2868F6003044FFF798FC8346286806F1040A5044FFF791FCC34501D148451CD0424631462868FFF78EFC4A4651462868FFF789FC2C68C3
:4053C0003E1F2A4631462046FFF734FE024631462046FFF77DFC2B46002239460198FBF735FB0446204603B0BDE8F08F0F001A0000FA0F1000020000F8B50446154600233A
:405400000B60FFF779FC092801D1002000E00E48C0B900212046FFF723FC067801212046FFF71EFCFFF74EFC074605212046FFF717FCFFF747FC2B46024639463046FFF713
:4054400081FF2E61F8BD00BF03001A0010B50C46114631381B2841D8DFE800F01D4040402F402A404040403B4040404040404018404022400E1340361A462046FFF7CAFE1C
:4054800010BD1A462046FFF713FF10BD1A462046FFF770FD10BD1A462046FFF713FE10BD0122029802701A462046FFF7DBFC10BD1A462046FFF7D6FC10BD00225A6001230A
:4054C000029A1370084810BD1A462046FFF794FF10BD1A462046FFF741FE10BD1A462046FFF7E8FB10BD00BF0F001A00F0B585B006460C468F68002303938DF80B30CB681D
:4055000023B940F62F112648FDF73CF8236823B94FF413612248FDF735F8A36823B940F631111F48FDF72EF83368012B33D8E2680DF10B013846FFF739FD054610BB384696
:40554000FFF78CFB382807D12346324603A93846FFF728FC054615E03B2805D10223336001238DF80B300DE03368012B09D10DF10B030093234603AA3946FFF767FF0546D3
:4055800000E0084D9DF80B3033B9039A39462846FFF728FD00E0044D284605B0F0BD00BF346B011005001A000F001A0008B502490248FCF7CFFD08BD08D50008000066403C
:4055C00010B5144B1B7883B9134C144A14492046FCF7DAFB236A23F04063236211491248FCF772FF01220B4B1A700F4BB3F90030002B08DB590903F01F03012202FA03F3BD
:405600000A4A42F82130044A136843F00043136010BD00BFD4C500080000664008D500085C6B0110AD5501101C62011000E100E081F0004102E000BF83F0004330B54FEABF
:4056400041044FEA430594EA050F08BF90EA020F1FBF54EA000C55EA020C7FEA645C7FEA655C00F0E2804FEA5454D4EB5555B8BF6D420CDD2C4480EA020281EA030382EA52
:40568000000083EA010180EA020281EA0303362D88BF30BD11F0004F4FEA01314FF4801C4CEA113102D0404261EB410113F0004F4FEA03334CEA133302D0524263EB4303DA
:4056C00094EA050F00F0A780A4F10104D5F1200E0DDB02FA0EFC22FA05F2801841F1000103FA0EF2801843FA05F359410EE0A5F120050EF1200E012A03FA0EFC28BF4CF018
:40570000020C43FA05F3C01851EBE37101F0004507D54FF0000EDCF1000C7EEB00006EEB0101B1F5801F1BD3B1F5001F0CD349085FEA30004FEA3C0C04F101044FEA4452D7
:4057400012F5800F80F09A80BCF1004F08BF5FEA500C50F1000041EB045141EA050130BD5FEA4C0C404141EB010111F4801FA4F10104E9D191F0000F04BF01460020B1FA14
:4057800081F308BF2033A3F10B03B3F120020CDA0C3208DD02F1140CC2F10C0201FA0CF021FA02F10CE002F11402D8BFC2F1200C01FA02F120FA0CFCDCBF41EA0C019040F3
:4057C000E41AA2BF01EB0451294330BD6FEA04041F3C1CDA0C340EDC04F11404C4F1200220FA04F001FA02F340EA030021FA04F345EA030130BDC4F10C04C4F1200220FADD
:4058000002F001FA04F340EA0300294630BD21FA04F0294630BD94F0000F83F4801306BF81F480110134013D4EE77FEA645C18BF7FEA655C29D094EA050F08BF90EA020F79
:4058400005D054EA000C04BF1946104630BD91EA030F1EBF0021002030BD5FEA545C05D14000494128BF41F0004130BD14F580043CBF01F5801130BD01F0004545F0FE4187
:4058800041F470014FF0000030BD7FEA645C1ABF194610467FEA655C1CBF0B46024650EA013406BF52EA033591EA030F41F4002130BD00BF90F0000F04BF0021704730B57B
:4058C0004FF4806404F132044FF000054FF0000150E700BF90F0000F04BF0021704730B54FF4806404F1320410F0004548BF40424FF000013EE700BF42004FEAE2014FEAF2
:4059000031014FEA02701FBF12F07F4393F07F4F81F06051704792F0000F14BF93F07F4F704730B54FF4607401F0004521F0004120E700BF50EA010208BF704730B54FF029
:4059400000050AE050EA010208BF704730B511F0004502D5404261EB41014FF4806404F132045FEA915C3FF4DCAE4FF003025FEADC0C18BF03325FEADC0C18BF033202EB7B
:40598000DC02C2F1200300FA03FC20FA02F001FA03FE40EA0E0021FA02F11444C1E600BF70B54FF0FF0C4CF4E06C1CEA11541DBF1CEA135594EA0C0F95EA0C0F00F0DEF885
:4059C0002C4481EA030621EA4C5123EA4C5350EA013518BF52EA033541F4801143F4801338D0A0FB02CE4FF00005E1FB02E506F00042E0FB03E54FF00006E1FB03569CF0A9
:405A0000000F18BF4EF0010EA4F1FF04B6F5007F64F5407404D25FEA4E0E6D4146EB060642EAC62141EA55514FEAC52040EA5E504FEACE2EB4F1FD0C88BFBCF5E06F1ED804
:405A4000BEF1004F08BF5FEA500E50F1000041EB045170BD06F0004646EA010140EA020081EA0301B4EB5C04C2BFD4EB0C0541EA045170BD41F480114FF0000E013C00F382
:405A8000AB8014F1360FDEBF002001F0004170BDC4F10004203C35DA0C341BDC04F11404C4F1200500FA05F320FA04F001FA05F240EA020001F0004221F0004110EBD37032
:405AC00021FA04F642EB06015EEA430E08BF20EAD37070BDC4F10C04C4F1200500FA04F320FA05F001FA04F240EA020001F0004110EBD37041F100015EEA430E08BF20EABA
:405B0000D37070BDC4F1200500FA05F24EEA020E20FA04F301FA05F243EA020321FA04F001F0004121FA04F220EA020000EBD3705EEA430E08BF20EAD37070BD94F0000FB4
:405B40000FD101F00046400041EB010111F4801F08BF013CF7D041EA060195F0000F18BF704703F00046520043EB030313F4801F08BF013DF7D043EA0603704794EA0C0F26
:405B80000CEA135518BF95EA0C0F0CD050EA410618BF52EA4306D1D181EA030101F000414FF0000070BD50EA410606BF1046194652EA430619D094EA0C0F02D150EA013668
:405BC00013D195EA0C0F05D152EA03361CBF104619460AD181EA030101F0004141F0FE4141F470014FF0000070BD41F0FE4141F4780170BD70B54FF0FF0C4CF4E06C1CEA02
:405C000011541DBF1CEA135594EA0C0F95EA0C0F00F0A7F8A4EB050481EA030E52EA03354FEA013100F088804FEA03334FF0805545EA131343EA12634FEA022245EA1115DC
:405C400045EA10654FEA00260EF000419D4208BF964244F1FD0404F5407402D25B084FEA3202B61A65EB03055B084FEA32024FF480104FF4002CB6EB020E75EB030E22BFA0
:405C8000B61A754640EA0C005B084FEA3202B6EB020E75EB030E22BFB61A754640EA5C005B084FEA3202B6EB020E75EB030E22BFB61A754640EA9C005B084FEA3202B6EBAA
:405CC000020E75EB030E22BFB61A754640EADC0055EA060E18D04FEA051545EA16754FEA06164FEAC30343EA52734FEAC2025FEA1C1CC0D111F4801F0BD141EA00014FF029
:405D000000004FF0004CB6E711F4801F04BF01430020B4F1FD0C88BFBCF5E06F3FF6AFAEB5EB030C04BFB6EB020C5FEA500C50F1000041EB045170BD0EF0004E4EEA11316E
:405D400014EB5C04C2BFD4EB0C0541EA045170BD41F480114FF0000E013C90E645EA060E8DE60CEA135594EA0C0F08BF95EA0C0F3FF43BAF94EA0C0F0AD150EA01347FF47F
:405D800034AF95EA0C0F7FF425AF104619462CE795EA0C0F06D152EA03353FF4FDAE1046194622E750EA410618BF52EA43067FF4C5AE50EA41047FF40DAF52EA43057FF46E
:405DC000EBAE12E74A0011D212F5001211D20DD56FF47873B3EB62520ED44FEAC12343F0004343EA505323FA02F070474FF00000704750EA013002D14FF0FF3070474FF0C3
:405E00000000704753B94AB9002908BF00281CBF4FF0FF314FF0FF3000F07EB9ADF1080C6DE904CE00F006F8DDF804E0DDE9022304B070472DE9F0478C460E460446089D6C
:405E4000002B50D18A4217466CD9B2FA82FEBEF1000F0BD0CEF1200420FA04F401FA0EF644EA060C02FA0EF700FA0EF44FEA1749220CBCFBF9F01FFA87F809FB10C642EA6D
:405E8000064600FB08F3B34209D9F61900F1FF3280F02281B34240F21F8102383E44F61AA2B2B6FBF9F309FB136642EA064403FB08F8A04509D9E41903F1FF3280F00A812C
:405EC000A04540F20781023B3C44C8EB040443EA00400021002D62D024FA0EF400232C606B60BDE8F0878B4207D9002D55D0002185E841000846BDE8F087B3FA83F1002966
:405F000040F09080B34202D3824200F2F880841A66EB03060120B446002D40D085E81010BDE8F08712B90127B7FBF2F7B7FA87FEBEF1000F35D1F31B4FEA17481FFA87FC66
:405F40000121B3FBF8F0220C08FB103642EA06460CFB00F3B34207D9F61900F1FF3202D2B34200F2CE801046F61AA2B2B6FBF8F308FB136642EA06440CFB03FCA44507D95A
:405F8000E41903F1FF3202D2A44500F2B5801346CCEB040443EA00409CE729462846BDE8F087CEF1200106FA0EF307FA0EF720FA01F94FEA1748CE4049EA0309B6FBF8FA57
:405FC0004FEA194408FB1A661FFA87FC44EA06430AFB0CF29A4200FA0EF40AD9DB190AF1FF3180F087809A4240F28480AAF1020A3B449B1A1FFA89F9B3FBF8F108FB1133BB
:4060000049EA034301FB0CF69E4207D9DB1901F1FF326BD29E4269D902393B449B1B41EA0A418EE7C1F1200E22FA0EF48B40234320FA0EF706FA01F44FEA134C26FA0EF659
:406040003C43B6FBFCF9270C0CFB19661FFA83F847EA064609FB08F7B74202FA01F200FA01FA08D9F61809F1FF3041D2B7423FD9A9F102091E44F61BA0B2B6FBFCF40CFB03
:40608000146640EA064704FB08F8B84507D9FF1804F1FF3028D2B84526D9023C1F4444EA0940C8EB0707A0FB02894F4544464E4614D329D065B3BAEB040367EB060707FA2D
:4060C0000EFECB40CF404EEA030385E888000021BDE8F0871346F8E61046E0E6B8EB020469EB03060138E5E70446D8E7114695E78146C0E78A467CE7023B3C4448E70846F5
:406100000AE702383E442FE7C245E7D33E46D1E72946BDE8F08700BF704700BF10B501390244904207D010F8013B11F8014FA342F7D0181B10BD002010BD10B5431E0A4447
:40614000914204D011F8014B03F8014FF8E710BD884210B501EB020301D8421E0BE09842FBD28118D21AD34204D013F8014D01F8014DF8E710BD994204D011F8014B02F829
:40618000014FF8E710BD02440346934202D003F8011BFAE7704710B5034642B111F8014B03F8014B013A002CF7D11A4400E010BD934202D003F8014BFAE710BDF8B500BF1F
:4061C000F8BC08BC9E467047F8B500BFF8BC08BC9E4670470000000001B40248844601BC604700BF858900080300000001000000010000000000000005036000040000009A
:406200000100000000000000010000000604600008000000DCC400088D0B01102E000000070000001800000007000000000003000100160001000028010000000B000000F6
:406240000018000000000000020003280100020003000000002A0000000000000300002A01000201030000000C0000003C830008040003280100020005000000012A000040
:40628000000000000500012A01000201050000000200000044830008060003280100020007000000042A0000000000000700042A0100020107000000080000004C8300084C
:4062C000080003280100020009000000A62A0000000000000900A62A010002010900000001000000548300080A000328010002000B000000C92A0000000000000B00C92A95
:40630000010002010B000000010000005C8300080C000028010000000F00000001180000000000000D000328010020000F000000052A0000000000000E00052A0000200114
:406340000F00000004000000648300080F00022901030A030F000000020000006C83000810000028010000081300000010000000748300081100032801001C0013000000F9
:40638000100000007C8300081200010000031C091300000010010000848300081300022901030A0313000000020000008C8300081400002801000000160000000218000070
:4063C00000000000150003280100040016000000062A0000000000001600062A000304011600000001000000948300081BC5D5A50200F4ABE411CEF8000006001BC5D5A578
:406400000200F4ABE411CEF801000600010003000500070009000B000C000E000F00000010001200130000001400160047656E6572617465645F536F757263655C50536F80
:4064400043365C70646C5C647269766572732F7065726970686572616C2F6970632F63795F6970635F6472762E68000047656E6572617465645F536F757263655C50536F32
:4064800043365C70646C5C647269766572735C7065726970686572616C5C6770696F5C63795F6770696F2E630000000047656E6572617465645F536F757263655C50536F35
:4064C00043365C70646C5C647269766572735C7065726970686572616C5C6770696F5C63795F6770696F2E680000000047656E6572617465645F536F757263655C50536FF0
:4065000043365C70646C5C647269766572735C7065726970686572616C5C6970635C63795F6970635F6472762E68000047656E6572617465645F536F757263655C50536FEA
:4065400043365C70646C5C647269766572735C7065726970686572616C5C6970635C63795F6970635F6472762E63000047656E6572617465645F536F757263655C50536FAF
:4065800043365C70646C5C647269766572735C7065726970686572616C5C6970635C63795F6970635F706970652E630047656E6572617465645F536F757263655C50536F0D
:4065C00043365C70646C5C647269766572735C7065726970686572616C5C70726F745C63795F70726F742E630000000047656E6572617465645F536F757263655C50536FC8
:4066000043365C70646C5C647269766572735C7065726970686572616C5C7363625C63795F7363625F636F6D6D6F6E2E6800000047656E6572617465645F536F7572636522
:406640005C50536F43365C70646C5C647269766572735C7065726970686572616C5C7363625C63795F7363625F7370692E63000047656E6572617465645F536F75726365B6
:406680005C50536F43365C70646C5C647269766572735C7065726970686572616C5C737973636C6B5C63795F737973636C6B2E630000000047656E6572617465645F536F0E
:4066C000757263655C50536F43365C70646C5C647269766572735C7065726970686572616C5C737973636C6B5C63795F737973636C6B2E680000000047656E65726174659F
:40670000645F536F757263655C50536F43365C70646C5C647269766572735C7065726970686572616C5C737973696E745C63795F737973696E742E630000000047656E6568
:4067400072617465645F536F757263655C50536F43365C70646C5C647269766572735C7065726970686572616C5C737973706D5C63795F737973706D2E6300000000204077
:4067800000002440000000400000000000002340000030400000314000009F40000022400000104002020202020202020210101D800017007500FF0306020636041020008B
:4067C000000000007FC0000000040000000000000019324B647D00804000080B100000000000FF012002001F00800004FF081018001000140018001C4044484C5000000048
:40680000081000000800000004000000041000000012000004210000002100000016000040114002C41300138013A013200000001C000000000021400000254000000140AC
:406840000000344000002440000031400000324000001F410000234000001140010101010101010101101010800019005500F0000501053B04101C01010000000FC00000EB
:406880000004000001010101011D3A57789600082000101208000000001F00000010000F002000023F06080E00080009000A000B24282C3034000000100000009000000064
:4068C00088000000080000008000000004F0000000F00000400200002005A000D00100018001A00120000000100000000C0205003000010028000200240002000C000100D8
:4069000000316253C4F5A697B988DBEA7D4C1F2E4372211087B6E5D4FACB98A93E0F5C6D86B7E4D5427320113F0E5D6CFBCA99A8C5F4A796013063527C4D1E2FB889DAEB77
:406940003D0C5F6EF9C89BAA84B5E6D7407122137E4F1C2DBA8BD8E9C7F6A59403326150BB8AD9E87F4E1D2C02336051C6F7A495F8C99AAB3C0D5E6F4170231285B4E7D637
:406980007A4B1829BE8FDCEDC3F2A1900736655439085B6AFDCC9FAE80B1E2D344752617FCCD9EAF38095A6B4574271681B0E3D2BF8EDDEC7B4A192806376455C2F3A091F7
:4069C0004776251483B2E1D0FECF9CAD3A0B586904356657C0F1A293BD8CDFEE79481B2AC1F0A3920534675678491A2BBC8DDEEF82B3E0D1467724153B0A5968FFCE9DACB7
:406A000047656E6572617465645F536F757263655C50536F43365C70646C5C6D6964646C65776172655C626C655C63795F626C655F68616C5F7076742E6300007F0600003E
:406A400000000000FFFF000047656E6572617465645F536F757263655C50536F43365C70646C5C6D6964646C65776172655C626C655C63795F626C655F6761702E68000036
:406A800000000000000000000000000066666666000000000000FFFF000000001C1C1C1C1C1C1C1C00000000000000000000000066E6EE66000000000000FFFF00000000C2
:406AC0001C1A1A1A1A1A000000000000000000000000000066E66666000000000000FFFF000000001A1A001C000000000021F0E221000301000000006FC75E10DE8EBD208D
:406B0000B149E330BC1D7B41D3DA25516293C6610D549871783BF68217FCA892A6B54BA2C97215B2C4268DC3ABE1D3D31AA830E3756F6EF347656E6572617465645F536F12
:406B4000757263655C50536F43365C70646C5C6466755C63795F6466752E6300010000001000000008000000080000000100000000000000000000000000000000000000BF
:406B800000000000000000000000000000000000A5B7011039BC011039BC011039BC011039BC0110B9A001108DA1011039BC011039BC011039BC011039BC011039BC011089
:406BC00039BC011039BC011039BC011039BC011039BC0110CDB9011019BA011049B001104DB2011031B60110858D01100000000014700110B46F0110080000009D31021016
:406C0000000000006C6E0110B86D01100F000000000000000000000000000000000000000000000001200000F9CA0110062000003DCC0110072000000DCB011008200000B7
:406C4000FDCB011009200000FDCC01100A200000F9C901100B200000C1CC01100C20000089CC01101020000055CA011011200000D5C9011012200000D9CB01101420000085
:406C800075CC0110152000006DCA01101720000029CA01100E20000059CA0110ACFD0000CFCE0110ADFD0000C3CD0110A0FD000039CF0110A1FD000023CE0110A2FD0000D1
:406CC0005FCE0110A5FD00002FD00110A6FD000093CF0110A8FD000095CD0110A9FD00006BCD0110AAFD000087CE0110ABFD0000F5CF0110AFFD000085CE0110C3FD00002D
:406D0000E1CF0110B0FD000059CF0110B2FD0000A7CF011005140000B3CA01102D0C00008DCB01107B0C00003BCB01107C0C000031CD011027200F20282010202920102091
:406D40002B200A202C200B202D200D202E200C204E201720000001000100000100010202030002000000000002020100020000010001000501000502020300020000000064
:406D80000002050100050000A9290210112B0210192A021001010B0102028102820503040403840906090709080909090A09050A0C0B0D0D0E0E00000100000001000000D5
:406DC00000000000020000000400000002000000030000000700000005000000040000000A00000008000000050000000C0000000B000000060000000E0000000D00000029
:406E000007000000100000000F0000000800000013000000110000000900000016000000140000000A0000001700000017000000FF00000018000000180000000B0000005B
:406E40001B000000190000000C0000001D0000001C0000000D0000001F0000001E0000000E00000021000000200000000100000069500210FEFFFFFF354F021001000000A2
:406E800069500210060000002D520210F8FFFFFF354F021018001200514F0210A000000CA94C021047FFEDFB354F0210E8000C00A14E021000012000B14D02101FFED3FF7D
:406EC000354F0210A000000C055702105FFFFFFB354F0210000200005D550210FFFDFFFF354F0210000C0000B14B0210FFF3FFFF354F0210000A0000554E0210010000003E
:406F0000754E0210FEF7FFFF354F021000200000F54C0210004000000D560210FF9FFFFF354F0210FFFFFFFF3B4F0210FFFFFFFFAB4B0210008000008D4B02100000010092
:406F40006F4B0210FF7FFEFF354F021000800100334B0210FF7FFEFF354F021000008003154B0210FFFF7FFC354F021000801F0A514B0210FF7FE0F5354F021000000000CE
:406F800000000000000000000000000087000000000000000000000000000000000404000104080002041400030C200004042C0005064800810000000000000000000000E4
:406FC000820000000100000001000000010000000200000002000000020000000400000003000000030000000600000005000000F10000000700000007000000F200000000
:407000000900000008000000FF0000000A0000000A00000002000000955B021001000000955B02100E000000895A021002000000CD5A02100C000000715A021002000000FC
:407040000D5B02100C000000715A02100E000000955B02100C000000D15B021002000000715A02100E000000155C0210F401FA00960064004B0032001E0014000304050639
:40708000020D11009FE00210D9DF021003E7021079E1021023E20210B3E60210C9E602109DE702108DE202103DE3021079E50210A7E50210EFE70210A9E602107FE7021012
:4070C0007FE702107FE702104DE60210F5E5021039E60210BD240310C924031065350310553603106136031077E102109DE0021059E7021021E202104FE20210C1E60210F9
:40710000DFE60210EDE7021039E30210D9E3021093E50210CBE5021067E80210AFE60210EDE70210EDE70210EDE70210A5E60210EDE70210EDE70210EDE70210EDE702105B
:40714000EDE70210EDE70210EDE702100C000800020017000D00010001000200090009000100010006000200090018001800030001000100090009000300030005000000A8
:407180005F01031067010310630103105D010310370103103301031055010310530103102B0103102F0103106B01031057010310510103106F0103106F0103102901031083
:4071C0005B010310791B03107D1F0310211D03108D1A0310E10B031019080310691403100D0F0310B902031025030310CD200310851803109D0E03108D070310ED1303109C
:40720000D964021049190310892103105D250310CD260310A527031071230310D9210310D5240310B9220310FB220310092303100B2303100F2303107FE70210FD22031006
:407240000523031003230310DD3903103D33031019390310BD3803108D3903106D360310713503100D360310D13603108DC402106939031061330310553303105B330310CE
:40728000593303105F330310573303107FE702107FE702107FE7021071B302105D330310E54C0310CF4C0310CF4C0310CF4C0310014D031009A80310CF4C031001A80310CF
:4072C0000DA8031005A803101B510310175103109F5003109B500310DB4C0310CB4C0310C54C0310DF4C031097500310AF500310D74C0310AB500310FD500310CF4C031068
:40730000B3500310A7500310A3500310CF4C0310054D0310094D03100D4D0310D34C0310D34C0310E54C0310CF4C0310CF4C0310CF4C0310014D031009A80310CF4C031039
:4073400001A803100DA8031005A803101B510310175103109F5003109B500310DB4C0310CB4C0310C54C0310DF4C031097500310AF500310D74C0310AB500310FD50031059
:40738000CF4C0310B3500310A7500310A3500310CF4C0310054D0310094D03100D4D0310D34C0310D34C0310997403108D740310A5740310D34C0310D34C031081710310E3
:4073C000BD7103108D710310B1710310A571031099710310C9710310D571031081740310897603108D76031099760310717603107D760310D34C0310D34C0310D34C031032
:40740000D34C0310D34C0310D34C0310D34C0310D34C0310D34C0310D34C0310D34C0310D34C0310D34C0310D34C0310D34C0310D34C0310D34C0310D34C0310D34C03102C
:40744000D34C0310D34C0310D34C0310CF4C0310D34C0310D34C0310E171031093680310016703100167031001670310B96803104B6803100167031031680310FD68031067
:4074800045680310CD680310C368031071660310016703100167031001670310E76503101B68031007660310A5680310A5670310BB6703101B6703100167031011690310A5
:4074C0005D67031049670310016703100168031051690310016703100167031001670310297403101D74031035740310B96703103D670310CD70031009710310D97003108A
:40750000FD700310F1700310E5700310157103102171031011740310297603103576031041760310117603101D760310016703100167031001670310016703100167031038
:40754000016703100167031001670310016703100167031001670310016703100167031001670310016703100167031001670310016703100167031001670310016703105B
:40758000016703100167031001670310016703102D710310B96B0310F16A0310F16A0310F16A0310DD6B0310656B0310F16A0310AB6B0310AB6B0310576B0310F36B031069
:4075C000E16B0310776A0310736A0310456B0310116A0310036A0310036A0310156A0310BD6B03101D6B03102F6B0310F56A0310F16A0310236C03100B6B0310F96A031061
:40760000F16A0310496B03103D6C0310396C0310F16A0310F16A031091730310857303109D730310636C0310FF6903102170031025700310317003103D70031025700310BB
:40764000257003104970031055700310797303103D75031049750310557503102575031031750310F16A0310F16A0310F16A0310F16A0310F16A0310F16A0310F16A0310E4
:40768000F16A0310F16A0310F16A0310F16A0310F16A0310F16A0310F16A0310F16A0310F16A0310F16A0310F16A0310F16A0310F16A0310F16A0310F16A0310F16A0310EA
:4076C000F16A0310F16A03106170031008000000060F0020200107021900000007070E05020220001C1202000103000E030600040040270700000707010200020307030424
:407700000000000000000000000000000000000000000000000000000008000093680310016703100167031001670310B96803104B6803100167031031680310FD68031029
:4077400045680310CD680310C368031071660310016703100167031001670310E76503101B68031007660310A5680310A5670310BB6703101B6703100167031011690310E2
:407780005D67031049670310016703100168031051690310016703100167031001670310B96B0310F16A0310F16A0310F16A0310DD6B0310656B0310F16A0310AB6B0310A4
:4077C000AB6B0310576B0310F36B0310E16B0310776A0310736A0310456B0310116A0310036A0310036A0310156A0310BD6B03101D6B03102F6B0310F56A0310F16A031091
:40780000236C03100B6B0310F96A0310F16A0310496B03103D6C0310396C0310F16A0310F16A031008000000060F0020200107021900000007070E05020220001C1202002D
:407840000103000E032000800000C000000000040000002822000000000000040000F7FFFF7F0000003000000000008000000000000000000000000000000000000000001D
:407880000000000000000000CB6E03106D700310F56F03102F6F03107B70031011700310FF6E031089700310017003102D6F03108D7003100D700310176F03107B700310DC
:4078C00009700310016F03107B70031005700310456F031097700310157003104B6F0310A57003101970031001670310F16A0310D34C031001670310F16A0310D34C0310B3
:4079000001670310F16A0310D34C031001670310F16A0310D34C031001670310F16A0310D34C031001670310F16A0310D34C031001670310F16A0310D34C03100167031045
:40794000F16A0310D34C03105F6F0310B97003101D70031001670310F16A0310D34C031001670310F16A0310D34C031001670310F16A0310D34C031001670310F16A031070
:40798000D34C031001670310F16A0310D34C0310F1710310BD7303106F730310EF710310B37303106B73031023720310ED73031073730310ED710310A9730310677303108F
:4079C00001670310F16A0310D34C031001670310F16A0310D34C031001670310F16A0310D34C031001670310F16A0310D34C031001670310F16A0310D34C0310D1740310A8
:407A00009D75031000000000E5740310AF750310B5370310F3740310D5750310ED370310B17403106175031051340310BF7403107F7503107134031026002B0030003600FC
:407A40003C0043004B0055005F006A00770086009600A800BD00D400EE000B012B014F017801A601DA01130254029D02EE024A03B1032404A5043605D9058F065C074208BA
:407A80004409650AAA0B160DAF0E79107C12BD1445171C1A4B1DDE203030303142383030303130323033303430353036303730383039304130423043304430453046313057
:407AC0003131313231333134313531363137313831393141314231433144314531463230323132323233323432353236323732383239324132423243324432453246333010
:407B0000333133323333333433353336333733383339334133423343334433454142007C010000090000000D0D01120C000000FF03000080ABCDABCD80409C1B04041BFF02
:407B4000FFFFFF000000000410080007070400F216FBE0FBE01F60427EF56D720196BE2090000010502604060037D700000000002DE9F84F00250746ADF80050041D00F190
:407B8000180A4068DFF8F0804FF6FF7B98B1616889B180070FD1207A80070CD19AF8300048B1FBF735FDFBF7A9FCFBF753FD0EF0EBF810B15BE045465BE097F84400C0F363
:407BC000C0100EF057F905460004000C4FD12B49084622F0CFFE0604360C48D1A27A2189206822F085FE68460EF032FF0500A07A00F1060000F0FF092AD14946606800F0D6
:407C000063F8050024D1504600F020FC05001FD1E06820B1384600F02DFA050018D11848184ABDF8003090F8241009EB8100001DC1B29088D288D618B04207D3C01A801AB4
:407C400080B223F0DDF9060006D000E05E4645460EF0C2FC36B10AE0A07A801DC0B20CF099F8F5E700F012F80749012008700EF09DF82846BDE8F88F0100160071A903108B
:407C8000C8C900080CD30008AC8700081CB50024142001908DF800402346064A6946064822F0BCFD04480068401C01D14FF6FF7420461CBD057E0110B0870008014800898B
:407CC000704700000CD300082DE9F84F05460C460020890000908A46684622F0EBFD07004BD12748009B0022036017E003F82220062A08D2234803EB820100EB8200467844
:407D00004E70408807E005EB8200183803EB820186784E700088521C4880D2B2A242E5D300251EE005F1010909F0FF0015E003EB850203EB8001B2F802C04E88B4450AD9F7
:407D400091F80180A1F802C092F801C081F801C0568082F80180401CC0B2A042E7D309F0FF05A542DED347B95146684622F0A2FD070002D10449009808603846BDE8F88F82
:407D8000A48600089C6F0110A88600080EB50C4A0146002312684FF6FF7004290DD009290AD109200093ADF80800ADF80A306946104622F030FD80B20EBD04200093F2E75E
:407DC000B0870008F0B5002319E05A1C00EB830612E030F8235030F82240A5420BD2778820F8234000EB8204B4F802C0A6F802C020F822506780521C8A42EAD35B1C8B4259
:407E0000E3D3F0BD10B5D0E90014428900890C2820D2DFE800F01F060E0E120A1F161F1F1F1A00201CF06CFB14E008460EF054FB10E0E0B209F05AF80CE000200BF048FCD9
:407E400008E00878FBF74CFC04E00846022C03D008F07EFE002010BD02F036FFFAE710B50EF0B4FEBDE8104004F024BA10B50EF0B8FEBDE8104005F0AFBA10B50EF0BAFE41
:407E80000446022802D100F085FA00B90124204610BD00007CB506004FF00000ADF800008DF8040006F1040408D030460EF07EFE054668460EF0C0FD15B13EE020487CBD57
:407EC0002089BDF80010401A2081304600F03AFB050010D1A17A01AA606800F00DFB050009D1E06838B1B6F84400000903D0304600F020F905462089BDF80010084420810F
:407F0000DDB90EF04CFD3046FFF732FE050014D130460EF0C3FD05000FD1FBF709FB032803D10EF0DDFB0EF027FC304600F0FEF90546A17A6068FFF745FF28467CBD00006D
:407F40000100160038B504004FF00000ADF8000008D0A18D090A05D1617A102902D8E179102901D90F4838BDE085694620460EF0E1FD0500E08DBDF800100844E0850FD161
:407F80006946204600F012FA0500E08DBDF800100844E08504D1322221460348FEF7CDF8284638BD0100160018D300082DE9F0411F4F0026386D60B1796D51B14218891E4C
:407FC00012F8024C0022FBF73DFA844201D0194E2BE0002505EB850307EB8304606800B357F82310E9B16289D7F854C0624518D294F80CC01CF0090F02D0FEF79EF80AE006
:4080000009780170606831B1628957F82310083A08310830F1E723691BB10122207B114698476D1CADB2042DD4D33046BDE8F081D8C50008FFFF1600F0B5C10701D040F0ED
:4080400008000B4CFF2184F85D10002101250E4601EB810204EB820205FA01F3177B03409F4200D11681491CC9B20429F0D3F0BDD8C5000870B5134908B3B0F84410124C52
:40808000C1F30711002584F85C10016921654069C4E91505FF2684F85D6028464FF6FF7300EB800204EB8201401C4B8144F822500D610E73C0B20D810428F1D30021084601
:4080C00070BD000001001600D8C5000810B5174B48B3417839B3002202E04908521CD2B20029FAD102EB8201114A02EB810111F8084CFF2C17D103787BB1438821F80A3C1A
:40810000946D136D234441F8143C4488936D2344936582680AB141F8042C103942780A72406800230860184610BD000001001600D8C50008F0B5B0F84420234C466900210C
:40814000C2F30712D2B3D3070BD090F8203003EBC30505EB431501EB850101EB031101F14001530715D5C37F2C2513FB05F55FEA857C4FF00C0723D003EB430505EBC30322
:4081800007EB830505F00305C5EB830505F11005294492070ED590F821004FF00803C20095070FD003EBC00202F00302C2EBC0020C321144891C8E4200D300242046F0BDC4
:4081C0000C35E5E70832F4E70100160082880168807908F08BBE7047024800214160018041807047508500082DE9FF410C460021164642F205070291012802D0022857D1BB
:4082000016E0002202A901201FF0A6FC01283DD1029D324621462846FDF78FFF01208DF806000095ADF804606846FBF749F93FE0204D012B68681ED040B32988084421460B
:40824000FDF77BFF28880024304481B229806888021D91420CD12C80696800914FF002018DF80610ADF804006846FBF729F900E01ED96C601CE00390208803A9C0F30B0211
:408280004FF002001FF068FC012803D0384604B0BDE8F0810398686061886980A1788170E178C1706178417021780170042028800020ECE75085000810B5124802F072FD4D
:4082C00068B9114802F0DEF848B911490F480860084600F04FFA10B90E4809F049FD04000ED1FFF763FE0404240C04D0002141F2050000F089F900214FF4805000F084F98B
:40830000204610BD819A0110039F0110FDDB011060850008CDD6011010B504F0AFFE03F0BDFFBDE8104005F04BB8000070B50546041D00F1180600F0ADF91448296801601B
:40834000616809888180A17A03290FD361688979017261684989C1F34701417261688989C180B179817296F83010C1726168098A818100F091F8002806D100F0A5F800282C
:4083800002D1034A0121117070BD000038C600085885000810B502F057FA012803D122F0E1FA012800D0002010BD00002DE9F0411C4D0C46060005D0DFF86C8098F80000DA
:4083C00018B16D1C2846BDE8F081B08D08F006FF308808F009FF0500F4D130460AF000FC0746304603F012FD0744304600F0D4FF384400F634102080304606F052F8218881
:408400000844208096F83010C1EBC10100EBC1002080304601F058FC218808442080A8F80400CFE7010016005885000810B505F0D3FF03F0F9FC00F07FFF0AF0FEFB01F05C
:40844000FFFBBDE8104008F09BBE000010B5040010481DD0204608F09BFE002818D1204601F0FCFB002813D120460AF0F1FB00280ED1204600F068FF002809D1204603F0E1
:40848000D9FC002804D12046BDE8104005F0B0BF10BD000001001600094810B50949C07A887000F02DFF064801F018FC002806D103F0D2FCBDE81040014805F0D3BF10BDEC
:4084C00038C600085885000810B500220849094800F0DEFE10F0FF0008D000220449054800F0D6FEBDE8104005F0EABA10BD0000B9820110A9C70110F0B5002635461670F1
:40850000334616E030F82340082C0AD900EB83077F8837B1083C20F823401478641C147005E053B100EB830420F8235065805B1CDBB28B42E6D33046F0BD014EFBE70000CE
:4085400001001600F0B52E4C031D0020A188247802460CB12B48F0BD2A4D1C68083D4CB11F898F4206D3596821B100244FF0020C9E7A39E02846F0BD0CEB8203CB5A03B365
:4085800031F822E0BEF1000F2AD00EFB03439CB2052A32D2DFE802F0030C11161E00B1F800E08B78BEF1230FE4D3032BE2D317E08B8833B1302BDDD312E00B890BB1282B66
:4085C000D8D30DE08B895BB1233B4FF6BA7E7345D0D205E00B8A002BCCD04B8A012BC9D10028C8D1521CD2B29642C5D8C6EBC60104EB81018F42BDD3F0BD0020F2E700009A
:408600005885000809001600034A1268002A02D0002800D01047704738C6000870B5044605F03DFF01F066FC00F012FE174D012C16D0022C29D11648046800F02BF822F0E6
:408640001DF9FFF7F3FEFFF767FE00202870002C1BD0A446BDE87040002143F21200604722F058F9848DFFF717FF38B9FFF72CFF20B901202870204608F0B0FDBDE8704001
:40868000002143F20100FFF7BFBF70BD5885000838C6000803480021016041608160C1607047000038C6000801464FF6C05008F0F3B80000064910B509780448002903D08E
:4086C0000220FFF7F1FF002010BD0000020016005885000830B50C46054600F00DF8002806D1044A6978126802EB0111C988218030BD0000648500080B4B024642F6137041
:4087000051781B7899420DD2084B1B6803EB01110B7A6FEA03039B0704D4127809788A4200D10020704700005A8500086485000810B50A490A4B027809781B68491EC9B2CB
:4087400003EB01142478A24202D14170002010BD0029F3D14FF6FF7010BD00005A850008648500080249096801EB0010807B70476485000842F6117138B1006828B1054932
:408780000A6822B142F61470704708467047086000207047688500082DE9F74F84B0154604980E4660B1152E05D01E2E0BD9D22E09D0522E07D042F6127007B0BDE8F08FCF
:4087C00042F61170F9E700200390049890F80180FF208DF808000498FFF78EFF07002ED1DFF810A542F6147B1B2E0CD01D2E0AD0F0070BD0012E06D0DAF8001001EB08105D
:40880000007BB0421AD1F00703D00FE01E2EF3D0F9E71E2E14D0DAF8001001EB0810407B20B1522E0CD0D22E08D109E01D2E07D1DAF8001001EB0810407B08B15F46D8E09E
:40884000012E20D0DAF8001001EB0810C088001D0BF07AFA040018D002214FF0010942F616700F2E77D013DC4FF005024FF0030729D2DFE806F0282BFD4AFC56FB73FA8279
:40888000F991F887F7000920E2E742F60577B0E0182E71D009DCA6F11002082A13D2DFE802F0E9B7FFEA1212EDED1E2E7ED006DC192E7BD01B2E01D01D2E04D1F0E0522E7E
:4088C00075D0D22E74D042F612778FE0E87804280BD0DAF80070AB7807EB0811097B491E8B4208D006280ED105E0DAF8001001EB0810007B38B1A87860712888A071000A60
:40890000E071E878F7E05F4670E02988172901D207466BE0ADF8067028886071000AA07148E02879012817D01027ADF8061028796071EA88BDF80630BF1C201D7A431844DC
:408940002968FDF7FAFBBDF80600E98807FB0100ADF806002EE050E00227E6E7ADF80690A88829688200601DFDF7E7FBBDF80600A98800EB8100EBE7ADE1ADF80610A888FB
:40898000801C5CE0286808B1A88828B9012003900020ADF806900090434601222146284600F0CEFB070026D0039802E063E077E055E1D8B1267100208DF80A008DF80960A5
:4089C000304600F07BFA04998DF808006A460988ADF80410BDF806100094091DADF806100146002003F042F9070002D020460BF0CBF93846E1E6E8887AE1ADF80690AA8828
:408A0000601D2968FDF799FBBDF80600A988AFE0EA88002A3FF47CAFAA88002AFAD0DAF8007007EB0813DB885B1E9A42BFF670AF2A68002AEED0ADF80610A888001DA88080
:408A40006071AA88E888BDF806304243201D18442968FDF772FBBDF80600A988EA8801FB020075E7C9E0ADE0A3E083E047E033E021E003E0CCE0ADF806909BE72989002952
:408A8000C8D0ADF80690221D288909F80200BDF80670631D010AF954BDF80600801C4EE0434601222146284600F026FB07009DD1E888C01C4CE729881729FFF429AFADF881
:408AC000067028886071000AA071DAF80020298802EB081041806DE7298800299AD06B88002B97D099423FF613AF6171080AA0716888E071000A2072ADF806205AE729897C
:408B0000002987D06A89002A84D09142EBD8ADF80690221D288909F80200BDF80670631D010AF954BDF80670A11D68897854010ABDF80670E01D3954BDF80600001D81B20C
:408B4000ADF80610A8898854BDF80610000AC854BDF806004346801C82B2ADF806202146284600F0EDFA0700A1D1BDF80600E9880844EDE62A88002AB0D069880029ADD0FA
:408B80008A42B0D84CE0A9881154080ABDF80610C85404E010441022291DFDF7CEFA287DBDF80610012801D0102000E002200844CEE62988002991D06171080AA071ADF8C9
:408BC0000670F7E62988002988D0ADF8069028886071000AA071BDF80600221D801C81B2ADF8061068888854010ABDF80620601D1154BDF80600801CAAE6424621462846BD
:408C000000F054FA0700AFD1E98809EB41009FE629880029B0D06A88002AADD09142B0D8ADF80690201D298809F80010BDF80670631D0A0AFA54BDF80670A21D6988B954C7
:408C40000A0ABDF80670E11D7A54BDF80610091D8AB2ADF80620297D01299BD193E7288900283FF432AEADF806902889271D010A09F80700BDF80620601D1154BDF8060094
:408C8000801CADF80600DAF8001001EB0810C0880F3880B2E880A988884200D9E980BDF80600EA8838442968FDF747FA28680BF06BF8BDF80600E988084480B2ADF806006F
:408CC0003844E96801602969416069698160BDF806000C303CE6297811B101297FF418AEADF80690221D287809F80200BDF80600401C2DE66485000830B50C460546FFF7D1
:408D0000FBFC002805D1034A6978126802EB01118C7330BD64850008F0B40E480023122603600D48012401780A48001F17220568491E05EB011046708460C28042808280F0
:408D4000037343738473F3D1F0BC1721034A042002F068B8688500085A850008DD8E011070470001704700000149002008607047648500080101014821F09CBD64850008BE
:408D800070470000044A4079126802EB001080680860002070470000648500082DE9F843324E0746457930684FF0000800EB05104FF01209846811F1090F2DD011F1050F38
:408DC00005D00C22042914D0082949D136E04078122806D008F0E4FD316801EB051181F80190316824F0040401EB051181F80D8036E04178122906D10092401C3B461C4A45
:408E00001E2108F069FD3168787A01EB0511401C487344F0040423E04078122806D008F0BFFD316801EB051181F80190316824F0080401EB051181F80C8011E041781229EC
:408E400006D10092401C3B46094A1E2108F044FD3168787A01EB0511401C087344F00804306800EB05108460BDE8F883648500088591011070B5104D04460129286800EB18
:408E80000410816016D140781226122805D008F087FD286800EB041046702868012200EB041017218260C18041808180002101734173827370BD000064850008032809D9DE
:408EC000C10704D01B2804D01D2802D003E01E2801D0F1207047F220704700002DE9F04F85B00646032956D803D1002A53D0002B51D04E484FF0FF0A42F6137904784FF023
:408F000001008DF80A008DF804A049488DF805A096F800C0006825460DF10C0BA4F1010400EB041797F80080C44508D1BF68012F05D08DF8054030788DF8040007E0002CBC
:408F4000ECD1B9F1000F02D0012924D126E0012921D002294CD01078142801D9162805D31E2858D9D22856D0522854D08DF808A08DF809A00092ADF806309DF808106A4614
:408F8000002002F073FEA0F53C51123903D1012106200AF079FE05B0BDE8F08F6D1E00EB05118968012906D0002DF7D19DF80500FF28F0D0E1E7EAB28DF8052031788DF82C
:408FC000041000EB05103178017002211046FFF751FF81208DF808008DF8090003A9304600F02CFC0720CDF800B0ADF80600DDE7E0B20121FFF73EFF82208DF808008DF8E8
:40900000090003A9304600F019FC0720CDF800B0ADF80600B1E78DF80900FFF74FFF521C8DF808005B1E0092A5E700005A85000864850008F8B50546447A807A0E460128B8
:4090400022D1287A81281FD082281DD076B91E2C0CD0E10702D01D2C0DD005E0522C03D0D22C01D01B2C06D1FF2804D0E00704D01B2C04D108E0082103E01E2C04D16FF090
:4090800004012846FFF78AFE07480768002F0AD0A6F53C50183806D0E888009032462146281D2B68B847F8BD68850008F0B58788012405683B0019D0DFF838E004F1020CEF
:4090C000DEF8006006EB0216F68866450AD30C4435F8026B26714FEA162666715B1E1FFA8CF4EBD1F91AC1800020F0BD42F61670F0BD0000648500082DE9F0410489CCB1C2
:40910000DFF838C08788961CDCF800C037440CEB031C42F62075BCF806C0674507D80A441471240A5471B2B200F00AF805462846BDE8F08142F61670FAE70000648500082D
:409140002DE9F0410D468488016804B151B10C4EA718366806EB0313DB889F4206D99B1AC38004E042F61170BDE8F081C480C388A818001D1A46FCF7E0FF0020F4E7000004
:40918000648500082DE9F041184E0446407931684FF0000501EB001042F6177780686FEA0000410701D4691F03E000070DD46FF008012046FFF7F2FD607A3946401C607284
:4091C0002560E5802046FFF735FF6079316801EB00104078122807D008F0E2FB61793268122002EB01114870BDE8F0816485000870B50446C38804C8042101F0DDFD05000A
:409200000FD1617AC8070ED01D2912D0522908D0D22906D01B2904D06FF008012046FFF7BDFD284670BD5229FBD0D229F9D01E29F2D00421F2E7000020B104490978017028
:409240000020704741F21300704700006C85000810B50E4C2078032804D0022802D041F2120010BD0AF0ADFD01F0DCF808F01AF80AF0A6FDFEF7AFFF08F028FC00F042F963
:409280000AF092F90020207010BD00006C85000870B5134D04462878012802D041F2110070BD0220287069600AF000FD0AF06EF900F00AF908F0D8FB0AF08AFD204607F061
:4092C000DFFA040003D107F09FFF040002D00120287003E001F038F80AF07BFD204670BD6C850008054810B50178022904D103210170406800B18047002010BD6C85000871
:4093000010B50C4C2078002812D160600AF0D4FC0AF0B8F900F006FBFEF75EFF0AF060FD08F056F801F098F80AF05BFD0120207010BD00006C850008024800218160416021
:40934000704700007485000838B5044600200090204600F021F80146684621F0ABFA002813D10C4B009A5A6094F83010CC070DD001EB810404EBC101032404EA4104C4EBD6
:409380004101091D11440091996038BD1A246143F8E700007485000890F83010007A4FF003030844C207C0EBC00013D003EA4002C2EB4000001D82B2C8070DD001EB81003F
:4093C00000EBC10003EA4001C1EB4001091D881880B270474000EEE71A204143F7E700002DE9FE4306460D0041F2114066D0002E64D0304600F0C0FA040023D041F21347D6
:4094000041F21448BC4220D0A879022801D003281BD128680090A888ADF80400A8796946801E8DF80600304600F0A6FA040009D0BC420AD002A9684608F0DCFC38B99DF820
:409440000800307041F2124437E0444530D130781B49C0EBC003AA798868002400EB43039A7132782B68C2EBC20200EB42021360AB88938001F10C0293793278C2EBC20270
:4094800000EB420253733278C2EBC20200EB4200CA6840F8072F0A8A82800878401CC0B2087008490988814207D10AF0A3FC04E0BC4202D128460AF09BFC2046BDE8FE831D
:4094C000748500086C86000830B40C480C4C00220088A368401EC0EBC00103EB410100280A608A808A71C1F80720A1F80B204A73F0DC227030BC0AF07EBC00006C860008C2
:40950000748500080AF078BC18B5002401468DF800406A46204600F029F8002822D19DF8000000EB800101EBC0020F48416801EB4200427E012A15D144769DF8000000EBD5
:40954000800202EBC00001EB4000C0F8064044819DF8000000EB800202EBC00001EB40000460848018BD000074850008F0B5144C144D06464FF6FF70002364682D7811E0C9
:4095800003EB830707EBC307012E04EB470705D03F7E8F4204D113700020F0BD7F7E27B15B1CDBB2AB42EBD3F0BD03EB830000EBC30004EB4000012545760176EBE70000DA
:4095C000748500085A8500081A2100FB01F2024800214068FCF7D7BD7485000838B50D4600218DF80010144601466A460020FFF7BDFF00281AD19DF8001001EB810202EB92
:40960000C1030B494A6802EB43012B68CB60AB880B829DF8001001EB810303EBC10102EB41012268C1F81220A288CA8238BD00007485000838B50D4600218DF8001014468C
:4096400001466A460120FFF791FF002825D19DF8001001EB810202EBC10310494A6802EB43012B68C1F80630AB884B815CB19DF8001001EB810303EBC10102EB4101236820
:409680000B60A3888B809DF80010012301EB810404EBC10102EB41014B7638BD7485000810B538B1174A01781288914205D341F2154010BD41F2114010BD134CC1EBC102F7
:4096C000A16801EB420300221A609A800378C3EBC30301EB43039A710378C3EBC30301EB430343F8072F9A800378C3EBC30301EB43014A732178491E21700AF07AFB0020A6
:4097000010BD00006C8600087485000841F2114241B138B10E4B02781B889A4204D341F21540704710467047C2EBC203094A926802EB43035B7B8B710078C0EBC00002EBF7
:40974000400050F8072F0A6080888880002070476C860008748500082DE9FE434FF0000807460C008DF80080CDF8048041F21140CDF8088008D0002F06D02E48397800883D
:40978000814203D341F21540BDE8FE836A460020FFF7ECFE284D06004FF001091CD19DF80000062200EB800101EBC000696801EB4001891D01A8FCF7B1FC68B19DF8000091
:4097C00000EB800101EBC000696801EB4000D0F806102160408927E021463846FFF796FF0646A079022822D30FD19DF8000000EB800101EBC000696801EB4000C1682160FD
:40980000008AA08084F8068011E003280FD19DF8000000EB800101EBC000696801EB4000D0F812102160C08AA08084F806903046AAE700006C8600087485000810B50246E0
:4098400041F2114000291DD0002A1BD010481378048841F21540A34214D2C3EBC3040D4B9B6803EB4404A4798C711278C2EBC20203EB420213680B6092888A8000228B5C17
:409880000BB1002010BD521CD2B2062AF7D310BD6C86000874850008FEB506464FF000008DF80000019002900C0041F2114008D0002E06D0194831780088814202D341F29C
:4098C0001540FEBD6A460020FFF750FE05001ED19DF80020124F02EB820000EBC2007968062201EB400101A8FCF718FC78B19DF8000000EB800101EBC000796801EB400055
:40990000016821608088A0800120A07104E021463046FFF793FF05462846FEBD6C8600087485000800B591B0684621F00BF8BDF82C00C00617D508208DF8350001208DF858
:4099400034009DF830009DF808100844C0EBC0004000ADF8360000200F90064880680E900DA8FEF7B3FB9DF83000FFF72DFE11B000BD0000748500082DE9FC475FEA010973
:40998000054641F2114134D095B3DFF880A08E1C0020BAF800402C70ADF80400DFF8708000908DF80600641ED8F80800C4EBC40700EB470199F806208879824204D1062231
:4099C0004846FCF7ABFBB8B12978BAF80000814218D1D8F808009DF8062000EB4701887982420FD106226846FCF798FB38B109E0FFE70846BDE8FC8700262C7004E02C70A1
:409A000041F21446002CCEDC3046F3E76C8600087485000848B1064A0368D3608088108202F10C0081710020704741F2114070477485000810B541F2114241B138B10E4B74
:409A400002781B889A4204D341F2154010BD104610BDC2EBC204094A8B79926802EB4404A3710078C0EBC00002EB40000A68026089888180002010BD6C86000874850008B3
:409A800038B54FF6FF73012915D0022939D0032910D100788DF80100507803EA0020ADF8000011780843ADF80000694646F20200FEF7AAFD38BD01781A480172D17803EAC3
:409AC00001210180947821430180517903EA01214180147921434180D17903EA01218180947921438180517A03EA0121C180127A1143C180BDE8384001464FF4C040FEF7E2
:409B000083BD00788DF80200D07803EA0020ADF8000091780843ADF80000694646F20100C6E7000048C60008024642F227333148D11A9A4243D022DC42F22033A2EB030109
:409B40009A423FD013DC42F21333A2EB03019A424AD007DC11F10E0246D00C2A2CD00D2A1DD12CE0012927D0032918D127E0072915D2DFE801F014212D142A3321002E2945
:409B80001AD00DDC052932D004DC032923D0042905D123E0082921D02D2900D1164870474D290CD004DC492915D04B29F7D103E05B2916D05D29F2D10F48001F70470E4861
:409BC000401F70470C48801D70470B48C01D70470948083070470848093070470648801E704705480A3070470348C01E70470248401C7047FFFF1600060016000C4810B5D9
:409C0000006808B10AF0C0F80A48006808B10AF0BBF80948006808B10AF0B6F807480068002803D0BDE810400AF0AEB810BD0000B085000898850008948500089C85000897
:409C400003490020086003490860034908607047A8850008A08500089C85000838B504460020009094F83000A17910FB01F000EB80008004010C684620F01CFE00281CD1C4
:409C80000E490098086094F8300000EBC000C100684620F00FFE00280FD109490098086094F8300000EB00108100684620F002FE002802D1034A0099116038BD9C8500089A
:409CC000A0850008A885000890F8300000EBC001C90000EB001001EB800070472DE9F843644F1E21624C7971017A01B901217970427A02B901223A70817A19B10B46C57A03
:409D000015B102E00123FAE701256B43BB7001B90121F970491E3971C0880025042802D9001FF88000E0FD80C2EBC20080000AF00BF8DFF844810028C8F800007ED038784B
:409D400000EB8000800009F0FFFF4C490028086074D0787800EBC000800009F0F5FF484E002830607DD0002400F08CF82846009537E000EBC001306840F82150009901EBD1
:409D8000C10100EB81014D60009901EBC10100EB81018D60009901EBC10100EB8101CD60009901EBC10100EB81010D61009901EBC10100EB81014D61009901EBC10100EB8F
:409DC00081018D61009901EBC10100EB81018D83009901EBC10100EB8100C5830098401C009079788842C4D341462846009528E0C0EBC002086800EB82029560009AC2EB44
:409E0000C20200EB82029581009AC2EBC20200EB8202D581009AC2EBC20200EB82021561009AC2EBC20200EB82029582009AC2EBC20200EB8200C582009800E011E0401C04
:409E400000903A789042D3D32846009505E0684601F048F80098401C009039788842F6D31CB100F00FF8FFF7C9FE2046BDE8F8830300160088850008B08500089885000802
:409E80009485000810B51648164C006830B12178C1EBC1018A000021FCF775F91248006830B1217801EB81018A000021FCF76BF90E48006830B1617801EBC1018A00002123
:409EC000FCF761F90A480068002808D0A178BDE8104001EB81018A000021FCF754B910BDB08500088885000898850008948500089C85000810B5FFF7C5FFBDE81040FFF73C
:409F00007DBE08B569468DF800008DF8012041F20200FEF779FB002008BD000038B5002468B1C18800918388428830F8081B00F0E5FE10B1FFF7F8FD0446204638BD014C37
:409F4000FBE70000010016007FB504462A482B4E402C0178306814D301F14002944210D204EB840200EB8202A2F2FE42127842B1A4F14002D2B2914205D142F22A3004B0B4
:409F800070BD0A46F6E702EB820500EB85018978052902D042F21430F1E710F8250003AB002208218DE80E0013460622214601F05FFD0028E3D112490398096800EB0010F5
:409FC00001EB8000316801EB850109798175316801EB85018988090AC1750476210A4176039801F0ABFC0028C9D13268062102EB85029170C3E700008885000898850008A2
:40A00000A88500082DE9F347284A9DF800000E46126800EB800100F1400912F8218002EB8101002488784D89022806D0032806D0052804D0062805D103E0012402E00824F0
:40A0400000E00424684600F04DFF194FE00711D0184908EBC8003A68096801EBC00005EBC50102EB81012E30D1F804C0002332464946E04760070DD5A6F50C50383800D101
:40A0800000263A6805EBC50002EB80003146C26848469047200707D5396805EBC50001EB8000816848468847BDE8FC879885000894850008A08500082DE9FE430E46804699
:40A0C000082B05D00021304601F03CFDBDE8FE8350794FF6FF71147901EA00200443D079957901EA002005432548264F402C00780ED300F140018C420AD23A6804EB8401D1
:40A1000002EB8101A1F2FE41097809B1A4F140008DF8080008F0FF02214602A800F06CFF48B99DF80800396800EB800001EB80008088A84208D00023022231464046CDE902
:40A14000004501F047FDC1E7082307222146304601F07AFD0C4906EB0610096801EB8001200A8C75C8750D76280A4876304601F0E5FB42F238319DF80800FFF743FFA5E7CA
:40A180008885000898850008A885000870B50D46082B42D150794FF6FF71167901EA00200643D07901EA0021907908431B4940280A781B490B682ED302F1400188422AD248
:40A1C00000EB800103EB8101A1F2FE41097811B3A0F14004E4B2A2421FD004EB840103EB81018A88B24218D18978062915D10D4A05EB0511126802EB8101498981420CD18D
:40A200000121284601F09EFC2046BDE8704042F23831FFF7F7BE1446DCE770BD8885000898850008A8850008F8B50746694600F0E9FA00287BD101220721009800F074F917
:40A2400001220821009800F06FF9394E002456F8345025B104236A4602213846A847641C032CF4D30024334D42F23737324E0CE0296804EB840011F820000099884203D15C
:40A28000E0B23946FFF7BEFE641C30788442EFD300242A4D2A4E0FE0296804EB041001EB8000817B39B140680099884203D10121204601F047FC641C30788442ECD3214C8E
:40A2C0000098216800EBC00001EBC000018D19B1818DC28C1144818506F04CFF009901EBC102216801EBC2025085009800EBC00001EBC00034300AF0E1FA00984FF6FF71CB
:40A3000000EBC002206800EBC20291840099FF2201EBC10100EBC10181F82E200099172201EBC10100EBC100A0F844200020F8BD54C600089885000888850008A8850008BA
:40A340005A850008A0850008F0B50021FF270C462E4E2F4D28E001EBC10233694FF6FF7C03EBC200491CA0F824C080F82E704FF0170CA0F844C04FF0030CC0F804C0DFF83A
:40A3800094C09CF800C0C0F808C0DFF88CC09CF800C043F832C04FF0FF32C260C0E90424C477048380F8464028788142D3D300201A4AF16805E000EB800301EB8303401CA7
:40A3C0001F7413789842F6D37461747014493470002041F83040401C0328FAD300201227B3690DE000EB001203EB8201401C8C7395F800C0C1F804C00C8103F822704C74F6
:40A4000029788842EED3F461F0BD0000908500085A8500088C8500088B8500088A85000854C6000870B50024094D0A4E0BE0E96804EB840001EB8000007CFF2802D0204693
:40A4400000F00CF9641C30788442F0D370BD0000908500088A85000808480949002200780B69401E10F0FF0000EBC00103EBC1010A854A858A85F4D1704700005A8500089C
:40A480009085000818B1034948610020704742F216307047908500082DE9F04102461E484FF0FF360078814202D93046BDE8F0811A481B4C0378246801FB03F505EB850058
:40A4C00004EB8000002407E004EB840700EB87073F7CFF2F07D0641C9C42F5D30121084609F0D2FBE1E704EB8403002740F8237000EB83008781C78146600274094A01EB8A
:40A50000C100126852F830305B1E42F83030084600F0B8F92819C9E75A8500088B8500089C850008A08500082DE9F04791460D46072908D0082D06D02E4900EB0010096881
:40A5400001EB800080882C4980B200EBC0080A6802EBC800C468621C4AD00069274F8A46844225D0396804EB840001EB800017E03A6800EB800602EB86010B7CAB420BD16A
:40A5800004EB840302EB830249685160B9F1000F03D000F063F800E00446386800EB86004068411CE4D1DAF8001001EBC8000461DAF800003B6800EBC801C86800EB8002C4
:40A5C00003EB82031B7CAB4212D10023CB770B833B6803EB82025268CA600B69834200D10A61B9F1000F03D0BDE8F04700F036B8BDE8F087A8850008A08500089C85000833
:40A60000F0B4144C024601EBC1032068124D00EBC300C668761C1AD000692E6800EB800006EB80004260206800EBC300026120684FF0FF3200EBC3002B68006900EB8000BC
:40A6400003EB80004260F0BC084600F03DBB0261C260ECE7A08500089C8500082DE9F05F494A01460025106800287DD0474B1F68002F79D0DFF818C1DCF80030002B73D036
:40A68000444B1C68002C7CD0434C2468002C78D0424C2468002C74D001EB810400EB840192460A7C0026012A04D0072A0AD0082A4DD113E0886800EB001007EB80008088DF
:40A6C00085B244E050F82400554608B109F05CFB286800EB84008068050C38E050F824200AB140F824608F68DCF8002007EB8709C7EBC70812F829501A68898902EB880062
:40A70000E346028B114489B20183828A91421ED1006909F039FB1F4940371FFA87FC0968002301EB88001A4606618682C6820683DBF8001001EB8900408900EBC00116489D
:40A74000006800EB81001946076A6046B847DAF80000FF2140F8246000EB84008681C681017405EBC50000E00BE00C49096851F83020521C41F830202846BDE8F05F00F088
:40A7800081B8BDE8F09F00009C850008A885000898850008B085000894850008A085000811B581B0FF24694601A800F02BF840B905490098096800EBC00001EBC00090F86A
:40A7C000464020461CBD0000A085000830B50B4B0B4C00221B6824780AE002EBC20503EBC505AD8C854202D100200A6030BD521CA242F2D342F2113030BD0000A08500084E
:40A800005A850008F0B50E4B00224FF6FF761D680C4B1C780FE002EBC20305EBC3039F8CB74207D0077893F82E309F4202D100200A60F0BD521CA242EDD342F21130F0BD0E
:40A84000A08500085A8500080C4810B504689CB10B4900200B780DE000EBC00104EBC101CA68521C02D10969491C01D0002010BD401C80B29842EFD3012010BDA085000864
:40A880005A850008154B30B4196809B1012400E00024134900EBC0000A6852F8301002EBC0004268914202D890F8462092B18268914211D390F84620012A0DD1002280F89F
:40A8C0004620012C08D110F82E2F1B68007E30BC89B218470122F2E730BC7047A4850008A08500082DE9F05F3349DFF8D09080464FF0000A81F800A000EBC806D9F8000039
:40A9000000EBC600C468601C4AD0DFF8B4B004EB84014F46DBF8000000EB8105D9F8000000EBC600C17F008B08440004000C03D14146204600F048F838681FFA88F200EB64
:40A94000C601B9461431204600F08CF840BB2F7C012F0ED11B49A868096800EB001301EB830181F811A0097C012902D1002101F0E9F8D9F80000214600EBC600C2688A426C
:40A9800001D16A68C260D5E901450846FFF766FE601C05D0082FBAD1E8B200F0E5FDB6E7D9F8000000EBC600C168491C01D1491E0161BDE8F09F000090850008A0850008E0
:40A9C0009C850008A8850008224A10B5126800EB800002EB80000022C4890368234401EBC1041D49096801EBC4014B618389C4891B1B9CB20C83037C012B04D0072B10D053
:40AA0000082B18D10FE0154A8068126800EB001002EB8000807B08B105220CE00020088310BD027A07E00E4A8068126800EB800002EB8000828811F81F0F001DC0B2087066
:40AA40002044001F4870000A8870CA70100A087110BD00009C850008A0850008A8850008988500082DE9F74F0C46C87A898882B008443F4986B204980A6800EBC00902EB61
:40AA8000C9004FF0000B878CDA46A7F57F42FF3A04D184F80BA0A4F804A067E0808D50B362E033490A6802EBC900028D0AB1828D0AB3458DB54200D33546721BC07F96B200
:40AAC000E8B100208046390A41EA08108DF8007040EA8B108DF801008DF80250280A8DF803000123042269460220FDF77DFBB8F1000F06D011E0012005B0BDE8F08F01205F
:40AB0000E0E70223E27A04F10C011846FDF76CFBE07A84F80BA0281A85B2A088C0B1A84200D80546A84202D3401BA08001E0A4F804A000232A4602202168FDF755FB20B1C4
:40AB40000220049906F0B6FED5E72068284420600748006800EBC900C18C491CC184018D11B1818D491E8185002E9AD10020C3E7A08500081A4A10B51268002A22D0194A5D
:40AB80001268002A1ED0184A1268002A1AD0174A1268002A16D0164A1268002A12D0154A1468002C0ED0144A127860B159B1521E12F0FF0202EBC20304EBC3031985588505
:40ABC0009985F4D110BD0021521E12F0FF0202EBC20004EBC000018541858185F4D110BD9C850008A885000898850008B085000894850008A08500085A85000838B50C469B
:40AC00001249096800291FD01149096800291BD010490968002917D00F490968002913D00E49096800290FD00D4D296800290BD06946FFF7CBFD002806D10098296800EB63
:40AC4000C00001EBC000448538BD00009C850008A885000898850008B085000894850008A085000838B50C466946FFF7AFFD002826D1009800EBC0011248006800EBC1013A
:40AC8000CA8CA24201D2002200E0121BCA84009901EBC10100EBC1010A8D62B18A8D224492B28A85009901EBC10100EBC100018D8A4200D98185002C02D0009800F004F8EE
:40ACC00038BD0000A08500080A4A1178002910D1094900EBC003096801EBC3018B8D002B07D0C968491C04D0012111700021FFF7F9BD704790850008A0850008F0B585B05B
:40AD00001F460A9E14460D4606290CD34FF448618C4208D8A54206D8B7F5FA7F03D20A2E01D38E4203D942F2123005B0F0BD04A9FFF768FD10B142F22C30F6E7174A04982F
:40AD4000126800EBC00102EBC10191F82F1011B303AB00220C218DE80E0013461222052100F086FE0028E0D10D490398096800EB001001EB8000290A8575C1750476210A21
:40AD800041768776390AC1760677310A4177039800F0D4FDC9E742F25530C6E7A0850008A885000818B1034908600020704742F212307047AC850008F8B51C0015460E46EF
:40ADC00004D01DB110B1311F032902D342F21230F8BD6946FFF716FD10B142F25430F8BD009881B20720FFF757FB411C14D0009900EB800246EA014609490B6803EB820160
:40AE00008E6043F822508C810422CA81009989B2FFF7F6FB0020F8BD42F21330F8BD00009C85000812B1031F032B02D342F212307047044B03EBC000203881800260002027
:40AE40007047000054C6000838B5144608B1042902D042F2123038BD6946FFF7D3FC10B142F2543038BD05490098096800EBC00001EBC000A0F84440002038BDA0850008A1
:40AE800030B505460C480D4C0178226842F22B30491E01EB810302EB83039B7813B10029F6D130BD2970236801EB8101002003EB810101228A7030BD8885000898850008BF
:40AEC00030B4074C0D4604EBC00050F8204C002C04D02846A44630BC0321604730BC704754C600082DE9F041404E04463268002A79D03F4F3968002975D02078002500EB20
:40AF0000800302EB83029288402A1DD3C0EBC00001EB80008168B9B18089A8B1084608F033FF2078C0EBC001386800EB81018D602178C1EBC10100EB81018D812178C1EBDF
:40AF4000C10100EB8100C58120783968C0EBC00001EB80000069D0B108F016FF2078C0EBC001386800EB81010D612178C1EBC10100EB81018D822178C1EBC10100EB8101E0
:40AF8000CD822178C1EBC10100EB8100058319480178207800EB8002306800F82210217801EB810100EB81018D80217801EB810100EB8101CD80217801EB810100EB8101F0
:40AFC0000D81217801EB810100EB81010D61217801EB810100EB8101CD60217801EB810100EB810085700020BDE8F08198850008B08500085A85000870B505461048114C34
:40B0000040290378246842F2703017D303F14006B14213D201EB810604EB8606A6F2FE4636785EB140398B4206D001EB810314F82330934200D10020297070BD1946F2E79A
:40B0400088850008988500082DE9F04786B04FF0000AADF80AA014460E460546ADF808A0ADF80CA002AF0E2B03D002230022009743E060794FF6FF71227901EA00200243AD
:40B08000E079A37901EA002043EA0008501EFF2802D3022300972EE0607A237A01EA00201843ADF80800E37A894601EA0321ADF80A10A37A1943ADF80A10172803D3172996
:40B0C00001D3814202D90B23009714E004A9104600F020FB0028DCD1607B09EA0020ADF80C00217B0843ADF80C0001A8FFF7C8FE48B10423009700223146284600F024FBD9
:40B1000006B0BDE8F0879DF804004A4C00EB80010E23206800F821509DF80410BDF8102001EB810100EB81014A819DF8041001EB810100EB8101A1F804809DF80410BDF84D
:40B14000082001EB810100EB81010A819DF80410394A01EB810100EB81010A619DF80410364A01EB810100EB8100C2609DF80400BDF80C10C0EBC0023148006800EB820283
:40B1800091809DF80410BDF80A20C1EBC10100EB81014A809DF80410BDF80C20C1EBC10100EB81018A809DF804101522C1EBC10100EB8101C1F808A09DF80410C1EBC101AF
:40B1C00000EB8101A1F80CA09DF80410C1EBC10100EB8100A0F80EA09DF8047030464037394600F031FD9DF80400032200EB80012068154C00EB81014E709DF8041001EB6E
:40B20000810100EB81008270BDF81000246800EBC0010C48036803EB8100828B05EBC50004EBC00053F821402E3002AB3946A04766E700009885000851B4011065B50110C2
:40B24000B085000894850008A08500082DE9F0478946824601EB09105649002586B009680E2B01EB800044897ED151794FF6FF7092F804C000EA01214CEA010CD179DFF8F2
:40B280003C8100EA012391790B43ADF81030517A00EA0127ADF81270117A0F43ADF81270D17A00EA0121ADF81410967A3143ADF81410517B167B00EA012006433E48402C6E
:40B2C0000178D8F800001CD301F14002944218D204EB840200EB8202A2F2FE42127882B1A4F14002D2B28DF8042091425ED002EB820100EB81018A78022A57D11EB1012580
:40B300002FE00A46EEE7172B01D39F4202D942F28136F4E705228A709DF8041001EB810100EB8101A1F804C09DF80410BDF8102001EB810100EB810002819DF80400BDF806
:40B340001410C0EBC0021E48006800EB820291809DF80410BDF81220C1EBC10100EB810042800121484600E020E000F0EBFB15B101A8FFF7B7FD13490AEBCA0004AB096808
:40B3800001EBC0009DF804102E3001EB8102D8F8001001EB82010C4A4989126801EBC10102EB810132464D682146A84706B0BDE8F0870000A8850008888500089885000899
:40B3C000B0850008A0850008948500082DE9F041DFF8788005780024D8F80000C5EBC50600EB860027468389921E3BB1C1890A449A4219DC84682CB30C4423E04B784FF6AB
:40B40000FF75097805EA0323194391421ADD8181C781881C08F098FC040014D0D8F8000000EB860084600DE0806808F0ADFCD8F8000000EB860087608781C78105F1400031
:40B44000FEF782FD2046BDE8F0810000B08500082DE9F05FDFF800C104780D46DCF80000C4EBC40600EB86000021C388B3B15B1EC3808389DFF8E4A0DFF8E4B00027E0466A
:40B480007BB1C2896546921EB9469A4236DC45D18568A5B14FF001071A4611E042F27131E7E768784FF6FF7303EA00202B7843EA0003A2F10200834208D182B206E0002252
:40B4C000C0F80890A0F80C90A0F80E909AB1DAF8000004EB840300EB8300408900EBC003DBF8000000EB83001346D0F810C0AA1C04F14000E047012F0DD00FE0806808F0EA
:40B5000043FC286800EB8600C0F80890A0F80C90A0F80E9002E0284608F036FCDAF8000004EB840100EB8100408900EBC001DBF8000000EB8100D8F80010C28B01EB860191
:40B54000C9888A4205D3426904F14000BDE8F05F1047BDE8F09F0000B08500089885000894850008704700002DE9FC5F81462D4A002001901068C9EBC90600EB86004788A2
:40B58000818AD0F810A0C08A081A274985B209EB89000968BAF1000F11F8200000903BD0C5B39346D846DBF8000000EB8600808888B385B308200099FEF76EFF411C2BD0E0
:40B5C0002C46BD4200D93C46184900EB8002C3460B6803EB8201C1F80890D8F800C00CEB860CBCF8168008EB0A0C43F822C08C810022CA810099FFF703F8DBF8000000EB28
:40B6000086008188491E8180291B8DB2C18A2144C182C7E700E002E00020BDE8FC9F0198FBE70000B0850008988500089C8500082DE9F0478C460646082B60D150794FF6EA
:40B64000FF71137901EA00200343D079927901EA002002432B48002405782B482F46814601680FE004EB840001EB8008B8F80480984505D111F82000B04201D1254603E0B5
:40B68000641CE4B2BC42EDD3AF4205D1BDE8F0470121604600F056BA1C4FC5EBC506386800EB860188881044B0F5803F02D342F2733402E08880FAB100240121604600F06A
:40B6C00041FA2846FFF750FF386805EB850100EB86008288D9F8000000EB81000C494089096800EBC00001EB80002146836905F14000BDE8F047184742F27434DDE7BDE8DF
:40B70000F08700008885000898850008B08500089485000830B50A4A0A4B42F2223412781B68521E02EBC20503EB8505AD8B854202D10A80002401E0002AF2D1204630BD98
:40B7400089850008948500082DE9F041884601EB0810134916461F460968069D01EB80040E2315223146404600F06EFAA675300AE075287820762888000A6076A878A07675
:40B780006888000AE07628792077A888000A6077A777380AE0774046BDE8F04100F0CEB8A88500082DE9FC410646981F1D4614460F46052844D20121384600F0C3F92149D1
:40B7C00007EB0710204A096801EB80001F49408940281CD30B784033984218D2176800EB800307EB8303A3F2FE431B787BB14038C0B28DF80400097881420DD0116800EBC5
:40B80000800001EB80008078022802D004E00878EEE701A8FFF766FB0D480768002F0FD00C4906EBC600AD1E0968A21C01EBC000ABB290F82E008DF8000003216846B84702
:40B84000BDE8FC81A88500089885000888850008AC850008A0850008F8B5334E0179427935780068012A01D0022A4ED12F4A127890424AD22E4B00EBC0021B6803EBC202C6
:40B88000928CA2F57F43FF3B3FD06A4600F080F900283AD1274C0098226800EB001102EB8101497C01290BD101221146FEF73CFE0098226800EB001002EB800000214174A8
:40B8C0000098216800EB001001EB8000122101704489052C1CD0402C18D330784030844214D2154904EB8400096801EB8000A0F2FE40007850B1A4F14000C5B23078A84242
:40B9000006D10021009800F01DF9F8BD3078F4E70021009800F016F9052CF6D042F218312846FEF76FFBF8BD888500085A850008A0850008A8850008988500082DE9F047BB
:40B94000DFF88080074600EB0716D8F8000000EB8604A08880B2814601460120FEF79CFD0546401C03D0607C012808D00EE00021384600F0E7F842F21330BDE8F0870122D6
:40B9800011463846FEF7D0FD002060740E4905EB8500096801EB80029760D8F8003003EB8603123341F82030D8F80000494600EB8600808990812846FEF722FE01206074B3
:40B9C0000020DAE7A88500089C850008FEB5104D2C6844B10F4C00EBC006246804EBC60494F82F6036B1002200921346019200F0F1F8FEBD14F82E0F8DF808009B1EA17048
:40BA0000921C2C689BB2012102A8A047FEBD0000AC850008A08500082DE9F843124D90460A4629681E4600291CD0104F00EBC004386800EBC40090F82F00012812D1012181
:40BA4000104600F07FF83868B61E00EBC400B3B290F82E008DF800002C6808F1020202216846A047BDE8F883AC850008A08500082DE9FE4F99462E4B2E4EDDE90C7584462F
:40BA8000002420461B78DDF838A0366809E000EB001406EB840494F80E80B8F1000F08D0401C9842F3D3834206D142F22F30BDE8FE8FCAF80000F6E7A274381F2075000A0B
:40BAC00060750026C4F804C0E6736181A78166740AB1D00706D084F813902574E07CA0730020E4E714494FF001020878401C10F0FF00087000D10A700878E074002DECD119
:40BB00000E4901AB097821818DF809208DF808000820CDE9000C2189094A204605F0DCFE0028DAD0A6731220207042F22630BEE75A850008A8850008918500088D85000858
:40BB400059B8011070B50026104D00EB001401290DD1296801EB8401497C012907D101221146FEF7E1FC286800EB84004674286800EB84018E7310F82400122805D005F0F5
:40BB80000FFF2968122001F8240070BDA8850008F0B50E4C002327680D4C267810E003EB031407EB8404A57CED0708D1A57B8D4205D16468844202D100201360F0BD5B1C4F
:40BBC000B342ECD342F22E30F0BD0000A88500085A8500082DE9F0411446DDE9065706201E46884600EB440083B201222946404600F02AF80F4908EB0810096801EB80004C
:40BC00001230210A0471417174B1012C02D0022C0AD103E08671310AC17105E08571290AC1710772390A41724046BDE8F041FFF785BE0000A88500081CB5002200921346A5
:40BC40000192FFF7C7FF1CBD10B5074C00EB0010246804EB80001C1F82740475220A42758381418110BD0000A88500082DE9F84F284F00EB8003002607EB830493464FF63A
:40BC8000FF7A35463246207C4FF0040916E0D4F80CC002EB42081CF828C08C450CD102EB42050826E16806EB850609EB85058E5B495BB6B28DB203E0521C92B29042E6D8C3
:40BCC000904203D141F21130BDE8F88F57F8232069465846904707001AD15246009915E0A068174650F8360008420DD0A16809EBC600095861B158468847626807463AB181
:40BD000001465846904703E0761CB6B2AE42E7D93846D9E7E86B011010B58C2200210848FAF731FA06480749C0F88810122101704170022180F85F10012180F8601010BDF4
:40BD40006CC60008785634127CB52E4D069E1C46082A43D2DFE802F0040A1016222A333B0868206048686060012239E00868A0604868E060022233E0086820614868606140
:40BD800003222DE00888208394F84300810701D5042225E040072FD5062221E00868C4F81A004868C4F81E00052219E00868C4F822004868C4F8260094F84300EAE7086872
:40BDC000C4F831004868C4F83500072208E00868C4F839004868C4F83D000DE0082A0BD000F03CF8CDE900460146074B082000F0BDFC054628467CBD214644F21400FCF77C
:40BE000003FCF7E70100160049BD011090F83000C10707D0032101EA4001C1EB4000001D80B270474000FBE70149002008607047B485000808B500210091FFF7E7FF0146E0
:40BE400068461EF037FD002802D1024A0099116008BD0000B4850008FFF75EBF0249086800F1013008607047F4C600082DE9FF41DFF83481040048D0606830B1217821B990
:40BE80000079012841D003283FD8484EE06888B1C57F7DB11F2D38D806F13E00202200210746FAF770F986F85D50E1683846CA7FFAF743F9A0680027D0B3C17FC1B38DF816
:40BEC00000706B46012201F075FE9DF80020A568A95C012906D060680079B0B1012814D0042812D0207802280FD8012911D1521CA95C21F00401884207D1012909D1218A87
:40BF000019B1B42901D8012803D0404604B0BDE8F081264820221E3000218046FAF733F9E87F86F83D00A1684046CA7FFAF705F9208AB0832078022800D1B783606800B325
:40BF40008179857B437BC21D8DE82E00437902794188008805F098FA10F0FF00D6D06068C21D8179847B437B8DE81E00437902794188008805F088FA04B0BDE8F04101F068
:40BF80009FBD96F83D0018B1BDE8FF4100F058BB96F85D0018B1BDE8FF4100F06DBBBDE8FF4100F0A1BB0000010016006CC600083EB50400124821D06946601CFDF73EFCDB
:40BFC00002A9684604F02CFC10F0FF0005D002A9684604F025FC01F073FD00280ED12178BDF8080005F06DFB10F0FF0006D02178BDF8080005F065FB01F062FD3EBD0000A4
:40C00000010016001CB5030010484FF0000214D093F843001446C10706D1810701D5042202E040070AD50622FFF718FFCDE900340146074B082000F099FB1CBD08220021BD
:40C0400010460094FFF780FE1CBD00000100160049BD011010B50446002141F20400FCF7D3FA2046BDE81040FBF7E6BF70471CB500224FF6FF730E2802D00F2809D010E0D9
:40C0800088784A7803EA00200243C8788DF8000007E008788DF80000C8788A7803EA00200243A2F50052153A08D01B2A07D01C2A04D142F214006946FCF7A6FA1CBD42F249
:40C0C0001300F8E7704700001CB50978A0F500508DF80010243808D0A0F55D40833807D00A280AD142F2060004E042F2070001E042F208006946FCF787FA1CBD1CB5097802
:40C100008DF800100849002231F82230834206D101EB820069464088FCF776FA1CBD521CD2B2082AF0D31CBD346D01100EB5A0F50050243820D0A0F55D40833823D00A2847
:40C1400014D102A801900A788DF8002088784FF6FF7303EA0023487802A918433AB105F05FFB694642F20600FCF74EFA0EBD05F057FB8DF80000F4E708788DF80000694667
:40C1800042F20700F0E70846BDE80E4000F03EB8FEB5072839D148784FF6FF7511F8026B05EA0020064348780C4605EA0020ADF8000009780843ADF8000001463046FEF72A
:40C1C0001DFDE07805EA0020ADF80200A2781043ADF80200607905EA0020ADF8040022791043ADF80400E07905EA0020ADF80600A1790843ADF8060002A9304605F010FB97
:40C20000694642F20900FCF7FFF9FEBD00B585B010F8011B8DF80C10C9BBCDF810D042784FF6FF7101EA0222ADF8002003781A43ADF80020C27801EA0222ADF802208378A9
:40C240001A43ADF80220427901EA0222ADF8042003791A43ADF80420C27901EA0222ADF8062083791A43ADF80620427A01EA0222ADF80820037A1A43ADF80820C27A01EAC6
:40C280000221ADF80A10807A0143ADF80A1003A942F20800FCF7B8F905B000BD0348024901600349416070476DC00110B8850008C9C001100348024901600349416070474E
:40C2C00091C10110B88500082DC101102DE9F047002710F8019B88B03D463C460646BA46DFF8F88074E030788DF808007178B61C8DF809100396B179F61D05960E448DF87D
:40C30000101032788DF8182098F85F20A2B104283AD0012838D08DF804A001AB0122059801F048FC9DF804000599095C012905D09DF8080098B90EE0012442E00599401C2B
:40C34000085C10F0030506D098F85F00022804D0012806D008E0002438E0A80702E0012404E0E8070028FAD1012C2FD1039908F161000A68C8F861208988A8F865109DF85E
:40C3800009108171C5711CE01449062261310398F9F7C4FE98B998F867109DF80920404691420CD190F8681049B140F861AF0124A0F804A0FF22827180F807A001E0012CAC
:40C3C00004D102A94FF48040FCF71EF97F1CFFB24F4588D308B0BDE8F08700006CC6000808B501208DF800000748122101700021818342F20A0004F04FFA694641F201008E
:40C40000FCF702F908BD00006CC6000830B50C4A0A4C0021136813F81120150608D502F07F02824204D1002003F81100044603E0491CC9B20429EED3204630BD0200160010
:40C44000B485000830B5114B04460F481A6800215278150617D522F0800020700C4C207801280BD91A682078401E814206DA02EB4100491CC5784570C9B2F4E71A6800206E
:40C4800002EB4101487030BD02001600B48500085A850008F0B510F8015B85B00F4604464FF6FF76012D14D0022D0FD0032D72D0544B0A4601461B6828469847524B3A461C
:40C4C00021461B682846984705B0F0BDFFF7FEFEFAE714F8010B00254C4F8DF810003C2801D028B14BE0012504A800F011F946E0607806EA0021207808430DF1010105F077
:40C500008FF910F0FF008DF8000033D197F85E00401C87F85E00A0788DF80200E078241D8DF803000194E07906EA0020ADF80800A1790843ADF80800607A06EA0020ADF8B9
:40C540000A00217A0843ADF80A00E07A06EA0020ADF80C00A17A0843ADF80C00207B8DF80E009DF80100FCF7CFFF9DF80200012800D10125694644F20700FCF745F8B88B4F
:40C580000028A1D0012D9FD1387805F009FA1220387099E7FFE722788DF80020441C807806EA00212078084302A93AB105F038F9694644F20A00FCF727F885E705F030F98A
:40C5C00010F0FF008DF80000F2D1E07806EA0020ADF80200A1780843ADF80200607906EA0020ADF8040021790843ADF80400E07906EA0020ADF80600A1790843ADF8060096
:40C60000D6E70000B8850008C48500086CC6000808B502208DF800000848122141700021A0F86A1090F86010002004F078FF694641F20100FBF7E8FF08BD00006CC6000864
:40C6400070B50C4C42F2080604F11E0294F83D101546304604F02FF910F0FF0009D094F83D102A46304604F026F9BDE8704001F027BA70BD6CC6000870B50C4C42F2090628
:40C6800004F13E0294F85D101546304604F013F910F0FF0009D094F85D102A46304604F00AF9BDE8704001F00BBA70BD6CC600080C4A10B503460A481268002102EB4104D8
:40C6C0006478240606D402EB410043F080014170002010BD491CC9B20429EFD310BD000002001600B485000810B542F20A040121204604F0D1F810F0FF0007D0012120463B
:40C7000004F0CAF8BDE8104001F0DAB910BD000010B50446202200210748F9F734FD0648202200212030F9F72EFD2146BDE8104044F20600FBF768BF8AC60008084960B194
:40C74000827912B1012A02D007E0064900E0064902680A60808888800021084670470000010016004C860008528600082DE9FC471E46DDE90A54CDE90054174688468146E1
:40C7800004F01CFF10F0FF000BD0CDE9005433463A464146484604F011FFBDE8FC4701F08FB9BDE8FC8700002DE9FF4190460C460646132813D094B143F21302531C4FF600
:40C7C000FF71102E59D00EDC44F20805052E5CD0082E38D00E2E0DD00F2E2ED174E004B00020BDE8F0813E2E28D0572E49D0FF2EF3D1A2E0A278657801EA02210D4300201B
:40C80000E71C6F49222231F83030AB4205D101EBC00041683846884703E0401CC0B29042F1D3684B424639461B6828469847664B424639461B6828469847AAE0414620463B
:40C84000FFF728FEA5E014F8010B8DF80000607801EA00212078084302A904F0E1FF9DF80010014303D114F8020F8DF8090002A80190694644F2090089E021464FF4005040
:40C8800085E0002142F2050081E014F8010B8DF80000607801EA0021207808430DF1010104F0BEFF9DF8000058B948490878401E087014F8020F8DF802009DF80100FCF789
:40C8C00023FE6946284662E0E778207801EA0727A178394380B342F2130CA1EB0C07614516D008DCA1F5806106391CD0A1F5E05107394ED106E0A7F55D47903F19D0012FA8
:40C9000047D113E08DF80000694644F207003EE08DF80000604604F035F88DF80800694644F20A0033E08DF80000CAE78DF800002BE08DF8000040E02BE02078032807D072
:40C94000082811D00025062812D0072828D020E0651C6078694604F063FFD5F802000190694644F2180012E0002144F21A000EE08DF80050A07801EA0020ADF808006178C0
:40C98000014302A8ADF80810019069461046FBF73BFE0F4B424621461B68304698471EE78DF80050A07801EA0020ADF808006178014302A8ADF80810019069461846E6E751
:40C9C000246C0110BC850008C8850008CAC60008C08500081CB500788DF80000694642F21100FBF711FE9DF80000002802D10420FFF730FB1CBD00001CB500788DF80400D0
:40CA000048B90748818B31B1002003460090054A034804F061FF01A8FFF77AFE1CBD00006CC60008E1C301101CB509498A78012A0CD100228A7001788DF8001009B9401C7D
:40CA40000190694643F20A00FBF7DEFD1CBD00006CC6000800F0C0B81CB500788DF80000694644F21700FBF7CFFD1CBD1FB5441CCDF80CD001788DF8081080784FF6FF72F5
:40CA800002EA0022207810430029694607D004F0C7FE02A942F20300FBF7B6FD1FBD04F0BFFE10F0FF008DF80800F2D1A41C0194EFE73EB502A9019102788DF80020441CD8
:40CAC00080784FF6FF7303EA002320781843491C3AB104F0A5FE694643F20400FBF794FD3EBD04F09DFE10F0FF008DF80000F2D1A0788DF80800EEE71CB500788DF8000019
:40CB0000694642F20400FBF77FFD1CBD0EB510F8011BFF228DF804108DF8022039B900218DF8011000788DF80000CDF808D001A943F20500FBF768FD0EBD3EB502A9019106
:40CB400002788DF80020441C80784FF6FF7505EA002320781843891C3AB104F061FE694642F20200FBF750FD3EBD04F059FE10F0FF008DF80000F2D1E07805EA0020ADF8E0
:40CB80000800A1780843ADF80800E8E73EB502A9019102788DF80020441C80784FF6FF7303EA002320781843891C3AB104F038FE694643F20500FBF727FD3EBD04F030FE56
:40CBC00010F0FF008DF80000F2D101208DF80900A0788DF80800EBE71CB500788DF80000694642F21200FBF70FFD9DF80000002802D10420FFF72EFA1CBD000008B5007827
:40CC00008DF8000018B16846FFF782FD08BD0A4890F85D1011B1FFF72FFD08BD817E012902D0FFF761FD08BD00218176694644F21900FBF7E9FC08BD6CC6000808B5007899
:40CC40008DF8000018B16846FFF762FD08BD084890F83D1011B1FFF7F3FC08BD90F85D0010B1FFF709FD08BDFFF73EFD08BD00006CC600081CB500788DF80000694642F2C5
:40CC80000E00FBF7C1FC1CBD1CB501788DF8041044F20B0451B90848B0F86A1031B1002213460092054A401C04F016FE01A92046FBF7AAFC1CBD00006CC6000811C60110F5
:40CCC00038B500788DF8000028B1694644F20B00FBF79AFC38BD084C012094F8601004F01EFC10F0FF0FF5D094F86010012004F016FC00F0E5FE38BD6CC6000808B5007858
:40CD00008DF8000018B16846FFF702FD08BD0748817E012902D0FFF7E7FC08BD00218176694644F21900FBF76FFC08BD6CC600080EB502A9019101788DF8001082784FF696
:40CD4000FF73407803EA02221043002902A907D004F066FD694642F20100FBF755FC0EBD04F05EFD8DF80000F4E700B585B010F8011B8DF80C1031B910F8011B8DF8081028
:40CD80000190CDF810D003A943F20C00FBF73CFC05B000BD00B585B010F8011B8DF80C1041B9016800910179401D8DF808100190CDF810D003A943F20B00FBF725FC05B0B3
:40CDC00000BDF8B5441C1130C1780A02817811430A02417811430A0201781143C279130282791A43130242791A43130202791A43C37A1D02837A2B431D02437A2B431D02B2
:40CE0000037A2B43C57B2E02857B35432E02457B007B354340EA05200090204600F042FEF8BD00B585B010F8011B8DF80C1041B90190801D029001A804906846FFF702FBCB
:40CE400030B103A943F20300FBF7DEFB05B000BDDDE901129DF80000FCF7C0FBF6E70EB501788DF8001039B941788DF8081080788DF8090002A80190694643F20700FBF700
:40CE8000C3FB0EBD70473EB502A9019101788DF80010441C80784FF6FF7202EA002220781043002902A907D004F0BAFC69464FF44050FBF7A9FB3EBD04F0B2FC10F0FF00E4
:40CEC0008DF80000F2D1A0788DF80900EEE72DE9FC414578801C4419E178A77B0A02A17811430A0261781143227842EA0122E1790B02A17919430B0261791943237943EA67
:40CF00000123E17A0E02A17A31430E02617A31430E02217A3143E67B47EA06273E02677B247B374344EA0724CDE900140146284600F054FEBDE8FC811CB500788DF8000051
:40CF400010B90448FFF7FAFB694643F20200FBF75BFB1CBD6FC600080EB502A9019101788DF8001082784FF6FF73407803EA02221043002902A907D004F052FC694643F2C1
:40CF80001700FBF741FB0EBD04F04AFC8DF80000F4E71CB500788DF80000694643F20800FBF732FB1CBD0EB502A9019101788DF8001082784FF6FF73407803EA022210433A
:40CFC000002902A907D004F02BFC694643F21800FBF71AFB0EBD04F023FC8DF80000F4E71CB500788DF80000694643F21600FBF70BFB1CBD0EB502A9019101788DF8001083
:40D0000082784FF6FF73407803EA02221043002902A907D004F004FC694643F21100FBF7F3FA0EBD04F0FCFB8DF80000F4E73EB502A9019110F8012B8DF8002003788DF891
:40D040000830012B08D0FF208DF80900694643F20600FBF7D9FA3EBD83784FF6FF74407804EA0323184301F1010112B104F0D8FBECE704F0D5FB8DF80000E7E70249014847
:40D08000086070476FC00110C085000810B54FF6A154204603F0C0FD10F0FF0006D0204603F0BAFDBDE8104000F00ABD10BD000070B504000E4819D00E48A1794FF6A0553F
:40D0C000817121680160A188818007222146284603F0E8FB10F0FF0008D007222146284603F0E0FBBDE8704000F0EABC70BD0000010016006FC6000870B504000A4812D0EA
:40D1000042F2010508222146284603F0CBFB10F0FF0008D008222146284603F0C3FBBDE8704000F0CDBC70BD0100160038B5040017480FD00022ADF8002063785BB1012B3B
:40D1400008D1A078FF2812D0694604F08DFBC8B10F48801D38BD217818460DE021786078BDF8002004F070FA00F0AAFC38BDFF22ADF800202178607804F066FA10F0FF006B
:40D18000F4D0EBE721786078BDF80020F4E700000100160030B50A4A00242146136813F81120150605D502F07F02824201D1012403E0491CC9B20429F1D3204630BD0000FC
:40D1C000B48500081CB542F22C03C21A984237D00DDC501D1AD0012828D0022826D0042813D111F8010B8DF8000020B324E0012A30D0022A35D0222A07D108788DF8000076
:40D20000694642F21700FBF7FFF91CBD08788DF80000694642F20F00FBF7F6F99DF800000028F2D10220FEF715FF1CBDBDE81C40084600F0B3B80191694642F20A00E2E7E3
:40D2400011F8010B8DF8000000B90191694642F20B00D8E708788DF80000694642F20D00D1E708788DF80000694642F20C00CAE7F0B587B00A2808D00B2876D111F8016BF5
:40D2800000250C4644F2110782E011F8010B0025414E8DF81A000C463C2801D030B15AE001250DF11A00FFF733FA54E060784FF6FF7707EA0021207808430DF11B0104F012
:40D2C000AFFA10F0FF008DF81A003FD196F85E00401C86F85E00A0788DF81800E078241D0294A41D0494A41D8DF80C000594E07907EA0020ADF80000A1790843ADF8000072
:40D30000607A07EA0020ADF80200217A0843ADF80200E07A07EA0020ADF80400A17A0843ADF80400207BDDE904128DF819009DF81B00FCF77FF99DF81B00FFF7B9F9FFF72D
:40D34000A5FE9DF81800012800D10125694644F21000FBF759F9B08B002806D0012D04D1307804F01DFB1220307007B0F0BD6078A41C0194E41D8DF80800009414F8060F6E
:40D380008DF8090069463846FBF73EF96D1CEDB2B542ECD3E9E700006CC600081CB500788DF80000694642F21000FBF72DF99DF80000002802D10220FEF74CFE1CBD0000FE
:40D3C000034802490160034941607047C5C00110C4850008FDC0011003480249016003494160704771D20110C4850008C5D101102DE9FC5F074600F0FF08C0F30720DFF890
:40D4000064A200EBC0001E4691464FF6FF7400EB400511B1012970D013E1301D06F094FC4C22DAF8003002EB85075146D85100287ED00C4632464946F8F77FFE6420226833
:40D4400000EB85015058D259C0F307239055226852F807C0721C0CF802302268C0F3074352F807C0B21C0CF80230020E2068C359F01C1A542268592303EB850350585821E0
:40D4800001EB850150542268C0F30721D1545A23216803EB8503C0F30742CA545B22216802EB8502000E885401226F49404606F0D1FC04000FD15021DAF8000001EB850115
:40D4C0004318CDE90083361DC159B2B2664B002004F01AFB0446B4F5885F7CD0002C0AD0DAF800005546C059002804D006F04CFC29680020C851A4E0FFE7A6F10C00C1B2B7
:40D5000009EB01004FF0180BC2781302827840781A4340EA0220020219F80100DAF800101043302202EB85028B5883426AD800E08AE0083E8850B6B25446304606F004FC19
:40D5400022680BEB85030028D0507DD0A24632464946F8F7F2FD1C20216800EB8500084409EB060108230A68026049684160C7F3072000EBC00000EB400025680BEB8001B9
:40D5800003EB80036A589278EA52D4F800C04FF6FF7505EA02252CF80350226852F801C09CF801C045EA0C05D55223680425F21F05EB80055A5322685158C91C42F8201066
:40D5C000294900221031404606F044FC040019D1C7F3072100E040E001EBC10101EB41011C2202EB8102DAF800000BEB81018318CDE900831C4B415810333246012004F052
:40D6000083FA0446B4F5885F27D0D4B1C7F3072000EBC00000EB4000DAF800100BEB8000554608585E4660B106F0AEFBC7F3072000EBC00000EB40002A6806EB80000021DE
:40D64000115014F0FF0000E005E008D02046BDE8FC5F00F035BA0324F3E70024F1E7BDE8FC9F000018C70008F8C6000870B5164E04004FF0000523D0A078072820D3102844
:40D680001ED82078010701D1E178C9B10221B1EB101F03D100F00F00032811D003F064FD40070028207800F00F0007DA032808D1A078102805D0E07810B102E0032800D107
:40D6C0003546284670BD0000010016002DE9F04F0026C1B0DFF890A2009601961C4617460546B046029603963C9602F0FF094FF6FF7B3D9610292ED2DFE801F02D082E3CBC
:40D70000436A4EA02D2DC8AEF6F5F7F32AB128788DF8A5008DF8A39079E03EA92846FCF78DF8060017D128A9284604F031FA0600F8D18DF8A38028788DF8A50028A944F292
:40D740000400FAF761FF9DF8A1000128EAD1002C01D0FEF77FFC02E1002CFCD020682890A088ADF8A40028788DF8A50028A944F20100F2E028788DF8150004A944F202007E
:40D78000EBE0002CE7D028788DF815002068049004A944F20300E0E0002CDCD006AA2AA9284604F02FFA0600D5D1412206A917A8F8F7C3FC6079102806D2C0F1100217A942
:40D7C00008440021F8F7DFFC412317AA842130E0002C32D006AA2AA9284604F013FA06AC06000FCC8DE80F0027D13CA9284604F0CFF980B100231A468321284604F068FABE
:40D80000064628788DF8A50006208DF8A30028A944F20500A1E09DF8F200102806D2C0F11002694608440021F8F7ADFC10236A468321284604F04CFA064690E0002C4FD0B3
:40D8400042222AA82168F8F778FC28788DF8E9002AA944F20C0080E028788DF8EC003BA8FAF766FF58457AD02FB924B121463BA84A9A01F003FC9DF8ED00554600EBC0002F
:40D8800000EB40001824DAF8001018E028788DF8EC003BA8FAF74CFF584560D02FB924B121463BA84A9A00F057FF9DF8ED00DAF8001000EBC000554600EB40004C2404EBC5
:40D8C0008000085860B106F05FFA9DF8ED002A6800EBC00000EB400004EB800042F800803DE02EE001E015E009E0C4B328788DF815002068049004A944F20D002DE074B3FA
:40D9000028788DF8A80020788DF8A9002AA944F20E0022E02878FEF779FD44F20F0217B90CB121460BE028788DF8A8008DF8A990CDF8AC808DF8B4802AA9CDF8B0801046B7
:40D940000BE064B120682890A088ADF8A40028788DF8A50028A944F21200FAF755FE41B03046BDE8F08F000018C700087CB50546FFF77CFE040019D16878012810D106F0A3
:40D9800007FB14490988814200D8134C6946681D04F0FEF818B99DF80100012800D02CB96879FFF7F7FB18B10B4CA41E20467CBDA87806F049FB05232A468121681D04F0C3
:40D9C00087F910F0FF0F03D000F07AF80446EDE70024EBE7868600080400160038B50B4D094C002128788DF80000684606F026FC28889DF80010884203D000240120FEF750
:40DA000029FB204638BD0000FFFF16006C86000810B5074950B182792AB1012A06D14379C0229A4302D106F0FDFA0021084610BD0100160010B5040009480FD0217804291E
:40DA40000CD8084606F0FAFA10F0FF0006D0207806F0F4FABDE8104000F032B810BD0000010016002DE9F04104000D4816D004F14302511E481E234615460E46074604F098
:40DA8000F5F910F0FF0009D023462A463146384604F0ECF9BDE8F04100F012B8BDE8F08101001600F0B41D46049B16460C0004D02A463146A446F0BC6047F0BC70470000D3
:40DAC00041F2144310B53949C21A98425AD02BDC3B2855D010DC07285DD006DC012854D002284FD003285ED155E00C284DD011284ED0122857D143E041F21133C21A4FF4D4
:40DB00008074984241D009DC12F5407049D0A0423BD0A0F58070013845D13FE0A2422FD0B2F5817F3FD139E0B2F5416F28D015DC40F6FF33A2F6FF309A4221D007DC012A74
:40DB40001ED010F10E0226D00D2A2CD118E0042818D0072819D0102825D11FE041F60223D01A9A4211D006DC421D09D0012A09D0032A18D109E0032807D08B2813D10DE085
:40DB80000B4910E00A49891D0DE00949491C0AE00749103107E00649891C04E00449C91C01E003490831084610BD0000FFFF16000100160070B500241C7060B970BD055DEF
:40DBC000002DFBD0641CE4B2065D964201D11C7070BD2C44E4B28C42F1D370BD38B51C00DDE9045303D000932B46A04738BDBDE8384043F20900FAF707BD00002DE9F04F4E
:40DC000095B007460020DDF878900090ADF8140006468DF8161006208DF8170000208A4614901C4615460121082006F02DF842F617784FF6FF7BBAF1810F4CD0BAF1820F84
:40DC400049D0BAF1FF0F46D0454544D013A93846FAF740FDBDF84C10491E894501DD5E4618E050465E46BAF1520F17D0D22817D0401EC0B21E280CD2FE4B13F81010FF2958
:40DC800007D003EB4000407801280BD0494500D8002606B35FEACA7007D018E01320EBE71420E9E74945F3D0F3E7BAF1520F0ED0BAF1D20F0BD0BAF11E0F08D004208DF82E
:40DCC000170005AA01213846FAF766FD0646304615B0BDE8F08F45450FD103208DF800003888ADF80100384600F0CCFB694641F20100FAF789FC0020EAE7A21C50464FF035
:40DD00000108A9F1010CA9F10401BAF1100F7AD00CDCBAF1100F77D2DFE80AF0762D456378A5AFF2F1F0EFEEEDECEBEAA9F102031FFA83F81B2868D00ADCAAF111000928DE
:40DD4000E9D2DFE800F0F5F4F36161F2F1F0EF00812817D007DC1D2876D01E2875D0BAF1520F0ED11FE2822812D0D2286ED0BAF1FF0FF6D164E2002C03D02146384600F0FE
:40DD80002FFDD7E2002DFCD1394645F2010007E0002DF6D1384600F075FB394645F20200FAF732FCC6E2A5F53C50163809D104208DF817000020ADF8140002208DF81600F1
:40DDC000B2E23888ADF8040060780BEA0020ADF8060021780843ADF8060001A945F20300DEE7002CCDD03888ADF8040060780BEA0020ADF8060021780843ADF8060001A953
:40DE000045F20400CCE708E18CE228E2002DB8D1002CB6D060780BEA0020ADF8180021780843ADF81800E1780BEA0121ADF81A10A27841EA0201ADF81A1002D009B1884234
:40DE400005D98DF817806FE21EE231E235E206A9384601F091FA0646A0F53C50053890D1BDF8180077E1002C8BD023781FFA8CF2611C384600F06AFD5CE2002D92D1002C4F
:40DE800090D060785A460BEA0020ADF8180021780843ADF81800E1780BEA0121ADF81A10A37841EA0301ADF81A10CAD00029C8D08842C6D8607902EA0020ADF838002179A0
:40DEC0000843A9F1060189B2ADF83800ADF83010B0F5205F03D042F60103984236D112AD10290ED0022938D00D208DF817001BE235E11AE111E1F9E0ECE0D4E083E03EE079
:40DF000035E01022A11D07A8F8F717F90DA907A800F01AFA68B107A80B901020ADF83000022012E088E17CE174E152E122E125E1AFE0BDF834008DF84800000A8DF84900D5
:40DF400002200B95ADF830000FE000900EAB0BAA06A9384601F0B4F94EE00B95E079A1790BEA00200843ADF848000120EDE7002C86D04A462146384600F06CFCDAE1002D98
:40DF8000FCD1002CFAD060780BEA0020ADF8180022781043ADF81800E2780BEA0222ADF81A20A57842EA0502ADF81A203FF449AF002AFBD090423FF644AF042002290ED082
:40DFC000102992D1211D102207A8F8F7B6F80DA907A800F0B9F948B1022307AA08E0607921790BEA00200143ADF8341001230DAA06A9384601F04EFBA0F53C510646053968
:40E000003FF42EAF96E1002CB8D01FFA8CF32178621C384600F0E6FD8CE1002DAED1002CACD060780BEA0020ADF8180022781043ADF81800E2780BEA0222ADF81A20A57821
:40E0400042EA0502ADF81A20B0D0002AAED09042B1D8042002290FD01029B2D1211D102207A8F8F76AF80DA907A800F06DF950B10A203AE7CE850008607921790BEA0020C7
:40E080000143ADF834100DAA06A9384601F08EFAB2E7002CB6D021781FFA8CF3621C384600F050FD46E1002DACD1002C3CD0607824780BEA002004435346002221463846A8
:40E0C00001F004FCA0F53C51064605392CD1ADF8144042E0002C27D03888ADF80C000194ADF8089001A945F2090059E6002D1BD1002C19D0607825780BEA00200543E07884
:40E10000A2780BEA0020024353462946384601F0DDFB79E0ADF814501FE0002C04D04A462146384600F0D8FC04E1002D50D1002C4ED04FEA59022146384601F043FBA0F5C8
:40E140003C510646053943D160780BEA0020ADF8140021780843ADF814001120C5E6BCB33888ADF80C000194ADF8089001A945F20B0015E6394645F20D0011E645BB3CB313
:40E180003888ADF8100060780BEA0020ADF80C002178ADF808800843ADF80C0001A945F20C000192FCE59DB994B13888ADF8100060780BEA0020ADF80C002178ADF80880B5
:40E1C0000843ADF80C0001A945F20E000192E7E526E02DBB24B3607825780BEA00200543E078A6780BEA002006438AB25448ADF83020211D00680B90F7F79FFF0BAB3246A2
:40E200002946384601F04AF9A0F53C510646053980D08FE024B14A462146384600F0EEFB88E085BB217819B1012901D004205CE6384600F0B7FF7DE0384600F0F1FA79E090
:40E240000CB32078400675D404208DF817000020ADF8140020788DF81600062045E694B13888ADF8100060780BEA0020ADF80C002178ADF808800843ADF80C0001A945F2A0
:40E28000120001928CE53FE0F4B33888ADF8100060780BEA0020ADF80C002178ADF808800843ADF80C0001A945F21300019277E555BB394645F2140072E52DBB24B309F1E0
:40E2C000010005F041FD050034D078781D4E00EBC00000EB40024FF0680808EB820031684A46084439880180D22028702146681CF7F723FF7878316800EBC00000EB4002ED
:40E3000008EB8200084400E014E009F101018BB22A4601210068FFF76BF886B2284605F033FD07E0149828B105AA01213846FAF733FA06460021082005F0A6FCC7E4000041
:40E340000C86000818C700087FB50D4604003DD0DDB3FB208DF8000034208DF801009B208DF802005F208DF80300802100208DF804108DF805008DF806008DF807108DF8A1
:40E38000080010218DF809108DF80A008DF80B00217B8DF80C10617B8DF80D108DF80E008DF80F004CF22046102269462046F7F7B5FE68B9607B4FF6FF7101EA0020288095
:40E3C000217B08432880002602E0FFE74CF2114604B0304670BD000010B5FAF7C5FC2022BDE8104000210148F7F7CDBE18C7000838B5054690F83000FAF7BCFC04000AD1C4
:40E40000284600F04EF8014668461CF053FA040003D0FAF7A9FC204638BD1149009A0A6095F8300000EBC00303EB430302EB83024A6002EB001200EB80038A6002EBC30200
:40E44000CA6002EB00120A6102EB80024A6102EB800202EB40108A610090C861DBE7000018C7000810B5044680880549001F088000F05EF82046BDE8104000F07BBD000020
:40E48000CC85000810B50446407800F05FF8607800F098FD2046BDE8104000F083BC00F09FBD70B500F13004F4252078FAF759FC217815FB010080B270BD00002DE9F0472B
:40E4C0001A4E91460D4607004FF000041CD006F10108522D03D0D22D01D01B2D04D13878FCF75EF9012815D04A4629463846FAF753F9B8B1A0F53C51133905D0491C03D06F
:40E50000091F01D00A3901D134460BE0A0F53C51143901D1444605E0A0F53C51053901D1024CA41C2046BDE8F087000001001600054810B50478641EE4B2204600F008F8E3
:40E54000002CF8D110BD00005A85000800F000B803492022896901EB40100021F7F713BE18C700082DE9F14F6B4A9DF801304FF0160C90690CEB4311062707EB4313445A3E
:40E58000C35A4FF0010E23449CB244529DF801101823906903EB41134FF00408C55C1C234FF00C0B4FF0140A4FF00009052D0AD0062D08D0072D16D10AEB4115465B0CEBCE
:40E5C0004115A6422FD00AEB4115455BA5420BD103EB411100F801E09DF8014091690CEB441421F8049086E008EB411407EB4111055B415A691A01539DF8011090690BEBF2
:40E60000411407EB4111055B415A294401539DF80110906900EB411407EB4111405A25682844206067E020F805909DF801001A26916906EB401019250C5C4F46641CE4B2F9
:40E640000C549DF80100916905EB40154D5DAC420AD103EB401001F800E09DF8011090690CEB4111475246E0102505EB401708EB0414CF590AEB4010C1463C5B0C529DF8AF
:40E680000100916906EB401705EB401411F807C00C59082707EB0C1C34F80C4007EB40100C529DF80100916905EB401406EB40170C5911F807C00BEB40100BEB0C1C34F85C
:40E6C0000C400C529DF80100916905EB401406EB40150C594D5D01EB401004EB0514D046246804609DF80110906908EB411409EB4111055B45529DF80110906903EB4112F9
:40E70000825C002A05D100EB411216216846FAF743F8BDE8F88F000018C7000870B505464078FAF71FF8040008D101212846FAF7E3FA294645F21600F9F766FF204670BD8A
:40E7400008B50088ADF800008DF80210694645F21800F9F759FF08BD70B504461F4D637803EBC30303EB43066423286803EB8603C658761CC65060785C2600EBC00000EB28
:40E7800040002B6806EB80001844F7F7D6FC6078296800EBC00000EB4002402000EB82005823084403EB82021144D1E9002389680260C0E901316178286801EBC10101EB4F
:40E7C0004101342202EB81026823BDE87040024403EB81010844D221FFF770BE18C700087CB505460C464078FFF7B2FE2888ADF8000020788DF80400A0784FF6FF7101EAD7
:40E800000020ADF8020061780843ADF80200E0788DF8050069464FF4A040F9F7F5FE7CBD08B50188ADF80010094940781B22896902EB4010085C8DF80200694645F2110023
:40E84000F9F7E2FE9DF80100FFF782FE08BD000018C700082DE9FC41074600880024ADF8050015460E468DF80440204606E09DF80410491C001D8DF80410C0B2A842F6D36D
:40E880009DF80400800005F05FFA0090002858D0002026E03118009B4A784FF6FF7E23F82420009B0EEA022223F82420335C1A43009B23F82420DDF800C00223CA7803EB3E
:40E8C00084032CF80320DDF800C00EEA0222641C2CF803208978E4B20A430099001DC0B2CA52A842D6D3694645F20800F9F78CFE3846FFF713FF08B300996FF00100124B18
:40E9000000EB8400085A7A78D9680A2404EB02140C5BA0420ED20824401C04EB021288527978D86800EB011206210DF10500FFF7C5FD03E006213846FFF702FF009805F0F5
:40E9400023FABDE8FC81000018C700082DE9FE4380460088ADF808000C4600911F46164600258DF80A30ADF80420694645F20700F9F74AFEEEB14FF6FF72012F02D0022F21
:40E980000CD016E0002006E02118255C497802EA01210D43001DB042F6D30AE0002006E02118255C497802EA01210D431230B042F6D34046FFF7B2FE002815D00E4A98F8E7
:40E9C00001100223106903EB8103C35AAB420DD96D1C20F8215098F80100116901EB800204214046F9F7D8FEBDE8FE8304214046FFF7A6FEF8E7000018C700082DE9FC5F68
:40EA0000044648784FF6FF7505EA002C0878121F4CEA000CC87896B205EA002888782D4D48EA00086278A8690827002307EB4217C75B091D99469A464FF01B0B67451BD126
:40EA40000C2707EB4217C75B474515D1062707EB4217C75BB7420FD109E000EB421711F803C03F68FF5C674506D15B1C9BB29E42F3D1B9F1000F0DD00BEB4212162300F81A
:40EA800002A06078AA6903EB401022F800A08DF800A017E02088ADF804000198FFF762FD62781C21A86901EB4211425C012A0ED100F801A001208DF800006378AA690BEB44
:40EAC000431150546A4618212046FFF7F7FCBDE8FC9F000018C700087FB505460088ADF8080000911446ADF80420694645F20A00F9F78AFD2846FFF711FE00280CD003A9CD
:40EB00002846F9F7E7FDBDF80C00401E844204DA0C212846FFF714FE7FBD094B6A780221586901EB8201425A224442526978586900EB81020C212846F9F72EFE7FBD0000CF
:40EB400018C700082DE9FE4307460088ADF804100D46ADF80800984616460024ADF80630694645F205000092F9F74EFD3846FFF7D5FD00282DD0B8FBF5F80020F31C4FF659
:40EB8000FF7CB61C07E000FB05F1CA5C8C5D0CEA02221443401C8045F5D8114A787800EB400303EBC000D169022303EB4003CB5AA34210D9641C21F810407878D16900EB1A
:40EBC000400202EBC00001EB4002102102A8FFF775FCBDE8FE8310213846FFF7B1FDF8E718C700082DE9F04F89B006460088ADF81800DFF858A170781746894600EB800207
:40EC00004FF0260BDAF808100BEBC2001D46085C4FF00008042805D0022803D0012801D0FE280ED13A464946069800F091F87078DAF8081000EB80020BEBC200085C04280A
:40EC400057D0B5FBF9F0002407903CE004FB09F0791C4FF6FF73415C385C03EA012140EA01087078DAF8081000EB80000BEBC0028A5C032A25D1142202EBC00204FB0975E6
:40EC80008A5C012A02D0022A0CD01AE0AA7903EA02236A791A43162303EBC000085A904209D00EE0162202EBC00008441022691DF7F734FA28B94B462A461946069800F044
:40ECC00047F80798641CA042C0D83046FFF726FD00280ED07178DAF8080001EB8102022303EBC201455A454506D808213046FFF727FD09B0BDE8F08F08F1010189B220F8B4
:40ED000032107278DAF8080002EB82020BEBC204045D032C06D000EBC202082106A8FFF7CDFBE6E7ADF8001071786A4601EB810103EBC101405AADF8020001208DF81400C2
:40ED400042F60300ADF80400E7E7000018C700080FB583B0BDF80C00ADF80410ADF808000092ADF80630694645F20600F9F74CFC07B000BD3EB5054600208DF808108DF857
:40ED8000000028880C46ADF80900694641F20300F9F73AFC002C03D12846019900F034F93EBD000070B504460B4D61780F22686802EB0111405C01280CD101212046FFF7B8
:40EDC000D9FF6178686800EB01100021016041608160C16070BD000018C7000810B5002260B10749096849B1884207D3054B1B88CC18844202D3401A181A82B2104610BDB1
:40EE00000C860008CC850008F0B5114D437804246A6804EB03141459002C18D0002916D0082606EB0314145B8F88BC420FD30E2404EB0313D45C002C09D0641ED454407827
:40EE40006A6806EB00108988135A591A1152F0BD18C700082DE9F0472E4E05460C4640784FF00409716809EB00130622CB58E3B301EB00131B68C3B30A2202EB00128F5AA0
:40EE8000082202EB001C31F80CC0B4F80480C44467453BD30C2707EB001731F807C00E2707EB0010085C844530D903EB001094E80A11A0E80A116878716809EB00139046D1
:40EEC00002EB0012CB588A5A134401EB001207EB00101268085C02EB001003601846A2882168F7F72AF9697800E010E0706807EB0111425C521C42546A78706808EB021166
:40EF0000A388425A1A444252002200E009221046BDE8F08718C7000870B50446144D62780823696803EB02120020885262780E23696803EB02128854617868680C2202EB72
:40EF40000112825A00EB0110120100680021F7F71AF961780A22686802EB0112042303EB0111825A4058BDE870400021F7F70BB918C7000810B50E4980890C4C088004F091
:40EF8000E3FE0C49086078B10B48008804F0DCFE0A49086040B10A480478641EE4B2204600F010F8002CF8D1204610BD03001600148600081C860008CC8500080C86000871
:40EFC0005A850008054900EBC00000EB400009686C2201EB80000021F7F7D5B818C70008074810B5006808B104F0CEFE05480068002803D0BDE8104004F0C6BE10BD000039
:40F000000C8600081C8600082DE9F041044600292FD0C88800282CD08888002829D0164D66780A236A6803EB0616905362786E6880071ED10C27C88807EB0212B0520A68DE
:40F0400066780420696800EB06100A506078696803EB001301EB0010CB5A1A4402602046FFF75AFF012062780F23696803EB02128854BDE8F081000018C700082DE9FF41F3
:40F080000446474D4078302600EBC00000EB40072B6806EB87004FF0240C0CEB87071858D85563784FF0250E03EBC30303EB4303D5F800C00EEB8303C0F307270CF8037052
:40F0C00063784FF0260E03EBC30303EB4303D5F800C00EEB8303C0F307470CF80370030E60784FF0270C00EBC00000EB40002F680CEB80003B546078282700EBC00000EBCB
:40F1000040002B6807EB80001844F7F716F86178286801EBC10101EB410106EB81014258521C42506178682201EBC10101EB4101286802EB8101014408220988ADF80C10E1
:40F14000617801EBC10101EB410102EB8101415AADF808106178042201EBC10101EB410150F821100091617801EBC10101EB410102EB8101405AADF804002088ADF80C006E
:40F18000694645F21500F9F73FFA60782A6800EBC00000EB4000002142F82010BDE8FF8118C700082DE9FF5F0546444A6B784FF00F0C50680CEB0313002410F803C00F46C1
:40F1C0000E2321462646BCF1010F0ED08DF803300020ADF8000018208DF802006A4601212846F9F7D9FABDE8FF9FB5F800C0ADF808C091466A78984600EB02121268019271
:40F2000095F801C003EB0C12805C8DF80C008DF80D708DF80E1001A945F21000F9F7F4F94FF0080A012F2BD19DF80E0010B1BDF80A1019E04FF00C0B4F46697878684223DA
:40F2400000EB01100BEB041100682A46415A00EB041001F001F858B16A78796801EB02110A680AEB0411515AADF8001001261DE06A78796808EB0210641C085CA042DCD81E
:40F28000002219212846F9F787FAA0F53C5105390ED16978D9F80400012600EB011001680AEB0410085AADF8000011208DF803002846FFF777FD012E8DD094E718C7000803
:40F2C0002DE9F04786B0824600200D46ADF8080098469146012405A95046F9F7FBF920B142F6137006B0BDE8F087224E012743464A4603A92846009701F028F80E281DD0AD
:40F30000E0B9BDF80E10491C29803268BDF80C1011552244090A5170BDF80E109170090AD170241DBDF81410A4B28C4205D8BDF8081001F10101ADF80810D8D3BDF808100F
:40F3400039B1306801AA00F101004FF0070101900BE02988ADF810104FF006018DF812108DF8130004AA4FF001015046F9F714FAB8E700000C8600082DE9F04F83468DB099
:40F3800000200F46ADF822008046022401250AA95846F9F79FF920B142F613700DB0BDE8F08F06A8DFF8F0900DF1200A0B9038887988884201D14FF00108CDE900BA0023B9
:40F3C00002AA38460B9901F0CFF806460E2849D0EEBBBDF8220040B19DF82000A84244D1012D05D0022D17D02CE09DF82050F7E7D9F800002044FFF7F1FC042832D3D9F8A5
:40F400000010BDF818000855020A0819241D4270BDF80810418014E0D9F800002044FFF7DDFC12281ED3D9F80010BDF818000855020A081902A94270801C1022F6F77DFEF6
:40F440001234A4B2BDF82800844206D800E009E0BDF82210491CADF82210B8F1010F01D08442A4D3BDF8220040B18DF82050D9F8000007AA801C0521079009E03888ADF8D6
:40F48000240004208DF826008DF8276009AA01215846F9F781F981E70C8600082DE9F04F1C468BB00E460546D4E900013E4F9346CDE90601ADF820606A784FF00F087968BE
:40F4C00008EB02104FF0000A085C012803D000212846FFF74FFCADF80CB0ADF80860D4E90001CDE9000169462846FFF7B3FC04004FF00E0934D12888ADF814006978786860
:40F5000000EB0111096804916A7809EB0211405C8DF816008DF8174004A945F20F00F9F773F86A78796808EB0210085C012801D0062419E09DF8174094B944232A46594686
:40F5400006A800F089FE040003D0072C01D00D2C0AD16A4617212846F9F71EF98246FCB1072C1DD00D2C1BD0ADF8246016208DF826008DF8274009AA01212846F9F70CF933
:40F580008246092C03D069462846FFF73DFC6A78796809EB0210085C10B92846FFF702FC0BB05046BDE8F08F18C700082DE9F04F89B00E46002792468346ADF80E70022488
:40F5C00008A9F9F787F820B142F6137009B0BDE8F08F4FF010092E4DADF814900DF11808286853462044001D049004AA08F104010097304600F0AAFE0E282CD058BBBDF8BF
:40F600000E100029BDF8141030D0BDF80C20914224D1BDF81E10491C31802A68BDF81C1011552244090A5170BDF81E109170090AD17004990691BDF81410241D21448CB2CC
:40F64000BDF820108C4205D8BDF80E1001F10101ADF80E10C4D3BDF80E1051B1286802AA00F102004FF0110102900CE0ADF80C10CFE73188ADF804108DF806908DF8070076
:40F6800001AA4FF001015846F9F786F89EE700000C8600082DE9FF4F064689B000208A46ADF81E0005469346022402A93046F9F711F820B142F613700DB0BDE8F08F3F4F38
:40F6C0000DF130080DF114093868CDE900682044801C039003AB5A464946504600F044FF0E284AD0E8BB364BBDF814101B6801EB810203EB820252F8102C6FEA0202D2015B
:40F7000012D43288ADF80020ADF802108DF80400694645F21700F8F777FF41233246002103A800F099FDE0B9BDF80810BDF81020091F8A4201D9ADF81010BDF81E1049B3D7
:40F74000BDF81010A9421BD13A68BDF8141011552244090A5170BDF81010A41C21448CB200E00AE0BDF808108C4205D8BDF81E1001F10101ADF81E10A6D3BDF81E1061B130
:40F78000ADF81C50386806AA00F102004FF0090106900FE0BDF81050D6E7BDF81410ADF820104FF008018DF822108DF8230008AA4FF001013046F8F7EFFF7DE70C860008BC
:40F7C000208600082DE9F04F89B00F460024934682460125264608A9F8F77CFF20B142F6137009B0BDE8F08FDFF8D8804FF6FF7907EB4400407809EA0020ADF8080017F8F4
:40F8000014100843ADF80800D8F800102944009100F096FF30BB2C4BBDF808101B6801EB810203EB820252F8102C6FEA0202D2010FD4BAF80020ADF80C20ADF80E108DF832
:40F84000100003A945F21700F8F7DEFE9DF8100040B9412352460021684600F0FDFC0E2827D0B0B10E218DF8161007EB4401497809EA0121ADF8141017F814201143ADF8E7
:40F8800014108DF8170005AA01215046F8F784FFA7E7BDF80400641C41198DB2BDF820108D4202D8304486B201E0491E8EB25C459ED3ADF81C60D8F8000006AA401C0F214E
:40F8C0000690E2E70C86000820860008F0B589B006460020ADF810001D4617460C46084600F02EFFE0BB2A4A04EB8401126802EB810151F8101C6FEA0101C9010ED4318844
:40F90000ADF814108DF81800ADF8164005A945F21700F8F779FE9DF8180008BB03A93046F8F7D8FEBDF80C00ADF8040019484123324600680090ADF808403946684600F004
:40F940008BFC68B904A9204600F01AFA40B90C2D07D1BDF80C00BDF81010884201D90B2005E06A460A2D0FD00C2D0FD004208DF81E50ADF81C408DF81F0007AA0121304691
:40F98000F8F70AFF09B0F0BD0B21F8E70D21F6E7208600080C86000810B5044920B1821C0121FEF78BFD0146084610BD0100160010B5074948B1074B42881B889A4204D86D
:40F9C000821C0321FEF77AFD0146084610BD000001001600CC85000810B5054928B102461B210C30FEF76AFD0146084610BD00000100160001B5002213216846FEF75EFD7C
:40FA000008BD7FB50B46050008D000226946184600F016F80400286803D00AE00E2004B070BD50B1AA8842B16946F6F777FB00B10E2000B10A242046F1E70020F9E70000E2
:40FA40002DE9F84F4FF0000A14460F465FEA0009ADF800A003D04D490988894502D90120BDE8F88F00F05EFB012802D00A252846F6E7DFF81C8109EB8906D8F8000000EB3A
:40FA8000860030F8121C50F8100C020101D5102004E0400101D5042000E0022000254FF0010C3CB102281AD004281BD0102819D084F800A042F60113CA1A99422BD019DC1B
:40FAC00042F60203A1EB0302994224D00DDCB1F5205F20D06FF420528A1813D11BE084F800C0E7E702222270E4E7012A13D0FE2A08D110E0012A0ED0022A0CD0032A0AD073
:40FB0000042A08D042F6030202280AD0042810D010280ED038E03980002CA8D084F800C0A5E7D8F8000000EB860030F8260C39809DE7D8F8001001EB860131F8263C934294
:40FB40000BD151F8180C002891D0416800298ED010223846F6F7F1FA89E7102814D36946484600F00DF9050081D1D8F8000000EB860050F8040C0028D2D040680028CFD010
:40FB8000BDF800100144E3E70E2570E716860008208600082DE9F04115460E0007464FF00E0430D000F0BEFA01282CD11E4807EB8701006800EB810050F8102C30F8121CEB
:40FBC000130101D5022201E0C2F3806242F6011399420ADAB1F5205F0DD06FF42053C91809D0012907D0022910D02B463146384600F078F904E02DB93146384600F0F6F971
:40FC0000044600E007242046BDE8F081002DF9D14068010101D5022201E0C0F380623146384600F0FDF8EBE7208600082DE9F04705009A4617464FF00A00118003D0214AE1
:40FC40001288954202D90120BDE8F087DFF878C001EB8106DCF8002002EB860232F8123CB3F5205F03D042F60104A342ECD132F8143CAB42E8D232F80C2CAA42E4D30C4647
:40FC800042F60309E0460FE004EB840201EB820131F8122C4A4505D152462146284600F0A3F860B1641CA4B2D8F8001001EB860232F80C2CA242C7D3A542E5D2C4E73C8023
:40FCC000C2E7000016860008208600082DE9F047074601EB810015490A2642F6030A0A68884602EB8000143842F60209048905883D8012E0D8F8000004EB840100EB81007A
:40FD000030F8120C504501D0484504D1204600F009FA012806D0641EA4B2AC42EAD83046BDE8F0873C800026F9E7000020860008F0B50A2201230B8018B10F4B1B889842B3
:40FD400001D90120F0BD4FF420560C4C751C00EB8003276807EB830333F8123CB34201D0AB4201D108800022401E0004000C01D00A2AECD01046F0BD168600082086000898
:40FD800000EB800307480022006800EB830050F8040C18B143680BB1008800E000200880104670472086000801004FF0010013D00B4A1268002A0FD00A4B491E1B88B3EB42
:40FDC000D10F09D902EBD10001F00702007801219140084201D0002070470120704700001C8600081486000810B501EB81040B4903460020096801EB840131F8144C9C42CC
:40FE000003D831F80C4C9C4201D20A2010BD11F8101C01F01F01117010BD0000208600082DE9F041064615460C004FF00E0054D02068FEF7D3FF00270146A780022D26D008
:40FE4000012D24D00520884245D8254A06EB860023681168761C01EB800151F8101C090C1970A188491C89B2A18023685E54310AA688236833445970A188891C89B2A180D3
:40FE8000022D06D0012D04D0ADB10A2724E01320D9E7126802EB800050F8040C40B1406830B122685318014610221846F6F745F9A08810300DE0126802EB8000226830F817
:40FEC000080C5054A2882168000A11444870A088801CA08000E00E273846BDE8F0810000208600082DE9FF5F4FF000088246ADF80480ADF808808DF80C80ADF800801F46D1
:40FF00000D46C1460868FEF769FF064669465046FFF736FF04004DD1A5F8048001A95046FFF706FF040045D1BDF80410DFF88CB00AEB8A088A4512D0DBF8002002EB8800CA
:40FF400030F8122CA2F52050023808D003AB02AA5046FFF76BFE04002CD14FF00109BDF80000C01B80B2ADF80000DBF8001001EB880131F8262CA2F52053033B06D0B9F167
:40FF8000010F03D0B04205D90E2413E0B04201D9ADF8006051F8040C38B1406828B1C119BDF800202868F6F7C8F8A888BDF800100844A88004B02046BDE8F09F2086000884
:40FFC00001EB8103084910B50968002401EB830151F8041C29B1496819B1F6F7AEF8204610BD0E2010BD0000208600082DE9F041074616460C004FF00E0075D02068FEF73E
:020000041002E8
:40000000EDFE3A4B0025A58007EB87011F6807EB810131F8122CB2F5205F03D042F6010C624521D1022E04D0012E02D07EB10A2559E0102856D351F8040C28B1416819B1B1
:4000400010222068F6F779F8A08810300AE0022804D331F8080C216808703CE00E25A08800F10200A0803EE0A2F52056023E3AD131F8081C01EB810207EB820656F8106CD7
:40008000370101D5022601E0C6F38066062829D320680170080AA788216839444870A088801C81B2A1801868276800EB820030F80C0C7854A7882168000A39444870A088A9
:4000C000801C81B2A18076B9186800EB8200226830F8080C5054A2882168000A11444870BDE701E00E252846BDE8F0812086000870B505460A4801EB81010024006800EB2F
:40010000810050F8040C40B1406830B110441A462946F6F712F8204670BD0E2070BD0000208600083EB50546FFF73EFE040019D069462846FFF7FCFDA0B9BDF80000854278
:4001400010D0FFF731FE04000CD002AB01AABDF800102846FFF76AFD20B9BDF80400FFF723FE044620463EBD2DE9FC478A463849002600EB80000968174601EB800035466E
:4001800050F8104CB046B146D00702D0C4F3430604E017F0060F01D0C4F3432640F20220044205D0200F00F1060803F0EBFE8146F80703D0E00708D1022546E017F0060FD9
:4001C00043D0E00501D403253FE02EB3BAF1000F0AD00020009001906946504601F0D8FCF10725D018B116E00E20BDE8FC879DF8030001F037FD012801D00F2525E0B00782
:4002000003D59DF80000022805D3300705D59DF80000032801D2052517E0B8F1060F07D09DF80200404501D3484501D20C250CE0F80701D0200704D417F0060F05D02005A3
:4002400003D50448007800B908252846CDE7000020860008108600082DE9FF4104460020ADF800001D46208913460E4618B1364F7988884203D9012004B0BDE8F081690621
:4002800005D52A461946FFF76FFF0028F4D1208901A9FFF74DFD08B10A20EDE7B4F808C0BDF804108C4511D0FB680CEB8C0203EB820232F8122CA2F52053023B06D003AB7E
:4002C00002AA6046FFF7B2FC0028D5D1E90712D020896946FFF754FD0028CDD1BDF80000864200D928B9208932462146FFF752FCC2E70720C0E7A90701D46907BCD5218959
:40030000FB6801EB810203EB820333F8122CA2F52057033FB0D0B2F5205FADD042F60107BA42A9D0A28833F8083C97199F4207D8AB07A1D5134632462068FFF7D9FE9BE70E
:40034000B342D6D90D2097E7148600082DE9FF4F87B004460020DDF85090ADF8000018880A259B461746B0F5205F05D042F60101884201D0102513E02688DFF8E8A106E036
:400380003046FFF7CFFE01280ED0761CB6B220886188884204D2BAF80210D0468842EFD90BB02846BDE8F08F69463046FFF7C0FC0546BDF80000FFF7B5FE002D7ED1BDF868
:4003C0000010B1427BD1012878D1C246D8F80C8001EB810108EB810050F8101C6FEA0101090109D450F8040C70B1416861B1102201A8F5F7A2FE07E010F8081D8DF80410F8
:400400000088000A8DF80500B9F1010F03D0B9F1000F07D079E0BA8801A93868F5F77EFE50B172E006EB860208EB8200BBF8001030F8120C814268D1BDF80000DAF80C104D
:4004400000EB800001EB8000564630F8141C08980180BDF8001005A8FFF738FCBDF81400F16800EB800001EB800030F80C1C08984180BDF80000F16800EB800001EB800164
:4004800051F8100C6FEA0000020101D540012AD4B9F1010F04D03868FEF7A0FC102820D3BDF80000F16800EB800001EB800050F8040C40B1416831B1102201E02FE02CE095
:4004C0003868F5F73AFE1020B880BDF80000F16800EB800001EB800030F80C0C401C20805EE70E255CE711F8080C39680870BDF80000F16800EB800001EB8000396830F810
:40050000080C000A48700220DEE7BDF800000A2500EB8001DAF80C0009E0012803D028430CD00A253CE7D8F80C0001EB810100EB810030F80C0C401C208011E0BDF80000BA
:40054000D8F80C2000EB800002EB800030F80C0C401C80B22080B8F80210884200D90A2586B214E7148600082DE9F04F87B09246002205468DF80C200088DDF844B00A26CD
:4005800098460F46002873D069880029FBD088426ED8B8F1000F0CD09BF80000CDF800A0022808D00220ADF804002C88DFF88C9152E00092F9E71020F5E704A92046FFF7EE
:4005C000B7FB0646BDF81000FFF7ACFDA6BBBDF81010A14231D1012831D1D9F80C0004EB840100EB810030F8120CADF81400009828B1022205A9F5F791FD00B10E200028D3
:400600004ED13C80B8F1000F08D0D9F80C0004EB840100EB810030F80C0C5CE0D9F80C0004EB840200EB8200698830F8140C401C814278D3288076E001E0012819D03C8007
:40064000D9F80C0004EB840100EB81000A2630F80C0C401C84B22C806988A0B2884203D8B9F802108842A8D9B8F1000F5AD0A6B360E0D9F80C0004EB840200EB820030F8B7
:40068000122CA2F52053023B0BD0288803AB06AAFFF7CCFA0646BDF81800FFF743FD4EB132E010F8100C00F01F008DF80C002046FFF738FDB8F1000F24D0012824D121462A
:4006C0006846FFF79EF906001ED19DF80C00C00715D03C802888401C28803888ADF80800D8F800000090B8F80400ADF80400412300216846109AFFF7AFFD70B119E0022622
:400700003C8017E0012803D03C800A262888A0E73C802888401C2880A6E7BDF80410A8F8041007E036B938885A465146FFF788F900B1064607B03046BDE8F08F1486000839
:4007400018B104494988884201D9012070470020704700001486000810B50A4978B103686BB182885AB10849CB604A80C0888880886818B10A880021F5F705FD0021084661
:4007800010BD0000010016001486000838B504004FF00E0009D00020ADF8000025891DB112484088854201D9012038BD69462846FFF7E6FAA188BDF80020914200D809B924
:4007C00000B9A280217C4A0608D50028EDD141F0010204F10E012846FFF7C6FC0028E4D1A28829462068FFF7EBFB38BD1486000810B50E2180B1018919B1084A5288914227
:4008000001D9012010BD017C00F10E0241F002038189FFF721FD0146084610BD1486000838B50C4642F2130168B164B1694600F0BDFF10B18178012907D04FF6FF702080FB
:4008400042F2170038BD084638BD00882080002038BD38B50C0042F213010AD048B1694600F0A4FF10B18178012904D042F2200038BD084638BD80792070002038BD000080
:4008800001004FF0000002D0024A1160704742F2130070474886000813B501AA012100F06DF91CBD134619B10A46194600F066B942F21300704770B588B013000C4605462E
:4008C00005D01F2C06D942F2120008B070BD42F21300FAE76E468DF8004022461946701CF5F72BFC3019C4F11F02401C0021F5F74AFC6A462021284600F040F9E5E708B5E8
:40090000B1F5706F02D342F2120008BD8DF80010090A8DF801106A46022100F02FF908BD0C4A10B50A4B117833F82140844209D14FF6FF7023F82100FF2003EB8103491C59
:4009400098701170C8B2052801D10020107010BD80C700085986000810B5094C074B227823F8220003EB8200521C8170D0B22070052801D10020207010BD000080C70008E3
:40098000588600080749064A097832F82130834203D102EB810080787047FF207047000080C70008598600082DE9F34F5F4983B04FF0000B81F800B042F2170ADFF8708130
:4009C000DFF87091ACE05C480168B8F8000001EBC005A879012871D1A88804902C684FF6FF7142F215026078267801EA002006430027B01A964240D018DC42F20502A6EBDE
:400A00000200964252D00ADCA6F58060063834D0A0F50060753830D0012854D12DE001284ED0082811D00E284DD117E00B2824D006DC012821D0042810D0052843D11CE00B
:400A40000C281AD01D283ED108E0E17B012903D03A48F8F7DFFF36E03948FAE7207901EA0021E078084301A900F0DAFE38BB9DF804103046FFF770FF25E0207901EA002121
:400A8000E0780843694600F06FFE18B100988078012800D05746A6F58060063804D1574511D00099072088706FB123E02548D4F803100160B4F80710818004E00EE019E076
:400AC0002149207A0870012321461846049AF7F78BFB30B10021012000F0ECFE05B0BDE8F08FA6F54060353804D099F80010491E89F80010204603F047F985F806B0C5F80B
:400B000000B0A5F804B0B8F80000104B401C80B2A8F800001B785946834201D1A8F8001099F8000000287FF44EAFD7E72D860008348600082A860008408600084C8600083E
:400B4000528600085A860008618600082C86000810B5084C00202178002909D100231A460549184602F044FD002801D10121217010BD00002D860008A90902102DE9F04787
:400B800007462248DFF888800E460168B8F80000914601EBC005A87930B10121022003F073F842F223041AE0F01C03F0CDF8040018D02770380A6070E01CA6705FEA0901F3
:400BC00002D03246F5F7B9FA2C60FFF7C1FF04004FF0000709D0286803F0D6F82F602046BDE8F08742F20500FAE7F61CAE800120A871B8F80000074A401C80B2A8F8000082
:400C000012788242EBD1A8F80070E8E740860008368600082C86000800221146FFF7AEBF01794FF6FF7202EA0121C2780A438178104601F071BE00002DE9F041464904464F
:400C40008078087008B1FFF783FF20794FF6FF71E57801EA002005437BD04048A5F58052093A05D1D4F8061001606189818066E0A5F50052023A0ED1E079A67901EA00207F
:400C8000277A064339463046F9F774FF06B117BB0C20607153E0A5F5005242F21701183A01D08D420ED18D4206D12D490878A070FE2805D0401C0870204601F00BFE3EE037
:400CC0000020F8E7A5F57D41C13901D0491E03D1204600F0B1FE32E02249A5F57D42A13A08D1D4F80620026062898280E0680860208A23E0A5F57D40C03803D1A079F7F740
:400D00008DFC1CE0A5F57D40B338607904D1B0B9A01D00F0CDF912E088B9A5F50050063804D1114811490078087008E0A5F50050053804D10E4802680A60808888800D481C
:400D40000078002805D161792846BDE8F04100F0D5BABDE8F08100002A8600084C860008298600085286000861860008608600085A8600082F86000810B50E490446C07801
:400D8000087008B1FFF7E4FE60794FF6FF7202EA00222079A17810430BD0074A1278002A07D1A0F54062633A03D1BDE8104000F0A5BA10BD2A8600082F8600082DE9FC414F
:400DC00001A8F8F739FA00282ED19DF8040003282AD10024154D4FF6FF76154F12E0296801EBC400427962B131F83410B14208D000F004FD2868032100EBC400001DF9F704
:400E000013FA641C38788442E9D303208DF800000C208DF8010000208DF802000123032269461846F7F7E0F9BDE8FC813C8600085A85000870B500240A4D0B4E0BE004EB2F
:400E4000C40116F8210006EB81014A78891C00F04DF8641CE4B228788442F0D30020287070BD00002486000838C7000870B5242A11D8094C2378022B0DD0084D03EBC30333
:400E800005F8230005EB83004270801CF5F755F92078401C207070BD2486000838C7000810B5C01C01F058FE01490020087010BD2E86000870B58578C41C4FF6FF7610E0AE
:400EC0006078217806EA00200143C1F30B00E17806EA0122A1781143F9F7C4FE6D1EEDB2241D002DECD170BD00F0E3BB2DE9F84F684E8146174630780C464FF00008022831
:400F000006D0B9F1020F0BD0B9F1040F07D117E061480368002B02D0D2B248469847B5E0381F82B2211D204603F096FAA0F50C512C3904D13A4621464846FFF797FFA5E0BE
:400F40005648006800286ED05548006800286AD06178B81E25780090814264D1012030704FF6FF7B4FF0000A102D29D008DC052D0FD0082D15D00E2D18D00F2D5BD11AE037
:400F8000132D20D0302D0CD03E2D21D0FF2D52D14AE03946204603F081FD8046307880B349E039462046FFF73BFE44E039462046FFF742FE3FE039462046FFF7DDFE3AE091
:400FC000FFF7FCFE37E039462046FFF773FF32E0A078012808D00A2806D032490528098810D0032815D026E03946204603F09EFC2C48018859451ED02B4986F800A081F835
:4010000000A00AE0594506D139462046FFF748FF11E059450FD086F800A03A4621464846FFF724FF07E031E0A078022803D12179E07800F02DFD1D4F3878012802D086F8C6
:4010400000A00AE03078012807D11348036823B10098A11CC2B2284698470F2D02D0052D08D00CE060790BEA002120790843FFF757FC04E05FEA080001D000F0BFFB38780D
:40108000022803D1F8F72EF9012038700020BDE8F88F00002E86000848860008408600083C86000838860008248600082F8600082DE9F041C17804780A02817805791143D5
:4010C0000A02417890B0114344EA0124C179827942EA0122417903A841EA022145EA012519F030FC0126DFF87C800027E4B102208DF80100BDF8380080060FD59DF8130026
:401100008DF8006000EB400101EBC000082101EB8000CDF80880ADF8020001E08DF8007068460194F6F7D2FF002D18D004208DF80100BDF8380040060BD58DF800609DF846
:401140001500CDF80880C0EBC0000830ADF8020001E08DF8007068460195F6F7B7FF10B0BDE8F081E90E021001480089704700002886000801484089704700002886000869
:401180000248002181614161704700002886000838B504460020009094F83000C100684619F088FB00280ED1074D0098686194F8300000EB40000101684619F07BFB00283B
:4011C00001D10099A96138BD288600080248007A00F001007047000028860008014908817047000028860008054A002118B11B2802D2044870471B20508108467047000009
:4012000028860008010016002DE9FC4121A00026D0E90010CDE9001020483446A0F1240506608680C5F82A60EE850120A870EE70AE711B4F05E0686900EBC40000F0DEFA09
:40124000641C38788442F6D3AE81EE816E710020AA6906E042F8306002EBC001401C8E808E7129798842F5D3EE712E706E704FF6FF702882287FC00707D00822694640F677
:401280000140FFF70FFBBDE8FC8140F60340FFF7C3FCF8E7FFFFFFFFFFFFFF2F4C8600085A85000870B500242646134D0DE0A86900EBC4018979012906D150F8340002F0A1
:4012C00063FDA86940F83460641C28798442EED3AE81EE816E710020AA6906E042F8306002EBC001401C8E808E7129798842F5D32E62EE7170BD00002886000810B52DA3F7
:4013000086B0D3E90043CDE900432CA3D3E90043CDE902432BA3D3E90024CDE90424024642F20100131A4FF6B35482422DD00CDCA2F54062013A1DD0022A14D0622A1ED0A0
:40134000A2F58062043A1ED125E0012B23D0A3F55D43A03B1CD0122B15D1FFF737FF1B4C01281CD023E000290DD10822694640F6014006E0082202A940F6634001E00822E0
:4013800004A9FFF78FFA06B010BD4FF6A15003E042F2020000E02046FFF73EFCF3E760891B2804D9C100703189B200F0F4F80220E071E8E7FFFFFFFFFFFFFF2F0000800073
:4013C000000000007F0000000000000028860008054900200862C8610448007800EB40004000087170470000288600085A85000830B50D461446010089B04FF6FF7042F207
:4014000013021DD0E5B1002C18D010226846F4F794FE1022294604A8F4F78FFE20216A4642F21700FFF7AAFB002807D1064B197821701978FE2905D0491C197009B030BD73
:401440001046FBE70021F8E72886000800B585B031B1B0F5706F06D342F2120005B000BD42F21300FAE78DF80000000A8DF8010010220DF10200F4F760FE12216A4642F2CE
:401480001A00FFF77BFBE9E72DE9FF4704460DA8DDF83090E0C84FF00F0AE5B3A4F1200843F6E17C42F21200E04531D2A1F12008E0452DD2042A2BD8032B29D8B9F1010F95
:4014C00026D8A6F1010CBCF1070F21D2032F1FD88DF80040200A8DF801008DF804208DF80210080A8DF805308DF803008DF806902868CDF80700A888ADF80B008DF80D6019
:401500008DF80E706A46514642F20600FFF736FB04B0BDE8F087FFE742F21300F8E70A4608B50221012802D942F2120008BD8DF800008DF801206A4642F20C00FFF71EFBBB
:4015400008BD10B588B042F2130431B12BB1B0F5706F04D3601E08B010BD2046FBE78DF80000000A8DF801000868CDF802004868CDF806008DF80A20100A8DF80B001022A8
:40158000194603A8F4F7D9FD1C216A4642F21900FFF7F4FADFE708B504238DF80000000A8DF801008DF80210080A8DF803006A46194642F22400FFF7E1FA08BDF0B587B079
:4015C0000F0A8DF804008DF80520100A8DF80600100CDDE90C548DF80700100E8DF808008DF80930180A8DF80A00180C8DF80B00180E8DF80C008DF80D50280A8DF80E0000
:40160000280C8DF80F00280E8DF800108DF810008DF801700F0C8DF81140200A8DF812008DF80270090E200C8DF803108DF81300200E15268DF814006A4631464FF6AC5006
:40164000FFF79CFA07B0F0BD08B50B468DF800008DF801308DF80220100A8DF8030004216A464FF6A550FFF789FA08BD1CB50A0A8DF800108DF801200A0C8DF80220090EA7
:4016800005238DF803108DF804006A4619464FF6C150FFF773FA1CBD08B50A468DF800008DF8012002216A464FF6C250FFF766FA08BD01B56A4601214FF6B450FFF75EFAA4
:4016C00008BD38B50D460446B0F5706F02D342F2120038BD694600F047F820B12946204600F004F838BD42F2170038BD08B56A468DF80000000A8DF801008DF80210032125
:4017000040F20640FFF73AFA08BD00002DE9F8438046694600F04AF8A8B90024104D41F21246104F0CE0286800EBC400407930B941466846F7F754FEB04207D030B1641C12
:4017400038788442EFD30020BDE8F88328689DF8001000EBC400017101214171F4E700003C8600085A850008F0B506460D48002305680D4804780FE005EBC300427952B134
:40178000002230F82270B74203D100EB82020A60F0BD521CF5D05B1CA342EDD300200860F0BD00003C8600085A8500082DE9F0410E46804600240F4D0F4F16E0286800EB15
:4017C000C400407980B141463046F8F7D5F858B92968307801EBC4010979884204D1286800EBC400BDE8F081641C38788442E5D30020F7E73C8600085A85000810B5FF21CF
:40180000017100214FF6FF72022320F8212000EB8104491CA370F8D00021417110BD0000F0B50546FF2202200A7000230C4E0D4F11E0326802EBC304627952B1002234F8A0
:4018400022C0AC4503D120790870002001E0521CF5D05B1CDBB23A789342EAD3F0BD00003C8600085A850008F0B507464FF6FF7008800F4A02200023DFF830C0167812E0C3
:40188000DCF8002002EBC304627952B125790022BD4204D134F822000880002001E0521CF6D05B1CDBB2B342EAD3F0BD3C8600085A8500080EB5CDE900100B20ADF808008E
:4018C0000020ADF80A0003486946006818F0A3FF0EBD0000B08700082DE9F0471D46089E5FEA02088A46814607D000F093F80446122805D34FF6FF7526E042F2130523E007
:40190000194F89F800405DB156B1304602F01CFA07EB04114860D0B132462946F4F70DFC4FF47A700AFB00F12046FFF79FFE050010D0122107EB041489F80010606802F057
:4019400023FA0020606060812846BDE8F08742F20505F9E707EB041001210472C0F8008046810173F0E7000094C700080B4600280DD1122B0BD2094800EB0311087A984279
:4019800005D14A72087B042802D00220087370470320087311461846FFF77EBE94C7000830B40246002042F21204122A0FD20B4901EB02110B7A122B09D0934202D10B7B09
:4019C000012B07D0497A30BC1046FFF765BE204630BC704704220A73FAE7000094C7000810B5002812D1122910D2094800EB0114207A12280AD0606808B102F0C5F9122186
:401A000021720020206060816172207310BD000094C70008074A002002EB00110B7A122B02D1097B002903D0401CC0B21228F3D37047000094C7000801794FF6FF7202EA74
:401A40000122C17843791143A1F57D41C13905D0012908D181791846FFF7C2BFC27981791846FFF783BF704710B50021074C0A46122304EB0110491C037243720260426032
:401A80004281C9B202731229F3D310BD94C7000870B50D4A02EB0014607A884212D1D4E900256189002A0DD02846904715B1284602F06AF900202060608112216060217296
:401AC0006172207370BD000094C700082DE9F04100250C4F4FF012082E4607EB0514207A122808D084F808802660606810B102F04BF9666066816D1CEDB2122DEDD3BDE8E3
:401B0000F081000094C700082DE9F0471D46DDF824A090460E0081460CD05DB101F0E6F9044618480178491CA14206D142F6A160BDE8F08742F61160FAE7134F386800EB15
:401B4000841001F051FF4FF0FF3108A801F0BCFA0146386800EB8410847601775FEA090100D0012141764660A0F80C80C0F814A008210560017605498160BDE8F04701F0BF
:401B800067BE00005A850008748600087D1F021070B50C4658B30178FF2928D03CB342F612654FF0FF3101F08FFA14490988814222D0134E00EBC00101EB4015306800EB53
:401BC0008500407A00F00F01E170890701D4C00610D53068214600EB8500C07A00F014FB306800EB85000025007BA07004E042F6116070BD42F61665284670BD6C860008E3
:401C00007C86000870B515460C4618B30178FF2920D0FCB1F5B142F612664FF0FF3101F053FA0E490988814212D000EBC00101EB40100B490A6802EB8002927A2270096803
:401C4000412201EB80014F312846F4F776FA0026304670BD42F6116070BD00006C8600087C860008C0F38100022801D00020704701207047F8B50C00054618D101466846E8
:401C8000F7F77AFE10B96846F7F70AFD0C4E317801EBC10000EB41100A49096801EB80000D302946F7F7C6FE0748007830700748026812B12146284690470020F8BD000074
:401CC000688600087C8600086C860008648600082DE9FE43984615460E4670B10178FF290BD04FF0FF3101F0EFF91E490988814206D142F61260BDE8FE8342F61160FAE743
:401D0000832E19D042F61464002101F08FF8074615480078B84223D0304601F0FDF88DF80A0000208DF80B000095ADF808806946384601F043FA12E000EBC00101EB40101F
:401D40000A49096801EB800040881DB12946FFF77DFB04E0014642F21B00FEF7D0FD04462046C8E76C8600085A8500087C86000818B1034908600020704742F61160704786
:401D8000788600082DE9F041154A0368164E1360808890801348154F002401603078387042F61960124D13E004EBC4012A6801EB441102EB81014A7AD20607D58A7A92067C
:401DC00004D52831064800F0B9F830B1641CE4B231888C42E8D3BDE8F0813C70FBE7000080860008648600086C860008688600087C8600082DE9F0478946074642F61266D2
:401E00000024184DDFF8608019E004EBC400296800EB441001EB8001487AC0060DD5887A80060AD5B87991F83820904205D1393106223846F4F772F940B1641CE4B2B8F8D1
:401E400000008442E1D33046BDE8F08704EBC400296800EB441001EB80000026417B89F80010F0E77C8600086C8600082DE9F0411D4616460F46002856D00178FF2953D0AC
:401E8000F7B3EEB3E5B342F612644FF0FF3101F01BF927490988814243D03978254F00EBC00202EB4014386800EB840081723178C9070ED04F3010222946F4F73EF93868F8
:401EC000296900EB840040F85F1F69694160298B01813078800717D53868102200EB8400693005F11A01F4F728F93968124801EB840101F17A01827901F8012C026800E02C
:401F000012E00A60808888803078400708D53868102200EB8400803005F13101F4F70DF900242046BDE8F08142F61160FAE700006C8600087C860008B886000870B50A00BC
:401F400007D030B10C4D2978FF2905D042F6176070BD42F6116070BDC11CA860104601F059F90400F7D1032028700121092001F08BFE204670BD0000B4C80008094908B510
:401F8000096801EB8010417E51B10B21427FFF234377037E00934369007F00F08BFA08BD0A21F3E7748600082DE9FE4F394DFF274FF000082978DFF8E0904646BB46022934
:401FC00002D0032953D107E00188A98180780827A87305F10C064AE0AB68014603221846F4F79CF808B14FF6FF78AE682B4A85F800B0B9F800101078814237D034680194E4
:40200000B488ADF8084001248DF80A40CCB2B8F1000F1ED000F10100C4B2DFF884A014E004EBC40000EB4411DAF8000000EB8101487AC00607D5887A800604D52831194857
:40204000FFF77CFF70B1641CE4B2B9F800008442E6D3B9F80000A04209D1414601A8FFF709FE04E00D480470BDE8FE8F092785F800B00021092001F007FEFF2FF4D006205A
:40208000009099F8000033464246394600F012FAEAE70000B4C800086C860008688600087C860008808600082DE9FE4F89468346002100F0BBFEDFF8D0A006469AF800102C
:4020C000B14204D900F0A2FA304600F083FEDFF8BC800BEBCB0101EB4B13D8F80000002500EB83002F46417AB9F1000F01F0F00422D104F0FC01891C01F0F30141F00804A2
:402100009AF80010B14217D90021019102914546C07A01A900F078F8286800EB8300007B8DF80600E00605D49DF80500012801D144F0100401AD0527D8F8000000EB83004D
:402140004472584601F00EF8B9F1000F0ED16DB15946022002F0F8F86878012806D10C48008818B1584600F0E7FE83460021092001F08AFD2B464A4601215846009700F0F0
:4021800099F9BDE8FE8F00005A8500087C8600088686000870B50546194E00EBC50000EB451430684FF6FF7200EB84014A804FF0FF324A6010F8242002F0F30200F824207A
:4021C000487A00F0F00048720021284600F02EFE0C490978814204D042F618612846FFF763FF306810F8240000F00300022805D12846BDE87040012100F020BF70BD00005C
:402200007C8600085A85000800220A7100F00302012A00D000224A70020701D5032204E0420701D5022200E001220A70020709D5420701D501220A71C00603D5087940F0A9
:402240000200087170474278012A00D00022037803F00F03022B01D142F00402032B0DD1007942F00C02C30702D042F0040201E002F0FB02800701D542F010020A70704763
:40228000042807D8042905D8034A01EB81011144085C704700207047546D011010B5094B044600201B78072B0BD98C4200D22146994206D240F20641104600F01FF94FF633
:4022C000FF7010BDAE860008024610B500200B46120706D440F20341184600F00FF94FF6FF7010BD7CB50B4600EBC00101EB40101B490026096801EB8004657A05F00300FC
:40230000022801D0E80629D5A07A4FEA1010C00702D1E07A000721D5E07A6946FFF774FF207B8DF802001946684600F0ADF9A0B9E07F4FF6FF7202EA0020A27F04F120016A
:402340000243608804F10E03FFF7FBF8060004D105F0F3052D1D42F61766657230467CBD7C86000870B5134D00242D7805B30AB9012807D008074FEA41700BD5002807DA3F
:4023800008200CE0080701D5202008E0102006E0042004E0002801DA022000E00120054206D140F20341184600F0A8F84FF6FF74204670BDAD8600080B4900780978884299
:4023C00010D200EB800101EB40100849096801EB80025268FF2A05D011F8200042F61561FFF762BE704700005A8500087086000810B50A4C217801290FD10188A4F80F10E0
:40240000807804F10F0100F07F0040F040006074606800F0FFFE0220207010BDB4C80008042807D8042905D8034A01EB81011144085C7047002070476D6D01102DE9F047E5
:402440008046581D85B21E4691460F46284601F07BFC040019D0277132464946601DF3F76CFE08EBC80101EB481010492B462246096801EB80000D300621F8F79DFC050027
:4024800007D0204601F080FC0DE042F60560BDE8F0870021404600F0C9FC05490978814201D900F095F82846F1E700007C8600085A8500087CB50E4C069D2468ACB1FF2614
:4024C0008DF804600B4E3688B0420AD200EBC00606EB4010084E366806EB8000407B8DF8040001A80095A0477CBD42F611607CBD788600086C8600087C86000838B50C46EA
:4025000021F480610091054601236A460521FFF795FF21462846FFF7C7FD002038BD00002DE9F0470D460646914611F801AB1046FFF789FE99F80200687295F810806F7CE1
:4025400005F11204012E09D14FF0FF08E41F474649465046FFF7C6FE002835D1231D2246611C504601F0F8FC99F8010008B9002020700AEBCA0101EB4A101449096801EB00
:4025800080000D30A11C01F0E7FD2078022E00F00701C0F3021008D10A4601461046EA7B23799A4200D31A466A7226706A78E27001EA080161713840A0710623621C31465E
:4025C0005046FFF73BFF0020BDE8F0877C86000801B582B09DF8080000F018F8012000909DF8080002AB00EB800101EB40100549054A096801EB800059301E21FFF76CF90A
:402600000EBD000070860008B923021070B50A4D00EB800101EB4014286800EB840090F85900122807D0FFF7BBF92968122001EB840181F8590070BD7086000810B5827830
:4026400004794379012905D102F01F0204F0070403F007030178042911D8417801290ED851090CD102F00301012908D8C078102805D8072803D3072C01D8072B02D94FF6D3
:40268000FF7010BD002010BD02780B7802F00F0203F00F039A4203D380788978884202D24FF6FF7070470020704700002DE9F041274D4FF6FF774FF0FF38AC88641E002699
:4026C00004EBC400696900EB4410882201F8206001EB800000F10E014780C0F80480C0F890101031C0F894100A31C0F898101031C0F89C10C91DC0F8A01008300021F3F7BE
:4027000042FD641EDCD5134C27787F1EF8B200F061FB7F1EFAD5104A412106202E61F8F781FB0E48FF2101700020EA6803E002EB8013401C597723785B1C9842F7DB04485C
:40274000401C0170417028792870BDE8F0810000688600085A8500083D2B0210B4C8000870B50A4DAC88641E04EBC400696900EB441011F82000C0F38100012802D1E0B2D0
:40278000FFF708FD641EEFD570BD00006886000890F83000942110FB01F101EB8010403080B2704738B50446002000902046FFF7EFFF0146684618F07DF8002809D1054A82
:4027C0000099D16094F8303001EB831140310091916038BD68860008024800218160C160704700006886000800B591B0684618F0A9F80120BDF82C108DF83500C90618D5D6
:402800008DF834009DF80800A42110FB01F0ADF836000A480F900A48007800EBC00101EB40100849496901EB80000E900DA8F5F74DFC01F0E3FC11B000BD0000492802103B
:402840005A85000868860008F0B5012A3BD11E481F4D002701781D4E6A6931E001EBC10000EB411302EB83004FF6FF7444804FF0FF34446002F8237000F10E04C0F89040D8
:4028800000F11E04C0F8944000F12804C0F8984000F13804C0F89C4000F13F04C0F8A040447A04F0F0044472E40607D5012402F82340007A3378984200D93070491CC9B243
:4028C000A8888142CAD3F0BD5A850008B08600086886000830B402794FF6FF7303EA0223C27841781A4385784479A2F50052173A08D0012A0ED1091F8AB2811D204630BCDE
:4029000000F096BD091F8BB2821D2146284630BC00F01CBD30BC704733B501461F4D204883B0002400882A680AE004EBC40303EB441302EB83035B888B4203D0641CE4B2BE
:402940008442F2D3844220D00021204600F06EFA1449097888421AD007218DF80A1001218DF80B1004EBC4022B6802EB441213F82220D20602D400228DF80B2004AAADF871
:4029800008100092694600F019FC05B030BD9DF810102046FFF788FBF7E700007C8600086C8600085A850008FEB50D4604466946F6F744FF204600F075FB15490988814213
:4029C00024D000EBC00101EB40101249096801EB80042678C6F38100012817D02868606002A96846FDF735FF9DF8080006F0EF0100B11020014301F0F300001D2070A11C10
:402A00006846FDF70DFF684601F0F8F9FEBD00006C8600087C8600082DE9FE4F91460F46022A64D3002F62D04FF0FF3100F04CFB8046344801884046414558D000EBC001F5
:402A4000314801EB48113D780068DFF8C0A010F82100C10601D40B2D07D0C043C00601D4012D02D0002631460AE001260021404600F0DCF99AF800100446A14204D10121F2
:402A8000404600F0D3F904469AF80000A04204D1012E2CD14FF481612DE0012E03D10121092001F0F1F8284600F036FA8DF80A00FF281ED0092822D001208DF80B00A9F11B
:402AC00001007F1CADF8080000976946204600F075FB00280BD1052D09D00021404600F0A5F99AF80010814201D0FFF771FDBDE8FE8F40F207414046FFF700FDF7E7284632
:402B0000DBE700006C8600087C8600085A8500081CB50C466946F6F791FE0020216800F0D3FA05490988814201D0FFF733FB684601F04CFA1CBD00006C86000830B41546A6
:402B4000044A02EB81011A4651F8044C2946A44630BC6047886D01107FB5054640784FF6FF7101EA00202A781B49024319480024096800880AE004EBC40303EB441301EB1C
:402B800083035B88934203D0641CE4B28442F2D3844215D00021204600F048F90F490A780A2190420DD008228DF80E2001228DF80F20AD1CADF80C10019501A900F0FEFAE6
:402BC0007FBD0091AB1C002205212046FFF772FC7FBD00006C8600087C8600085A85000870B5044690F82C00002540070DD594F830004FF6FF7200EB800101EB401102EA90
:402C00000115F0F73FFD284485B22046FFF7C0FD0544204600F0E1FF0544204601F056FA411994F83000227A1044C0EBC00000EB400001EBC00080B270BD10B501F0D8FA01
:402C400001F006F8F0F71CFDBDE81040FFF7C4BD2DE9FE430026394904460296007A088094F83010354608443549374608802046FFF7B6FF00285ED0009720460197FFF70E
:402C800091FD060057D194F82C004FF6FF77400735D594F8300000EB800101EB401007EA001080460146684617F004FE38BB254E0098424600217060F3F765FA22480168D8
:402CC0000BE005EB850000EB451072686D1C02EB001201EB8000EDB2C26594F83000A842EFD8C0B2F0F7CEFC010008D001A817F0E1FD20B994F830100198F0F7BFFC204663
:402D000000F07CFF060016D1204601F05DFA060011D194F83000217A084400EBC00101EB401007EA800102A817F0C4FD060002D10649029808603046BDE8FE83868600085C
:402D40006C86000888860008708600087C86000801480078704700008886000810B50F228B5C845C63408B54521EF9D510BD0000F0B506461548164F002400783A68054627
:402D80000AE004EBC40101EB441112F8211011F0030F19D0641CE4B28442F2D3A84211D0284600F0DFF905EBC5003A6800EB451002EB80003178417300210172317828464F
:402DC00000F0ACF92846F0BD2546E7E75A8500087C86000870B5144E00EB800101EB40143068942200EB84000021C56DF3F7CBF9FEF7BAF9400705D54FF4147200212846E7
:402E0000F3F7C1F93068FF2200EB8401CD6500F824204A6081F87F20122081F859000020087281F8802070BD7086000870B50346012916D001461D481B4D002402782868F3
:402E400004EB840606EB441610F826608E4224D104EB840202EB4416FF2900F8263002D019E0FF21E7E7FEF77FF9400707D510482968406801EB860100EB0610C8652868FE
:402E8000012100EB86004160FF2180F880100021017280F89140204670BD641CE4B29442CED3104670BD0000708600085A850008888600080B4910B50A680B4903460020F3
:402EC000097800EB800404EB401402EB840494F87F409C4204D0401CC0B28842F1D3084610BD0000708600085A850008084900200A6808490978491C02EB80135B7FFF2B33
:402F000004D0401CC0B28842F6D3C8B270470000748600085A850008064A102112F81130834203D102EB410040787047491EF5D5FF207047946D01102DE9F84305463C4807
:402F400000240078A84202D82846BDE8F883394E394F32888DF80020D7F800C01AE000EBC00101EB40131CF8231011F0030102D0022902D00CE004460EE00CEB8301496816
:402F8000491C05D19DF800108A4201D18DF80000401CC0B29042E2D3824213D19DF800108A420AD10021684601F048F930889DF80010884204D1C0B2C7E7012001F0C4F9D9
:402FC0009DF8004005EBC50000EB45163868B84604EBC40202EB441700EB860100EB8700A422F3F7AAF8D8F8001001EB870000F10E02C0F890201032C0F894200A32C0F8D2
:4030000098201032C0F89C20D21DC0F8A02011F8260000F0FC00801C01F8260001EB8601FF2048730021284600F008F820468CE75A8500086C8600087C86000870B5174ACF
:403040001288824228D9164D00EBC00202EB401401290ED10146012001F076F9286800EB84000D30F6F71CFB2968FF2001EB8401487328680021882200F8241000EB8400BD
:403080004FF6FF7141804FF0FF314160BDE8704008300021F3F777B870BD00006C8600087C86000810B504464FF0FF3100F00CF804490988814204D12046BDE81040FFF759
:4030C00057BE10BD6C86000870B5124A124B0546002012681E8819E000EBC00303EB401312F82340A4070FD04C1C04D002EB830464688C420CD03DB12C78FF2C04D002EB08
:4031000083035B7BA34203D0401CC0B2B042E3D370BD00007C8600086C86000830B50F4A0546002014680E4A137800EB800202EB401214F82220AA4207D0FF2A05D0401CB5
:40314000C0B29842F1D3184630BD00EB800202EB401204EB820282F8921030BD708600085A85000800EBC00101EB40120A4810B501684FF0020301EB820011F82240407AA6
:40318000C00600D5012304F0FC00184301F8220000F0030010BD00007C8600084068007800EB800202EB4010034A126802EB80004068086000207047708600080EB5C3B205
:4031C00003EB830202EB4313104A8DF80000126802EB8303029300EB800303EB401012F820008DF8010000EBC00202EB4010084A126802EB80000190C1F804D0887A0A46C9
:4032000001460120F8F732FD0EBD0000708600087C86000810B588B0002400940194029403940A788DF800204A788DF8012089788DF8021004AA6946FEF7DAF8002804D176
:4032400003499DF810204A700C7008B010BD000069860008F0B517460A4604468DB002F10D0006A90546F6F717FB04A92846F6F773FA207800EBC00101EB401032490968D8
:4032800011F82000C0060ED49DF8160004AE00F001008DF800009DF81E0006AD00F001008DF801000DE09DF81E0006AE00F001008DF800009DF8160004AD00F001008DF8F1
:4032C0000100012F3CD004F12907D4F80B00CDF80200B4F80F00ADF80600607C8DF80800D4F81200CDF80900E08AADF80D00207E8DF80F001022002104F18100F2F743FF11
:403300002968C4F88110A988A4F885103168C4F88710B188A4F88B1069463846FFF71EFD08AA694604F14900FEF762F8002805D17F349DF820106170012121700DB0F0BD61
:4033400004F13907C1E700007C860008F0B50E463449154607460A68334987B000200C780FE000EB800101EB401102EB810191F880C0BC4503D191F87F10FF2903D1401C6A
:40338000C0B2A042EDD3FF21844216D1274A5078B8420CD11078FF2809D0002805D11170517003212846FEF7FFFD07B0F0BD00222946304600F054FCF7E700EB800404EBEA
:4033C000401402EB840494F87F20012A13D0022A26D0032AE9D106228DF80A2000228DF80B200095ADF8083004F87F1F61706946FFF7E4FED9E704F181010E462846FFF7C6
:40340000ADFC03AA314604F14900FDF7F1FF0028CBD17F349DF80C00607002202070C4E70422D9E7708600085A850008698600082DE9FF4117460D461120FFF73BFD4449A4
:40344000FF26444C0A784FF0000882422ED000EB800101EB40172068294600EB870090F8920000F029FF08B101200AE02068122100EB870080F87F10F0F726F9002810D0BC
:40348000022001280FD042F6A1622068002300EB87000D2100F87F6FCDF80080C07CFFF709F8BDE8FF8142F61262EEE70020236811E000EB800101EB401103EB810191F81A
:4034C0007F10042909D0052907D0082905D0092903D0401CC0B29042EBD3824204D139462846FEF785FFDCE700EB800101EB401103EB810191F87F20042A1BD0052A03D0AB
:40350000082A17D0092ACCD12A68C1F831206A68C1F8352081F87F60032229318DF80E2001918DF80F801021ADF80C1001A9FFF745FEB6E7286841F8290F686848600520E6
:4035400081F8560042F21800FDF766FBA9E700005A8500087086000810B588B013680093526801920A680292496804460391493004AA6946FDF73CFF002805D17F349DF82E
:40358000101061700321217008B010BD054810B502780121017012B90420F4F7F7FB002010BD00009086000870B50F4D032029782870012902D10420F4F7E8FB0024782260
:4035C00021460A486C60F2F7DEFD0848782200217830F2F7D8FD0548F0300470047244704472002070BD000090860008C8C800082DE9F041214E3478012C05D0022C03D0E8
:4036000041F21110BDE8F0811D4C04EBC005681CAF786C686D7805EB450554F825C0BCF1000F06D00121042000F02EFB41F21210E8E744F82510017801EB410104EB810196
:403640000B812AB1017801EB410104EB81014A600178491CC9B20170B94201D1002101707068401C70603078012804D1022030700420F4F78BFB0020C4E70000908600080E
:40368000B8C9000810B51048002478220470446021460E48F2F777FD0C48782200217830F2F771FD09480A21803004678467703081708172054941607831C16004700472BD
:4036C00044704472002010BD90860008C8C800082DE9F04100250C4C01262F46207878B101280DD0022802D0032807D105E000F00DF8606810B9267000E02770002DEDD035
:403700000020BDE8F0810000908600082DE9F05F0026DFF89CB0DFF89C80B2460BEBC60494F802906568207800EB400155F82130BBB305EB810200201189074609B10127C5
:403740005068984798F8000003282ED0012F0ED1207800EB400005EB8000406800F014FB207800EB400005EB8000C0F804A02078514600EB400005EB8000A0F808A02078DF
:4037800000EB400045F820A02078401CC0B22070484500D12170D8F80410491EC8F80410C1E7FFE7761C022EB8D3BDE8F09F0000B8C90008908600080C4A10B51278002161
:4037C000521C12FB02F2D3B2094A126803E0545C34B1491CC9B29942F9D34FF6FF7010BD40F080005054002010BD00005A8500089886000870B51449097801F1010111FB37
:4038000001F2D3B2114A4FF6FF7614682478250607D5556804F07F0455F824500DB1A14201D1304670BD0560012005E01168441E0D5C401C0D55C0B29842F7D300211268B3
:40384000401E1154084670BD5A850008988600082DE9FF412A4B294904461B784FF6FF7500202A4649685B1C04E051F8206046B1401CC0B29842F8D342B1284604B0BDE8A1
:40388000F081E07641F820400022F5E7657EE27E1C49206800F0E6F94FF488570646B84204D1607F40F01401617704E01EB96946204600F0A9F8300001D0B842DED115B1A1
:4038C000012D04D007E0617F41F0200102E0617F41F0400161770028D0D1204600F018F90028CBD135B1012DC8D1617F01F0BF016177C3E7617F01F0DF01F9E79886000836
:403900005A8500087C6F011030B5C37B0E214FEA4303C37300EB0103425C5D7845EAD2155D704FEA42024254491EF3D530BD000030B585B00C466846FFF75CFF002811D1B4
:403940000098427FD1060FD502F0EF024277510702D502F0FB014177214600F055F8009800F0D6F805B030BD9107FBD55107F9D502F0FB034377C289018A551EA94203D1E6
:40398000214600F06BF8EDE7914211D103F0FD014177214600F0F8F80098124B002281685B68C07E43F820200098807E8847D9E7406801AA00EB0110214600F005F90098F7
:4039C00001A9C27E006800F04DF9B0F5885FC9D10098018A491C0182417F41F004014177C0E70000988600080021016041604161816081810176C18101824176C17601219F
:403A0000417700207047000070B500F11E0400F12E050E4610222046F2F78FFB2046FFF773FFF07B000604D5224611460A4800F0CBF8102221462846F2F77FFB2846FFF792
:403A400063FFE07B000606D52A46BDE870401146014800F0B9B870BD8C6F011070B50446C08988B00D466FF00F0338B1217B11F00F0230D0002101292FD002E00120E081B0
:403A8000227B00200090019002900390C2F1100668463044802100F8011C616829B1E68903EB06131944F2F748FB6A4604F12E01104600F089F804AA2946684600F084F8EE
:403AC000E27E04A9206800F0CDF80546B0F5885F0FD0B5B119E00121CDE7616803EB0010014410226846F2F728FB6A4604F11E01DEE7208A401C2082607F40F0040060777E
:403B000003E06946204600F03FF808B0284670BD30B50446808989B00109E18110F00F0F01D0491CE18100210091019102910391617F4FF6FF7041F002016177002516E05A
:403B4000606804AA00EB0510694600F03DF8E27E04A9206800F086F838B1218A491C2182617F41F00401617705E06D1CADB2E189491EA942E4DC617F490703D46946204609
:403B8000FFF76CFF09B030BD70B5044600206077227EC2F110004518607E78B101280CD128466169F2F7BAFA002806D0227E29466069F2F7C2FAFF20607770BD2946606920
:403BC000BDE87040F2F7B9BA30B50F23C45CCD5C6C40D4545B1EF9D530BD90F83010491C11FB01F080B2820703D000F00302801A001D00EB810080B270470000F8B500271F
:403C0000009790F830603C46761C16FB06F18DB2FFF7E3FF0146684616F04CFE002813D10A49009AAB070A6003D005F00303ED1A2D1D2A4400924A6004E04A6842F824701B
:403C4000641CE4B2B442F8D3F8BD00009886000802480021016041607047000098860008FFF766BE38B505460C461046FFF7A4FD002808D16A4621462846FDF7B9FB002861
:403C800001D14FF4885038BD012909D80C2807D2054B012282401868012902D09043186070471043FBE70000A08600080149002008607047A086000870470000002809D085
:403CC00005494A68002A05D0011F087852F8200017F040B970470000A486000810B50446F3F7ECFFC0B2801DA0420BD30648406840B150F8240017F099F8002801D000F843
:403D0000044B10BD002010BDA4860008F8B516460D460446F3F7D2FFC0B2801DA04203D24FF0FF300090F8BDB2B2E9B2684617F0A7F80099481C03D00248406840F82410ED
:403D40000098F8BDA48600082DE9F0410746F3F7B5FF801D0B49C6B2002005460C680CE0617839B16188B94202D32078FFF7B6FF002804D1241D6D1CEDB2B542F0D3BDE8DA
:403D8000F0810000A4860008002801D0FFF796BF7047000070B506460848002504680AE0617829B162882078121D0023FFF7AEFF241D6D1CEDB2B542F2D370BDA48600087B
:403DC000704710B5F4F7CCFFBDE81040FEF7C8BC704710B5FEF76AFCBDE81040F4F79CBF704710B5FEF700FDBDE81040F4F7C8BF70477047704770477047000030B5134A67
:403E0000134B044642F6A160002192681B7809E001EBC10505EB011502EB8505ED7B25B1491CC9B29942F3D330BD01EBC10000EB011002EB8000A379837321688160A18874
:403E400081810121C173002030BD0000AC8600085A850008F7B515469DF800000C46FF2821D004B342F612664FF0FF316846FFF72BF911490988814213D000EBC00101EBEF
:403E800040110E48006800EB8101487AC0F3810002280BD06DB1803110222046F2F74DF900263046FEBD42F61160FEBD42F61666F7E73F31F0E700006C8600087C8600085D
:403EC0002DE9FC470078894600EBC00101EB40101E499046096801EB80000D306946F5F7ADFC00281FD10024194D1A4E16E004EBC40000EB0417A86800EB8701C87B0128F7
:403F00000AD19DF806008A7B904205D1083106226846F2F703F940B1641CE4B230788442E5D34FF6FF70BDE8FC8704EBC40000EB0411A86850F8212000EB8700C8F80020C3
:403F4000017989F800100020EDE700007C860008AC8600085A85000830B5084C25780D7000EBC00101EB40100549096801EB8000807A1070E0781870002030BDAC86000810
:403F80007C8600080148C07870470000AC86000810B50C4A0C4B0020014612681B880DE001EBC10404EB411412F8244004F00304012C01D1401CC0B2491CC9B29942EFD3FA
:403FC00010BD00007C8600086C8600082DE9F04700240546114EA146DFF8448017E004EBC40101EB0417B168A87901EB87018A7B90420AD1083106222846F2F78FF820B929
:40400000B16801EB870181F80F90641CE4B298F800008442E3D30020BDE8F087AC8600085A850008044A81799171A2F10C010268CA60808808827047B8860008014908708D
:4040400000207047AC8600080149C87000207047AC860008F1B582B0694602A8F5F7EEFB002823D10024164D164E22E004EBC40101EB0417A9689DF8060001EB87018A7BAD
:40408000904214D1083106226846F2F747F870B9A86800EB870090F8211031B900F1220121300F22F2F73AF808B10020FEBD641CE4B230788442D9D34FF6FF70FEBD0000E0
:4040C000AC8600085A8500080020704790F83000642110FB01F070472DE9FC410F0008D06946F5F7ABFB002805D10024184D194E1AE042F61160BDE8FC8104EBC400A968E6
:4041000000EB041001EB8001C87B01280AD19DF806008A7B904205D1083106226846F1F7FDFF38B1641CE4B230788442E5D34FF6FF70E0E704EBC400A96800EB041001EB42
:404140008001113110223846F1F7F7FF0020D2E7AC8600085A8500082DE9FC410E46002131706946F5F76AFB00281DD10024144D144F16E004EBC400A96800EB041001EBE8
:404180008001C87B01280AD19DF806008A7B904205D1083106226846F1F7C0FF30B1641CE4B238788442E5D3BDE8FC8104EBC400A96800EB041001EB8000007C3070F3E7CD
:4041C000AC8600085A85000808B50021009190F83000642110FB01F1684616F06BFB002802D1024A0099916008BD0000AC8600080149002088607047AC86000870B500247F
:404200000C4D0D4E0CE004EBC400A96800EB041001EB800064220021F1F7B5FF641CE4B230788442EFD3002068700720A8701020E87070BDAC8600085A850008F8B5054621
:4042400019480027068819488DF80060F4B202781748D0F800C018E002EBC20000EB42101CF8203003F00303012B0CD10CEB800043685B1C07D1037ABB4204D9407B1F46A9
:4042800014468DF80000521CD2B2B242E4D3B44207D011B16846F5F7D1FA01212046FEF7CDFE2C70F8BD00006C8600085A8500087C860008FDF766BDF3B583B00E0042F6D2
:4042C000116412D0694603A8F5F7B8FA00280DD106226846521ED2B2815C21B12AB10024174D184F18E0002AF4D1204605B0F0BD04EBC401AA6801EB041102EB81019DF8AC
:4043000006008A7B904205D1083106226846F1F705FF38B1641CE4B238788442E8D34FF6FF70E3E704EBC400A96800EB041001EB8000213010223146F1F7FFFE0020D5E737
:40434000AC8600085A850008F0B501EBC10202EB4113344A126812F8233003F00303012B35D1304E01EBC1032F4F36682F4D304C03EB411306EB8303012804D0022826D1EE
:40438000187A28B32EE01E7A002E20D000201872387814E0884210D000EBC00303EB401312F8237007F00307012F06D102EB83073B7AB34201D95B1E3B72401CC0B22388A6
:4043C0009842E7D32879002801D0401E2871F0BD2879401CC6B22E712088B04200D2287128791872C5B2012DF1D001201872387814E0884210D000EBC00303EB401312F84F
:40440000236006F00306012E06D102EB8306337AAB4201D25B1C3372401CC0B223889842E7D3F0BD7C8600085A850008AC8600086C86000810B50446407B4FF6FF7101EAAC
:404440000021207B0843216809B1084610BDFFF77BFC206010BD00002DE9F04F8846D64987B09146096841B3D449096829B3D449096811B3D3490968F9B1D3490968E1B156
:40448000D24C2168C9B1D24909788DF81410A0B1B8F1000F11D041780278C37842EA01228078C1F30115890940EA0320C2F30B02814502D109B9022D04D94FF6FF7007B0BA
:4044C000BDE8F08F04A91046F6F780F910B142F22C30F4E7049800EBC001BC48006800EBC1043434E07A10B1022D0CD001E0012D0CD0A07A4FF0000B0190E5885F46BA461F
:40450000CDF818B0B6E0204600F0D8F9C0E04D4501D9064600E02E46A81B85B2E07A04280CD3617B4FF6FF72277B02EA01210F43E17B02EA0121A27B42EA010A0199012910
:4045400002D002291CD11CE004F10C01084432464146F1F7F2FDE07A002D3044E0720FD1607B4FF6FF71277B01EA00200743E07B3D4601EA0020A17B41EA000A0220019090
:4045800070E0A088F0BB05A80090334642462146049800F021F930B1204600F08FF95046F5F7D2FC74E0BAF1400F10D24F4502D8E07A042803D02046FFF73CFF2DE0C4F827
:4045C0000080A7804FF0010BCDF818B04AE004985146C2B205A8F6F70FFD9DF81400C0EBC0017848006800EB8100808980B998F801004FF6FF7101EA002198F800000843AD
:40460000B11E00E00DE0884202D1E07A0428D6D03246414605A8F6F7D9FE206000283FF472AFA1882068324608444146F1F785FDA088BAF1400F3044A08010D30498514677
:40464000C2B205A8F6F7D8FC9DF81400C0EBC0015C48006800EB8100C1893144C1810DB94FF0010BA9EB0600B0441FFA80F9BBF1010F0FD05FEA09007FF449AFBBF1010F85
:4046800008D00198A072E58001210A20FFF7FCFA002014E74FF00009BAF1050F23D0BAF1040F7AD0BAF1060F77D004985146C2B205A8F6F7A1FC464801789DF81400814265
:4046C0000AD000EB80033E48A2882168006800EB8300036905A89847069801287FF413AFC4F800900FE7A7884FF0010B256850E0E8784FF6FF71AE7801EA0020064395F8DA
:40470000008095F801A0381F8642E5DCBAF1000FE2D0A8F10100152808D85FEAC8701CD003AA51460498F7F733FA10B303A8CDF80090CDE901B05346012200210498F7F7CF
:4047400097F908BBCDF80090CDF80490DDE9031000231A46F7F73EFA16E003A8CDF80090CDE901B00022534611460498F7F780F950B9301D174983B201EB88002A4650F82D
:4047800004CCDDE90310E04735442D1DB81B001F87B2002FACD19FE7FFE70498A38800EBC0010A482268006800EBC1012E315046F6F786FB90E700009C850008A885000887
:4047C00098850008B085000894850008A085000888850008906B01102DE9F04715460246487B4FF6FF770E7B07EA00200643C87B8B7B07EA002003430024DDF820800F81CE
:40480000204642F22739402B18D2CC80052B07D0042B07D0062B0ED042F27030BDE8F08717243CE002EBC2011F4A126802EBC101B1F8444033E01D498C8A30E0D2B2194689
:404840004046F6F7D9FB1A4B98F800101B68C1EBC10203EB820CBCF80C80DFF858C0B8F1000F0ED195F801802D7807EA08273D43DCF8008001EB810708EB8707FF88AF42A4
:404880000FD30028CAD1DCF8005001EB810105EB8101094D0969A94201D133F82240A642BCD94846BAE70000A085000854C60008B08500089885000851B4011070B504465B
:4048C000C07B4FF6FF7101EA0020A17B01430025E572A580206820B1402901D2FFF754FA25600120A0720420E080BDE8704000210A20FFF7C9B900001CB5016800918088BC
:40490000ADF8040001208DF806006846FCF7FEFE054C18B913212088FCF7E8FE4FF6FF702080FCF787FA1CBD388600082DE9F04389B00546C7788679C0798DF80600A86868
:404940000090A889ADF8040004A96846FCF72EFF04004FF6FF784FF0010963D19DF80600022801D003281DD100990291BDF80410ADF80C10801E8DF80E006EB905A902A800
:40498000FDF738FA40B902A905A8F5F753F802A8FCF7BCFE040045D105A902A8FCF706FF04003FD1002F27D1012E06D136480178012909D03548F5F72DF89DF806000128FB
:4049C00004D008B31BD028E03148F4E79DF80510B9EB911F13D1694604A8F4F7CDFFE0B12C496846FFF766FCB8B968792A4A297908EA00200143118009B0BDE8F0839DF82C
:404A00000510C020884308D104A96846FDF7F2F918B9694604A8F5F70DF86846FCF776FE04000ED0B7B1A4F800800221A17006A9201DFDF7ADF8A0F5385112391DD0C8B183
:404A40001EE0687908EA0021287908431321FCF74DFED1E76879324608EA0020208029790843208084F8029081B2A671201D01F0DFF8C1E79DF8190010B9201DF4F710FEE4
:404A80002046FCF7BBFEB7E7608600084C86000852860008F9480210388600082DE9FC414FF000080546CDF8008029794FF6FF76EF78807806EA01210F4310BB6946384644
:404AC000FCF752FE04001DD020798DF8040000988078022815D00D480088B04205D0874203D10B4981F800800BE0697901A8F5F79BFB6079012807D0009810B102218170F5
:404B000006800020BDE8FC812046FBE7388600082E86000810B50446EEF7C2FD112807D1606840F207414078BDE81040FDF7E6BC10BD10B50446EEF7AFFD112807D1606854
:404B400040F207414078BDE81040FDF7D7BC10BD10B50446EEF7A8FD112807D1606840F207414078BDE81040FDF7C8BC10BD10B50446EEF789FD112807D1606840F207410F
:404B80004078BDE81040FDF7B9BC10BD10B50446EEF77EFD112807D1606840F207414078BDE81040FDF7AABC10BD42F611607047FEB5416802463A4DD1E901430E784878AD
:404BC000116800EBC0022D6802EB4012097815F822204FF48045D2064FF4005715D41A7E4FEA02724FEA126CDA7D42EA0C0293F801C05FEA0C7C01D522F01102F1BB12F035
:404C0000700F16D1550713D13FE0DA7D4FEA02724FEA126C1A7E42EA0C0293F801C05FEA0C7C01D522F0110241BB5FEA427C29D03D4693F801C084F80BC093F809C084F828
:404C40000CC0A2729A72174B06EB860202EB46121B68BD4203EB8202556018D1A17A002201F007018DF80810217B8DF80910002101910821009101AB062100E005E0FDF790
:404C800019FC0BE012F0700FD3D10125D1E7012D04D109B14FF48161FDF706FA0020FEBD7C860008708600083EB504460020009060686A4602A940788DF804000320208123
:404CC00001A8FFF7FDF878B99DF8080001280BD12168009808702268010A51702268010C000E91702168C8702146012000F056FD3EBD00002DE9F04741680468D1E901977D
:404D000091F80080BD7A4E78E8070CD01023224606213046FDF792FB0A2304F1100207213046FDF78BFBA8070DD5102304F11A0208213046FDF782FB072304F12A02092143
:404D40003046FDF77BFB680706D5102304F131020A213046FDF772FB134A06EBC60101EB46111268012012F821106FEA0101C90605D415F0700F01D0800300E0012008EBAF
:404D8000880202EB4811094A0128126802EB8101486006D1797889F80B1000213046FDF783F90020BDE8F0877C860008708600082DE9F04101464068846806784578606842
:404DC000B0F5001F12D0B0F5401F0FD00868102204F11901F1F7A2F968B140F204412846FDF78CFB4FF6FF70BDE8F081BDE8F0410846EEF765BC154905EBC50000EB451036
:404E0000096811F8200040F30010401C12D004F1390104F129022046FEF79EFB0C4B06EB860202EB46121B684FF4007103EB82025160D9E704F129021023174604212846A2
:404E4000FDF7FCFA394604F13902E4E77C86000870860008014600204A68D2E901125368B3F5007F03D048880E31FCF7EFBA012111727047F8B504464068067845783046D3
:404E8000FDF7C4FB3046FDF7A5FF208900900022052128462368FDF70DFB0020F8BD00002DE9F04141688B680C784E785968B1F5802F01D00A0303D5BDE8F041EEF7FCBB7B
:404EC000C27A1AB1BDE8F04100F092BD174F06EBC60202EB46123F68402517F822206FEA0202D20610D480290BD020290CD1197A012906D00289016803F11900F1F71DF980
:404F000008E01025002119720389026803213046FDF794FA064904EB840000EB4410096801EB800045600020BDE8F0817C8600087086000842F61660704710B5416800689A
:404F40004A7801781046FDF7AFF8002010BD00002DE9F84341680025D1E901740E7891F801806168B1F5003F21D0B1F5801F1ED0B1F5202F1BD0C17ADFF8E490D9B104F183
:404F80003903028901681846F1F7D7F806EB860000EB4612D9F800004FF4807100EB82000122416039462046FEF754F953E0BDE8F843EEF77DBB06EB860000EB4612D9F8DA
:404FC0000000202100EB82004FF6FF794160607B217D0840012819D0607840072ED508EBC80101EB48101F49096811F82000E17C40F30016761C207BFDF742F968B1032868
:405000002CD001280ED002280ED00EE004F1490107F10D00FFF760F810E0607800F0FB0060700BE0D6B900E0C6B142F21800FBF7F3FD042084F87F0042F617650022002D41
:40504000B0D04D4507D1002003460246009003214046FDF72FFA0020BDE8F8834D46EDE7708600087C8600082DE9FF5F8046002002900390D8F80400002790F800A0417834
:405080000191D0E901B601EBC10000EB411065499BF80950D8F80040096811F8200040F3001000F101095046FDF792FA98F80B1069B1484606F10B0540F20A494FF6FF7BCF
:4050C000012845D02046FDF7B9FA90BB65E02046B9F1010F09D0711CFDF7B5F80123721C0B210198FDF7AAF92EE0C17819B10198FDF704FA93E0224631460120FDF710FA93
:40510000070017D042F61760874206D112D105F0F30505F104054FF000075046FDF776FA5046FDF757FE8BF80950384604B0BDE8F09F19E03C480AEB8A0202EB4A12006853
:40514000042100EB8200416005F0FC056D1CEAE75046FDF75BFA207800F01F07780903D107F00300012801D9494622E0FDF7F0FD20B138460199FDF7A7F805E00122394658
:405180000020019BFDF7EEF80028CFD12078E870072070728DF80A0035E0FBF7E5FF40070CD5A078000709D5E078102806D040F206410198FDF7A2F95846B7E7FDF7C8FDFD
:4051C00020B1A0780199FDF77FF805E0A17860780022019BFDF7C6F80028A7D101202870B8F808202146681CF0F7A7FF28798DF80A000D480AEB8A0202EB4A1200680221F8
:4052000000EB82004160E87802A9FCF7FDFF0520009002AB002202210198FDF74BF9002084E700007C860008708600082DE9F04F07464068F97A3D68D0E9018490F80090A3
:40524000467887B049B12846FDF7F8F940F20A4A4FF6FF7B80B3514679E0E97819B13046FDF74CF974E1E17BA8783246FDF716F8002870D12A4621460220FDF751F9002897
:4052800069D16178A07B014001F01F016170400702D4607D40070ED50807E17C207B02D5FDF7BEF801E0FCF7EBFF002878D0607840F00400607073E0FFE7FBF755FF400721
:4052C00008D5A878000705D5E878102802D040F206413CE0FDF73CFD20B1A8783146FCF7F3FF05E0A978687833460022FDF73AF8002830D10220A0743A89294604F1130017
:40530000F0F71BFF207C617CC043C943E27DC0B2C9B202429FD1207E08429CD1607B217D00EA0102012A19D0627DA37B1A40120701D5084312D1E17C207BFCF7A1FF0246CE
:40534000A9786078FEF7C0FE40B140F203413046FDF7D4F8584607B0BDE8F08F6178607D014001F01F016170A27B520701D440070DD50807E17C207B02D5FDF751F801E022
:40538000FCF77EFF18B1607840F004006070E07BE978884200D30846617A814297D8607260786C4D00074FF0040A4FF000072CD442F21800FBF730FC09EB890202EB4910F8
:4053C0002A68082102EB8000416084F87FA0617B504641B1217D012905D184F87E00607840F00400607001970297607801A9FCF70BFF607A8DF806000520009001AB0122D8
:405400000F213046FDF756F8A2E008F10D0005A98046F4F741FA03A94046F4F79DF90598C4F87700BDF81800A4F87B0003982067BDF81000A4F874009DF81A00DFF818B1B5
:4054400000F0010084F87D009DF8120000F0010084F87600607B94F814C040EA0C0101290AD0607840072FD5E17C207BFCF7D8FF84F87E0018B329E084F87EA0617841F0EB
:405480000401617006EBC601DBF8002001EB461112F821306FEA03085FEAC86801D4012804D0D80612D4BCF1010F0FD102EB8100407BFEF7CFFD48B140F2024144E0607869
:4054C00000F0FB00607001E084F87E7001970297607801A9FCF798FE607A8DF806000520009001AB01220F213046FCF7E3FF06EBC60000EB4611DBF8000010F82100C0064B
:405500000AD509EB890202EB49102A684FF4004102EB800041601BE009EB890202EB49102A684FF4803102EB80004160062084F87F000020EEF7CCF84FF4816518B9204605
:40554000EEF7C2F820B129463046FCF7D7FF02E7002000E7708600087C8600082DE9FC47034640684FF6FF7690F8009090F80180D0E9014504F10E006F7A1A898246196819
:40558000F0F7DBFDE019C7F110020E300021F0F7FAFD1C4908EBC80000EB481009684FF0000711F82000C00611D4009701973A46608853466946FBF7C4FF060016D1607AE3
:4055C00000F0F300001D60724FF4806004E0287A01280DD04FF4006009EB890202EB4911094A126802EB810148603046BDE8FC8760885146FBF72AFF06462F724FF48050A5
:40560000EAE700007C860008708600082DE9FE4301464068CD7A0A89D0E9014690F80080477804EB85000968806FF0F786FDB07A072D04D0092D05D00A2D06D007E020F02B
:40564000100004E020F0200001E020F04000B07210F0700F4FF480414FF4005901D00D460EE0264B07EBC70202EB47121B6813F82220D20603D4400701D04D4600E00125E0
:4056800008EB880202EB48101D4A8D42126802EB800045602FD0A07A4FF00808C0F302108DF80800207B8DF8090004F10E00CDE9008001AB002207213846FCF7FBFE4D4558
:4056C00011D1A07A01AB00F007008DF80800207B8DF809000020CDE90080024606213846FCF7E8FE07E0012D05D17078E07200213846FCF7D9FC0020BDE8FE837C8600085D
:40570000708600083EB54168044648788D68216829B3687800070AD500208DF8080002A92046EDF7D9FF9DF80810012924D0686800010028206800681FDA8DF800004FEAC0
:4057400010218DF801104FEA10408DF80200E86D0099C0F8F110C4F800D0042018E069780A0740F2014105D595F87E20052A01D140F20C41FCF7C2FE3EBD8DF80400010AD6
:405780008DF80510000C8DF8060001A82060032020812146002000F001F83EBD2DE9FF5F814648680427B846067845784268039284686078000705D594F87E00052810D016
:4057C000032008810A89096804F149000290F0F7B4FC4846DFF808924FF4003B012803D0B5E0A1F80880EDE760787E49DFF8F8A1000742D52D34E07F0202A07F1043020228
:40580000607F10430202207F1043B0FBF1F201FB1200019054F8291C2D3CB1F1006F01D0514544D1E16DC0F3074381F8F100E26DC0F3072182F8F210E26D82F8F330D4F879
:405840005CC0020E8CF8F420D4F85CC08CF8C000E06D80F8C110E06D80F8C230E06D80F8C320E06D01468030C03191E80C10C968C0E90EC1C0E90C2319E04934A07800F07A
:405880000F00A070020260781043020214F8490910430190884203D3524949420844019004F8490F010A6170000CA070493C94F87E00052800D10E2701AB002239462846E8
:4058C000CDF80080FCF7F6FD07466068B0F1006F01D0504525D105EBC50101EB4512D9F8001011F82210C9060AD406EB860101EB46123E49096801EB8201C1F804B004E0C6
:4059000020F0006040F400306060E16D002081F8F000082084F87F0042F21800FBF77CF9E8BB6078000703D5384604B0BDE8F09FA7F53850A0380AD1019804F8490F4FEA69
:40594000102161704FEA1040A070A4F14904606801013FD505EBC50101EB4512D9F8001011F82210C9060AD406EB860101EB46121E49096801EB8201C1F804B004E020F0A6
:40598000006040F400306060E06D1022C0300299F0F7D3FBE06D01468030C03100E013E091E84C00C968C0E90E61C0E90C23E16D002081F8F000082084F87F0042F2180070
:4059C000FBF72AF90028B0D04FF481612846FCF795FDAAE7002220460399FDF73BFCA4E77C86000840420F0000000808708600082DE9F041064640681B49102590F801C0A1
:405A0000077884680CEBCC00096800EB4C1011F82000C00604D4102304F1290204211BE06068402814D008281AD08025328904F119003168F0F781FB0C4907EB870000EBF5
:405A40004710096801EB800045600020BDE8F081102304F1190203216046FCF7EFFCE5E7054601202072E1E77C8600087086000810B5827A42F618710C46012A01D1F3F7D7
:405A8000D9FA204610BD000070B5817A0024012904D0F3F7ADFB0446204670BD0A4945790268096801EB05111378497B11B1491E994202D04FF6FF7070BDD17841F440710C
:405AC000F3F7B8FAE8E700006485000810B5817A0024012904D0F3F78BFB0446204610BD02684FF6FF735178127803EA01210A43172A05D3044B41791B6803EB01118A80FC
:405B00002146F3F797FAE9E7648500082DE9F041DFF87C80054646796C79D8F800100068AA7A4FF6FF7301EB04119AB14278047803EA022214434888172C00D217248442C6
:405B400000D9044622460421281DF5F77DF907000CD106E08279447903EA022214438888EDE7D8F8000000EB0610C480A87A012801D02FB108E039462846F3F75BFA03E0F8
:405B80002846F3F735FB07463846BDE8F08100006485000810B5817A0024012904D0F3F727FB0446204610BD084A4179126802EB0111097B31B1417A522903D0D22901D060
:405BC0001B29EFD10021F3F735FAEBE76485000810B5817A0024012904D0F3F709FB0446204610BD417ACA0701D11E290BD1084A4379126802EB0312527B0AB1914202D01F
:405C00004FF6FF7010BD0021F3F714FAE8E700006485000810B5817A0024012903D042F61274204610BD0021F3F704FAF9E700002DE9F84F0027474D9246894600973B4678
:405C40003A464FF6FF76DFF810C129681CE043B902EBC20401EBC404A48CB44201D10123009202EBC20401EBC404B4F82480B04509D090F8008094F82E40A04503D142F230
:405C80002D30BDE8F88F521C9CF80040A242DED3F3B3009A012302EBC20201EBC202A2F82490009A02EBC20201EBC20282F82FA0009A02EBC20201EBC2025763009A02EBF1
:405CC000C20201EBC20282F83F70009A02EBC20201EBC2021787009A02EBC20201EBC20282F83E30009A042302EBC20201EBC20253870278009800EBC00001EBC00080F8AE
:405D00002E20009800EBC00001EBC000C78400E01CE00098172200EBC00001EBC0000F4FA0F84420002457F8346056B10098296800EBC00001EBC0002E3004236A46012198
:405D4000B047641C032CEED300209AE742F22B3097E70000A08500085A85000854C60008084910B509780020002909D005F0E2FC044605F0A9FB201A80B200EB8000C008CA
:405D800010BD0000C486000810B5EEF7F3FD482204490548F0F7D1F903490120C870002010BD0000237B0110C8C90008EDF790BB10B50846194600F021FD002010BD704748
:405DC00000F02EBD10B501004FF6FF7006D0044A01201070002007F04BFC002010BD0000C486000870B5044D002420462C7007F069FC2C70204670BDC486000801480078B2
:405E000070470000C486000870B5591C89B20C4D21F001040021054406E028685054000A5618891C707089B2A142F6D3D80705D0D018D15C10F8014DD454017070BD0000C8
:405E400000103C4030B50A4C002120445B1E07E05418555C647845EA04250560891C89B29942F5DB994201D1515C016030BD000000103C402DE9F041804690B0FF2000F0A5
:405E80000DFA274FFF2078702648274900680844406F02213C1D01260025B1EB507F01D0667000E06570EDF743FB03281AD026701B48801C457014F02DFD00F10A0400F1EF
:405EC000160116226846F0F738F92222214606A8F0F733F906AC40460ECC11F041FF040002D018E02570E3E711F092FF3870012000F0D4F911F093FF8DF83C508DF83D50D3
:405F00000FA812F0F9FA8DF83D600FA812F0F4FA0FA800F007FE10B02046BDE8F0810000C5860008C086000800F03D40F0B50021084D5B1E07E044595718260A7E705454A9
:405F4000001D891C89B29942F5DB994201D140595054F0BD00103C4070B50021094E5B1E08E05418555C647845EA04258551001D891C89B29942F4DB994201D1515C81515E
:405F800070BD000000103C40F0B5DFF858C00599091FCFB200217E1E09E05418555C647845EA042540F80C50001D891C89B2B142F3DBFC070DD0515C1A7841EA022140F85F
:405FC0000C10001DB3F8011040F80C10001DD97804E0198840F80C105988001D40F80C10F0BD000000103C4038B50B480024447011F015FF8DF800408DF80140684612F01E
:406000007BFA01208DF80100684612F075FA684600F088FD002038BDC786000810B500F0BEFC0B480078012805D1EEF7EFFD01280AD012F051FB06490020891E0870BDE80A
:406040001040062000F02AB912F030FBF3E70000C78600080B460B2817D009DC01280FD0032810D0062813D11146184612F0AEB911280ED012280BD111461846EDF70CBA5C
:406080000020FFF7F7BEFFF7AFBF044800781070704711461846EDF7F1B90000C98600082DE9F041184D194E28683044846E184FE00719D000F0BAFC012810D1002000F01C
:4060C0006FFD052000F0EAF8FF20B91E4870787828B928683044416F41F00101416729684FF0010031448866E0050AD53878052802D1042000F0D2F829684FF48070314470
:406100008866BDE8F0810000C086000800F03D40C7860008044928B104494A7842700978017000210846704701001600C986000838B504000C4816D06178012913D800F0D5
:406140002EFC607812F08CF9207058B900208DF80000684600F094F89DF80000012801D104202070002038BD0100160010B5084960B10278082A09D24278042A06D20549FA
:406180004A700078087011F04AFE0021084610BD01001600C986000810B504460448032C05D800F0FCFB204612F064F9002010BDFFFF160010B5040008480ED06178012934
:4061C0000BD800F0ECFB204612F096F96078012802D1204600F0A6FC002010BD0100160010B5EEF713FD09490028094A0868104450F8A01F03D041F48021016010BD21F4E0
:4062000080210160BDE8104011F06FBDC086000800F03D400949087805280DD14A7808490848096808441AB9416F21F001014167C16E41F00101C16670470000C7860008AF
:40624000C086000800F03D400148007870470000C786000802484078022800D001207047C5860008012807D0032807D0042803D0052803D0FF2070470120704702207047E7
:4062800010B5040002D011F065FD207010BD00000149487070470000C786000810B50446EDF72CF9062C01D9FF2C01D102480470BDE81040EDF70CB9C786000801494870A1
:4062C00070470000C58600082DE9F05F1E001546894607464FF6FF785FD000F060FBEDF70DF92F492F4A4878401CC0B2044606E002EB04131B7A202B2BD0641CE4B2202C8A
:40630000F6D3002406E002EB04131B7A202B20D0641CE4B28442F6D32024202C3DD03C70484602EB041764F31F60C7E900600878A5F500498A46A9F5E25949F6404B20282E
:4063400009D0FFF70DFD0646B5421AD3281AF86011E04C70E1E75846854219D9FFF732FD0146404681420AD0C7F80C9001E00020F8608AF800403C72EDF7AAF80020BDE8B0
:40638000F09FFFF72FFD701B012100F03DF9E2E7A8B2FFF717FD4045E9D14046EFE70000CB86000810CA000870B5074CA5780D2D07D2FFF789FF002802D1A178491CA170A6
:4063C00070BD4FF6FF7070BDCB86000870B5074CE57815B14FF6FF7070BDFFF775FF0028FAD1E178491CE17070BD0000CB8600082DE9F04720280BD2234E06EB0014207A46
:40640000202805D000F0CBFAE068002718B133E00120BDE8F087EDF771F8FFF7A1FC012100F0F2F8E760FFF7DDFCEDF751F800F0BBF8DFF85890054620281AD0EDF75EF8CA
:4064400006EB051649F64048F068404505D94046FFF7B8FC0021404604E080B2FFF7B2FC0021F06800F0D0F8EDF732F889F8005002E0202089F8000020202072276067602A
:406480000020E760C5E7000010CA0008CB86000810B5074CA17839B1FFF7AAFF10B9A078401EA070002010BD4FF6FF7010BD0000CB86000810B5074CE17839B1FFF798FFD6
:4064C00010B9E078401EE070002010BD4FF6FF7010BD0000CB8600082DE9F04F002589B02E46AB4600F05BFA00232D4F6A461846012407EB0011BA4691F808C0BCF1200FA7
